{
  "address": "0x5C6860704Caa3BecDd2C69D16ab1f9D6827681ad",
  "abi": [
    {
      "anonymous": false,
      "inputs": [
        {
          "indexed": true,
          "internalType": "address",
          "name": "_asset",
          "type": "address"
        },
        {
          "indexed": false,
          "internalType": "address",
          "name": "_pToken",
          "type": "address"
        },
        {
          "indexed": false,
          "internalType": "uint256",
          "name": "_amount",
          "type": "uint256"
        }
      ],
      "name": "Deposit",
      "type": "event"
    },
    {
      "anonymous": false,
      "inputs": [
        {
          "indexed": true,
          "internalType": "address",
          "name": "previousGovernor",
          "type": "address"
        },
        {
          "indexed": true,
          "internalType": "address",
          "name": "newGovernor",
          "type": "address"
        }
      ],
      "name": "GovernorshipTransferred",
      "type": "event"
    },
    {
      "anonymous": false,
      "inputs": [
        {
          "indexed": true,
          "internalType": "address",
          "name": "_asset",
          "type": "address"
        },
        {
          "indexed": false,
          "internalType": "address",
          "name": "_pToken",
          "type": "address"
        }
      ],
      "name": "PTokenAdded",
      "type": "event"
    },
    {
      "anonymous": false,
      "inputs": [
        {
          "indexed": true,
          "internalType": "address",
          "name": "_asset",
          "type": "address"
        },
        {
          "indexed": false,
          "internalType": "address",
          "name": "_pToken",
          "type": "address"
        }
      ],
      "name": "PTokenRemoved",
      "type": "event"
    },
    {
      "anonymous": false,
      "inputs": [
        {
          "indexed": true,
          "internalType": "address",
          "name": "previousGovernor",
          "type": "address"
        },
        {
          "indexed": true,
          "internalType": "address",
          "name": "newGovernor",
          "type": "address"
        }
      ],
      "name": "PendingGovernorshipTransfer",
      "type": "event"
    },
    {
      "anonymous": false,
      "inputs": [
        {
          "indexed": false,
          "internalType": "uint256",
          "name": "_oldThreshold",
          "type": "uint256"
        },
        {
          "indexed": false,
          "internalType": "uint256",
          "name": "_newThreshold",
          "type": "uint256"
        }
      ],
      "name": "RewardLiquidationThresholdUpdated",
      "type": "event"
    },
    {
      "anonymous": false,
      "inputs": [
        {
          "indexed": false,
          "internalType": "address",
          "name": "_oldAddress",
          "type": "address"
        },
        {
          "indexed": false,
          "internalType": "address",
          "name": "_newAddress",
          "type": "address"
        }
      ],
      "name": "RewardTokenAddressUpdated",
      "type": "event"
    },
    {
      "anonymous": false,
      "inputs": [
        {
          "indexed": false,
          "internalType": "address",
          "name": "recipient",
          "type": "address"
        },
        {
          "indexed": false,
          "internalType": "uint256",
          "name": "amount",
          "type": "uint256"
        }
      ],
      "name": "RewardTokenCollected",
      "type": "event"
    },
    {
      "anonymous": false,
      "inputs": [
        {
          "indexed": true,
          "internalType": "address",
          "name": "_asset",
          "type": "address"
        },
        {
          "indexed": false,
          "internalType": "address",
          "name": "_pToken",
          "type": "address"
        },
        {
          "indexed": false,
          "internalType": "uint256",
          "name": "_amount",
          "type": "uint256"
        }
      ],
      "name": "Withdrawal",
      "type": "event"
    },
    {
      "inputs": [
        {
          "internalType": "address",
          "name": "",
          "type": "address"
        }
      ],
      "name": "assetToPToken",
      "outputs": [
        {
          "internalType": "address",
          "name": "",
          "type": "address"
        }
      ],
      "stateMutability": "view",
      "type": "function"
    },
    {
      "inputs": [
        {
          "internalType": "address",
          "name": "_asset",
          "type": "address"
        }
      ],
      "name": "checkBalance",
      "outputs": [
        {
          "internalType": "uint256",
          "name": "balance",
          "type": "uint256"
        }
      ],
      "stateMutability": "view",
      "type": "function"
    },
    {
      "inputs": [],
      "name": "claimGovernance",
      "outputs": [],
      "stateMutability": "nonpayable",
      "type": "function"
    },
    {
      "inputs": [],
      "name": "collectRewardToken",
      "outputs": [],
      "stateMutability": "nonpayable",
      "type": "function"
    },
    {
      "inputs": [
        {
          "internalType": "address",
          "name": "_asset",
          "type": "address"
        },
        {
          "internalType": "uint256",
          "name": "_amount",
          "type": "uint256"
        }
      ],
      "name": "deposit",
      "outputs": [],
      "stateMutability": "nonpayable",
      "type": "function"
    },
    {
      "inputs": [],
      "name": "depositAll",
      "outputs": [],
      "stateMutability": "nonpayable",
      "type": "function"
    },
    {
      "inputs": [],
      "name": "governor",
      "outputs": [
        {
          "internalType": "address",
          "name": "",
          "type": "address"
        }
      ],
      "stateMutability": "view",
      "type": "function"
    },
    {
      "inputs": [],
      "name": "incentivesController",
      "outputs": [
        {
          "internalType": "contract IAaveIncentivesController",
          "name": "",
          "type": "address"
        }
      ],
      "stateMutability": "view",
      "type": "function"
    },
    {
      "inputs": [
        {
          "internalType": "address",
          "name": "_platformAddress",
          "type": "address"
        },
        {
          "internalType": "address",
          "name": "_vaultAddress",
          "type": "address"
        },
        {
          "internalType": "address",
          "name": "_rewardTokenAddress",
          "type": "address"
        },
        {
          "internalType": "address[]",
          "name": "_assets",
          "type": "address[]"
        },
        {
          "internalType": "address[]",
          "name": "_pTokens",
          "type": "address[]"
        },
        {
          "internalType": "address",
          "name": "_incentivesAddress",
          "type": "address"
        }
      ],
      "name": "initialize",
      "outputs": [],
      "stateMutability": "nonpayable",
      "type": "function"
    },
    {
      "inputs": [
        {
          "internalType": "address",
          "name": "_platformAddress",
          "type": "address"
        },
        {
          "internalType": "address",
          "name": "_vaultAddress",
          "type": "address"
        },
        {
          "internalType": "address",
          "name": "_rewardTokenAddress",
          "type": "address"
        },
        {
          "internalType": "address[]",
          "name": "_assets",
          "type": "address[]"
        },
        {
          "internalType": "address[]",
          "name": "_pTokens",
          "type": "address[]"
        }
      ],
      "name": "initialize",
      "outputs": [],
      "stateMutability": "nonpayable",
      "type": "function"
    },
    {
      "inputs": [],
      "name": "isGovernor",
      "outputs": [
        {
          "internalType": "bool",
          "name": "",
          "type": "bool"
        }
      ],
      "stateMutability": "view",
      "type": "function"
    },
    {
      "inputs": [],
      "name": "platformAddress",
      "outputs": [
        {
          "internalType": "address",
          "name": "",
          "type": "address"
        }
      ],
      "stateMutability": "view",
      "type": "function"
    },
    {
      "inputs": [
        {
          "internalType": "uint256",
          "name": "_assetIndex",
          "type": "uint256"
        }
      ],
      "name": "removePToken",
      "outputs": [],
      "stateMutability": "nonpayable",
      "type": "function"
    },
    {
      "inputs": [],
      "name": "rewardLiquidationThreshold",
      "outputs": [
        {
          "internalType": "uint256",
          "name": "",
          "type": "uint256"
        }
      ],
      "stateMutability": "view",
      "type": "function"
    },
    {
      "inputs": [],
      "name": "rewardTokenAddress",
      "outputs": [
        {
          "internalType": "address",
          "name": "",
          "type": "address"
        }
      ],
      "stateMutability": "view",
      "type": "function"
    },
    {
      "inputs": [],
      "name": "safeApproveAllTokens",
      "outputs": [],
      "stateMutability": "nonpayable",
      "type": "function"
    },
    {
      "inputs": [
        {
          "internalType": "address",
          "name": "_asset",
          "type": "address"
        },
        {
          "internalType": "address",
          "name": "_pToken",
          "type": "address"
        }
      ],
      "name": "setPTokenAddress",
      "outputs": [],
      "stateMutability": "nonpayable",
      "type": "function"
    },
    {
      "inputs": [
        {
          "internalType": "uint256",
          "name": "_threshold",
          "type": "uint256"
        }
      ],
      "name": "setRewardLiquidationThreshold",
      "outputs": [],
      "stateMutability": "nonpayable",
      "type": "function"
    },
    {
      "inputs": [
        {
          "internalType": "address",
          "name": "_rewardTokenAddress",
          "type": "address"
        }
      ],
      "name": "setRewardTokenAddress",
      "outputs": [],
      "stateMutability": "nonpayable",
      "type": "function"
    },
    {
      "inputs": [
        {
          "internalType": "address",
          "name": "_asset",
          "type": "address"
        }
      ],
      "name": "supportsAsset",
      "outputs": [
        {
          "internalType": "bool",
          "name": "",
          "type": "bool"
        }
      ],
      "stateMutability": "view",
      "type": "function"
    },
    {
      "inputs": [
        {
          "internalType": "address",
          "name": "_newGovernor",
          "type": "address"
        }
      ],
      "name": "transferGovernance",
      "outputs": [],
      "stateMutability": "nonpayable",
      "type": "function"
    },
    {
      "inputs": [
        {
          "internalType": "address",
          "name": "_asset",
          "type": "address"
        },
        {
          "internalType": "uint256",
          "name": "_amount",
          "type": "uint256"
        }
      ],
      "name": "transferToken",
      "outputs": [],
      "stateMutability": "nonpayable",
      "type": "function"
    },
    {
      "inputs": [],
      "name": "vaultAddress",
      "outputs": [
        {
          "internalType": "address",
          "name": "",
          "type": "address"
        }
      ],
      "stateMutability": "view",
      "type": "function"
    },
    {
      "inputs": [
        {
          "internalType": "address",
          "name": "_recipient",
          "type": "address"
        },
        {
          "internalType": "address",
          "name": "_asset",
          "type": "address"
        },
        {
          "internalType": "uint256",
          "name": "_amount",
          "type": "uint256"
        }
      ],
      "name": "withdraw",
      "outputs": [],
      "stateMutability": "nonpayable",
      "type": "function"
    },
    {
      "inputs": [],
      "name": "withdrawAll",
      "outputs": [],
      "stateMutability": "nonpayable",
      "type": "function"
    }
  ],
  "transactionHash": "0x03e7150a333a9fd0418599e209a50bd5aff571f376d039649e2178c82a5f5f87",
  "args": [],
  "numDeployments": 1,
  "solcInputHash": "8b9ab7c76342cbbb7fc72e2bb6468724",
  "bytecode": "0x608060405234801561001057600080fd5b50610027336000805160206125c583398151915255565b6000805160206125c5833981519152546040516001600160a01b03909116906000907fc7c0c772add429241571afb3805861fb3cfa2af374534088b76cdb4325a87e9a908290a36125488061007d6000396000f3fe608060405234801561001057600080fd5b50600436106101735760003560e01c8063790fcf9f116100de578063af1df25511610097578063d38bfff411610071578063d38bfff414610329578063d9caed121461033c578063dbe55e561461034f578063de5f62681461036257600080fd5b8063af1df255146102fb578063c7af33521461030e578063cd3b02121461031657600080fd5b8063790fcf9f14610274578063853828b6146102875780639136616a1461028f5780639a6acf20146102a2578063aa388af6146102b5578063ad1728cb146102f357600080fd5b8063430bf08a11610130578063430bf08a1461020957806347e7ef241461021c5780635653b4141461022f5780635d36b190146102465780635f5152261461024e5780636a0597f91461026157600080fd5b80630242241d146101785780630c340a24146101825780630ed57b3a146101a75780630fc3b4c4146101ba5780631072cbea146101e3578063125f9e33146101f6575b600080fd5b61018061036a565b005b61018a610629565b6040516001600160a01b0390911681526020015b60405180910390f35b6101806101b5366004611fd2565b610646565b61018a6101c8366004611f98565b6035602052600090815260409020546001600160a01b031681565b6101806101f13660046121af565b610678565b60375461018a906001600160a01b031681565b60345461018a906001600160a01b031681565b61018061022a3660046121af565b6106b8565b61023860385481565b60405190815260200161019e565b61018061072b565b61023861025c366004611f98565b6107d1565b61018061026f3660046120b3565b61085e565b61018061028236600461200b565b610981565b610180610a88565b61018061029d3660046121fd565b610db1565b6101806102b0366004611f98565b610f7c565b6102e36102c3366004611f98565b6001600160a01b0390811660009081526035602052604090205416151590565b604051901515815260200161019e565b610180611009565b609d5461018a906001600160a01b031681565b6102e36110e7565b6101806103243660046121fd565b611118565b610180610337366004611f98565b61117d565b61018061034a36600461216e565b611221565b60335461018a906001600160a01b031681565b610180611473565b6034546001600160a01b0316331461039d5760405162461bcd60e51b81526004016103949061231f565b60405180910390fd5b6000805160206124d3833981519152805460028114156103cf5760405162461bcd60e51b8152600401610394906123db565b600282556037546036546001600160a01b039091169060009067ffffffffffffffff811115610400576104006124a7565b604051908082528060200260200182016040528015610429578160200160208202803683370190505b50905060005b6036548110156104a5576104696036828154811061044f5761044f612491565b6000918252602090912001546001600160a01b03166115c5565b82828151811061047b5761047b612491565b6001600160a01b03909216602092830291909101909101528061049d8161244a565b91505061042f565b50609d546040516345accf9360e11b81526000916001600160a01b031690638b599f26906104d9908590309060040161228f565b60206040518083038186803b1580156104f157600080fd5b505afa158015610505573d6000803e3d6000fd5b505050506040513d601f19601f820116820180604052508101906105299190612216565b9050801561061e57609d54604051633111e7b360e01b81526000916001600160a01b031690633111e7b390610566908690869030906004016122b9565b602060405180830381600087803b15801561058057600080fd5b505af1158015610594573d6000803e3d6000fd5b505050506040513d601f19601f820116820180604052508101906105b89190612216565b90508181146106025760405162461bcd60e51b8152602060048201526016602482015275414156452072657761726420646966666572656e636560501b6044820152606401610394565b60345461061c906001600160a01b0386811691168361162d565b505b505050600182555050565b60006106416000805160206124f38339815191525490565b905090565b61064e6110e7565b61066a5760405162461bcd60e51b815260040161039490612356565b6106748282611695565b5050565b6106806110e7565b61069c5760405162461bcd60e51b815260040161039490612356565b6106746106a7610629565b6001600160a01b038416908361162d565b6034546001600160a01b031633146106e25760405162461bcd60e51b81526004016103949061231f565b6000805160206124d3833981519152805460028114156107145760405162461bcd60e51b8152600401610394906123db565b6002825561072284846117fa565b50600190555050565b7f1973cae3d8695cb4c31dce9679edb790944900898ecc70570ba365e7de143b0a546001600160a01b0316336001600160a01b0316146107c65760405162461bcd60e51b815260206004820152603060248201527f4f6e6c79207468652070656e64696e6720476f7665726e6f722063616e20636f60448201526f6d706c6574652074686520636c61696d60801b6064820152608401610394565b6107cf33611915565b565b6000806107dd836115c5565b6040516370a0823160e01b81523060048201529091506001600160a01b038216906370a082319060240160206040518083038186803b15801561081f57600080fd5b505afa158015610833573d6000803e3d6000fd5b505050506040513d601f19601f820116820180604052508101906108579190612216565b9392505050565b6108666110e7565b6108825760405162461bcd60e51b815260040161039490612356565b600054610100900460ff168061089b575060005460ff16155b6108b75760405162461bcd60e51b81526004016103949061238d565b600054610100900460ff161580156108d9576000805461ffff19166101011790555b609d80546001600160a01b0319166001600160a01b0384161790556040805160208781028083018201909352878252610964928c928c928c928c918c91829185019084908082843760009201919091525050604080516020808d0282810182019093528c82529093508c92508b9182918501908490808284376000920191909152506119d992505050565b8015610976576000805461ff00191690555b505050505050505050565b6109896110e7565b6109a55760405162461bcd60e51b815260040161039490612356565b600054610100900460ff16806109be575060005460ff16155b6109da5760405162461bcd60e51b81526004016103949061238d565b600054610100900460ff161580156109fc576000805461ffff19166101011790555b610a6c88888888888080602002602001604051908101604052809392919081815260200183836020028082843760009201919091525050604080516020808c0282810182019093528b82529093508b92508a9182918501908490808284376000920191909152506119d992505050565b8015610a7e576000805461ff00191690555b5050505050505050565b6034546001600160a01b0316331480610ab95750610aa4610629565b6001600160a01b0316336001600160a01b0316145b610b115760405162461bcd60e51b815260206004820152602360248201527f43616c6c6572206973206e6f7420746865205661756c74206f7220476f7665726044820152623737b960e91b6064820152608401610394565b6000805160206124d383398151915280546002811415610b435760405162461bcd60e51b8152600401610394906123db565b6002825560005b603654811015610da957600060368281548110610b6957610b69612491565b6000918252602082200154603680546001600160a01b039092169350610b99918590811061044f5761044f612491565b6040516370a0823160e01b81523060048201529091506000906001600160a01b038316906370a082319060240160206040518083038186803b158015610bde57600080fd5b505afa158015610bf2573d6000803e3d6000fd5b505050506040513d601f19601f82011682018060405250810190610c169190612216565b90508015610d93576000610c28611ac1565b604051631a4ca37b60e21b81526001600160a01b0386811660048301526024820185905230604483015291909116906369328dec90606401602060405180830381600087803b158015610c7a57600080fd5b505af1158015610c8e573d6000803e3d6000fd5b505050506040513d601f19601f82011682018060405250810190610cb29190612216565b9050818114610cfd5760405162461bcd60e51b8152602060048201526017602482015276088d2c840dcdee840eed2e8d0c8e4c2ee40cadcdeeaced604b1b6044820152606401610394565b6034546040516370a0823160e01b8152306004820152610d91916001600160a01b0390811691908716906370a082319060240160206040518083038186803b158015610d4857600080fd5b505afa158015610d5c573d6000803e3d6000fd5b505050506040513d601f19601f82011682018060405250810190610d809190612216565b6001600160a01b038716919061162d565b505b5050508080610da19061244a565b915050610b4a565b505060019055565b610db96110e7565b610dd55760405162461bcd60e51b815260040161039490612356565b6036548110610e165760405162461bcd60e51b815260206004820152600d60248201526c092dcecc2d8d2c840d2dcc8caf609b1b6044820152606401610394565b600060368281548110610e2b57610e2b612491565b60009182526020808320909101546001600160a01b03908116808452603590925260409092205460365491935090911690610e6890600190612403565b831015610eea5760368054610e7f90600190612403565b81548110610e8f57610e8f612491565b600091825260209091200154603680546001600160a01b039092169185908110610ebb57610ebb612491565b9060005260206000200160006101000a8154816001600160a01b0302191690836001600160a01b031602179055505b6036805480610efb57610efb61247b565b60008281526020808220600019908401810180546001600160a01b031990811690915593019093556001600160a01b038581168083526035855260409283902080549094169093559051908416815290917f16b7600acff27e39a8a96056b3d533045298de927507f5c1d97e4accde60488c910160405180910390a2505050565b610f846110e7565b610fa05760405162461bcd60e51b815260040161039490612356565b603754604080516001600160a01b03928316815291831660208301527f6000690cf6fd1e69830cc1142bc52655402f4a58db681849f61c3c8fb322ff8a910160405180910390a1603780546001600160a01b0319166001600160a01b0392909216919091179055565b6110116110e7565b61102d5760405162461bcd60e51b815260040161039490612356565b6000805160206124d38339815191528054600281141561105f5760405162461bcd60e51b8152600401610394906123db565b60028255600061106d611ac1565b905060005b6036548110156110dd5760006036828154811061109157611091612491565b60009182526020822001546001600160a01b031691506110b49082908590611ba7565b6110ca6001600160a01b03821684600019611ba7565b50806110d58161244a565b915050611072565b5050600182555050565b60006110ff6000805160206124f38339815191525490565b6001600160a01b0316336001600160a01b031614905090565b6111206110e7565b61113c5760405162461bcd60e51b815260040161039490612356565b60385460408051918252602082018390527f01538952e8f491e3569a11bf3935ca2fa917ea85ec938dac52e696fbb76d8cc6910160405180910390a1603855565b6111856110e7565b6111a15760405162461bcd60e51b815260040161039490612356565b6111c9817f1973cae3d8695cb4c31dce9679edb790944900898ecc70570ba365e7de143b0a55565b806001600160a01b03166111e96000805160206124f38339815191525490565b6001600160a01b03167fa39cc5eb22d0f34d8beaefee8a3f17cc229c1a1d1ef87a5ad47313487b1c4f0d60405160405180910390a350565b6034546001600160a01b0316331461124b5760405162461bcd60e51b81526004016103949061231f565b6000805160206124d38339815191528054600281141561127d5760405162461bcd60e51b8152600401610394906123db565b60028255600083116112d15760405162461bcd60e51b815260206004820152601760248201527f4d75737420776974686472617720736f6d657468696e670000000000000000006044820152606401610394565b6001600160a01b0385166113205760405162461bcd60e51b8152602060048201526016602482015275135d5cdd081cdc1958da599e481c9958da5c1a595b9d60521b6044820152606401610394565b836001600160a01b03167f2717ead6b9200dd235aad468c9809ea400fe33ac69b5bfaa6d3e90fc922b6398611354866115c5565b604080516001600160a01b039092168252602082018790520160405180910390a2600061137f611ac1565b604051631a4ca37b60e21b81526001600160a01b0387811660048301526024820187905230604483015291909116906369328dec90606401602060405180830381600087803b1580156113d157600080fd5b505af11580156113e5573d6000803e3d6000fd5b505050506040513d601f19601f820116820180604052508101906114099190612216565b90508381146114545760405162461bcd60e51b8152602060048201526017602482015276088d2c840dcdee840eed2e8d0c8e4c2ee40cadcdeeaced604b1b6044820152606401610394565b6114686001600160a01b038616878661162d565b505060019055505050565b6034546001600160a01b0316331461149d5760405162461bcd60e51b81526004016103949061231f565b6000805160206124d3833981519152805460028114156114cf5760405162461bcd60e51b8152600401610394906123db565b6002825560005b603654811015610da9576000603682815481106114f5576114f5612491565b6000918252602090912001546040516370a0823160e01b81523060048201526001600160a01b03909116906370a082319060240160206040518083038186803b15801561154157600080fd5b505afa158015611555573d6000803e3d6000fd5b505050506040513d601f19601f820116820180604052508101906115799190612216565b905080156115b2576115b26036838154811061159757611597612491565b6000918252602090912001546001600160a01b0316826117fa565b50806115bd8161244a565b9150506114d6565b6001600160a01b03808216600090815260356020526040812054909116806116275760405162461bcd60e51b815260206004820152601560248201527418551bdad95b88191bd95cc81b9bdd08195e1a5cdd605a1b6044820152606401610394565b92915050565b6040516001600160a01b03831660248201526044810182905261169090849063a9059cbb60e01b906064015b60408051601f198184030181529190526020810180516001600160e01b03166001600160e01b031990931692909217909152611ccb565b505050565b6001600160a01b0382811660009081526035602052604090205416156116f25760405162461bcd60e51b81526020600482015260126024820152711c151bdad95b88185b1c9958591e481cd95d60721b6044820152606401610394565b6001600160a01b0382161580159061171257506001600160a01b03811615155b6117525760405162461bcd60e51b8152602060048201526011602482015270496e76616c69642061646472657373657360781b6044820152606401610394565b6001600160a01b03828116600081815260356020908152604080832080549587166001600160a01b031996871681179091556036805460018101825594527f4a11f94e20a93c79f6ec743a1954ec4fc2c08429ae2122118bf234b2185c81b890930180549095168417909455925190815290917fef6485b84315f9b1483beffa32aae9a0596890395e3d7521f1c5fbb51790e765910160405180910390a26106748282611d9d565b600081116118435760405162461bcd60e51b81526020600482015260166024820152754d757374206465706f73697420736f6d657468696e6760501b6044820152606401610394565b816001600160a01b03167f5548c837ab068cf56a2c2479df0882a4922fd203edb7517321831d95078c5f62611877846115c5565b604080516001600160a01b039092168252602082018590520160405180910390a26118a0611ac1565b60405163e8eda9df60e01b81526001600160a01b0384811660048301526024820184905230604483015260006064830152919091169063e8eda9df90608401600060405180830381600087803b1580156118f957600080fd5b505af115801561190d573d6000803e3d6000fd5b505050505050565b6001600160a01b03811661196b5760405162461bcd60e51b815260206004820152601a60248201527f4e657720476f7665726e6f7220697320616464726573732830290000000000006044820152606401610394565b806001600160a01b031661198b6000805160206124f38339815191525490565b6001600160a01b03167fc7c0c772add429241571afb3805861fb3cfa2af374534088b76cdb4325a87e9a60405160405180910390a36119d6816000805160206124f383398151915255565b50565b603380546001600160a01b038088166001600160a01b031992831617909255603480548784169083161790556037805492861692909116919091179055815181518114611a5f5760405162461bcd60e51b8152602060048201526014602482015273496e76616c696420696e7075742061727261797360601b6044820152606401610394565b60005b81811015611ab857611aa6848281518110611a7f57611a7f612491565b6020026020010151848381518110611a9957611a99612491565b6020026020010151611695565b80611ab08161244a565b915050611a62565b50505050505050565b600080603360009054906101000a90046001600160a01b03166001600160a01b0316630261bf8b6040518163ffffffff1660e01b815260040160206040518083038186803b158015611b1257600080fd5b505afa158015611b26573d6000803e3d6000fd5b505050506040513d601f19601f82011682018060405250810190611b4a9190611fb5565b90506001600160a01b038116611ba25760405162461bcd60e51b815260206004820152601b60248201527f4c656e64696e6720706f6f6c20646f6573206e6f7420657869737400000000006044820152606401610394565b919050565b801580611c305750604051636eb1769f60e11b81523060048201526001600160a01b03838116602483015284169063dd62ed3e9060440160206040518083038186803b158015611bf657600080fd5b505afa158015611c0a573d6000803e3d6000fd5b505050506040513d601f19601f82011682018060405250810190611c2e9190612216565b155b611c9b5760405162461bcd60e51b815260206004820152603660248201527f5361666545524332303a20617070726f76652066726f6d206e6f6e2d7a65726f60448201527520746f206e6f6e2d7a65726f20616c6c6f77616e636560501b6064820152608401610394565b6040516001600160a01b03831660248201526044810182905261169090849063095ea7b360e01b90606401611659565b6000611d20826040518060400160405280602081526020017f5361666545524332303a206c6f772d6c6576656c2063616c6c206661696c6564815250856001600160a01b0316611dd49092919063ffffffff16565b8051909150156116905780806020019051810190611d3e91906121db565b6116905760405162461bcd60e51b815260206004820152602a60248201527f5361666545524332303a204552433230206f7065726174696f6e20646964206e6044820152691bdd081cdd58d8d9595960b21b6064820152608401610394565b6000611da7611ac1565b9050611dbe6001600160a01b038416826000611ba7565b6116906001600160a01b03841682600019611ba7565b6060611de38484600085611deb565b949350505050565b606082471015611e4c5760405162461bcd60e51b815260206004820152602660248201527f416464726573733a20696e73756666696369656e742062616c616e636520666f6044820152651c8818d85b1b60d21b6064820152608401610394565b843b611e9a5760405162461bcd60e51b815260206004820152601d60248201527f416464726573733a2063616c6c20746f206e6f6e2d636f6e74726163740000006044820152606401610394565b600080866001600160a01b03168587604051611eb69190612273565b60006040518083038185875af1925050503d8060008114611ef3576040519150601f19603f3d011682016040523d82523d6000602084013e611ef8565b606091505b5091509150611f08828286611f13565b979650505050505050565b60608315611f22575081610857565b825115611f325782518084602001fd5b8160405162461bcd60e51b815260040161039491906122ec565b60008083601f840112611f5e57600080fd5b50813567ffffffffffffffff811115611f7657600080fd5b6020830191508360208260051b8501011115611f9157600080fd5b9250929050565b600060208284031215611faa57600080fd5b8135610857816124bd565b600060208284031215611fc757600080fd5b8151610857816124bd565b60008060408385031215611fe557600080fd5b8235611ff0816124bd565b91506020830135612000816124bd565b809150509250929050565b600080600080600080600060a0888a03121561202657600080fd5b8735612031816124bd565b96506020880135612041816124bd565b95506040880135612051816124bd565b9450606088013567ffffffffffffffff8082111561206e57600080fd5b61207a8b838c01611f4c565b909650945060808a013591508082111561209357600080fd5b506120a08a828b01611f4c565b989b979a50959850939692959293505050565b60008060008060008060008060c0898b0312156120cf57600080fd5b88356120da816124bd565b975060208901356120ea816124bd565b965060408901356120fa816124bd565b9550606089013567ffffffffffffffff8082111561211757600080fd5b6121238c838d01611f4c565b909750955060808b013591508082111561213c57600080fd5b506121498b828c01611f4c565b90945092505060a089013561215d816124bd565b809150509295985092959890939650565b60008060006060848603121561218357600080fd5b833561218e816124bd565b9250602084013561219e816124bd565b929592945050506040919091013590565b600080604083850312156121c257600080fd5b82356121cd816124bd565b946020939093013593505050565b6000602082840312156121ed57600080fd5b8151801515811461085757600080fd5b60006020828403121561220f57600080fd5b5035919050565b60006020828403121561222857600080fd5b5051919050565b600081518084526020808501945080840160005b838110156122685781516001600160a01b031687529582019590820190600101612243565b509495945050505050565b6000825161228581846020870161241a565b9190910192915050565b6040815260006122a2604083018561222f565b905060018060a01b03831660208301529392505050565b6060815260006122cc606083018661222f565b6020830194909452506001600160a01b0391909116604090910152919050565b602081526000825180602084015261230b81604085016020870161241a565b601f01601f19169190910160400192915050565b60208082526017908201527f43616c6c6572206973206e6f7420746865205661756c74000000000000000000604082015260600190565b6020808252601a908201527f43616c6c6572206973206e6f742074686520476f7665726e6f72000000000000604082015260600190565b6020808252602e908201527f496e697469616c697a61626c653a20636f6e747261637420697320616c72656160408201526d191e481a5b9a5d1a585b1a5e995960921b606082015260800190565b6020808252600e908201526d1499595b9d1c985b9d0818d85b1b60921b604082015260600190565b60008282101561241557612415612465565b500390565b60005b8381101561243557818101518382015260200161241d565b83811115612444576000848401525b50505050565b600060001982141561245e5761245e612465565b5060010190565b634e487b7160e01b600052601160045260246000fd5b634e487b7160e01b600052603160045260246000fd5b634e487b7160e01b600052603260045260246000fd5b634e487b7160e01b600052604160045260246000fd5b6001600160a01b03811681146119d657600080fdfe218adab1852f0bdeacb3305483cf296dbcf6abf496f646284463c8e6a43fa665fe7bb572d5723516ce4fe7a6a664f5adb38f5714efcd271411ed70a34d3ef2f7a2646970667358221220d22f85195a5a9b6f48fcea400c807439364c626bc1679b1c192b1ad4bcc7dba264736f6c63430008070033fe7bb572d5723516ce4fe7a6a664f5adb38f5714efcd271411ed70a34d3ef2f7",
  "devdoc": {
    "kind": "dev",
    "methods": {
      "checkBalance(address)": {
        "details": "Get the total asset value held in the platform",
        "params": {
          "_asset": "Address of the asset"
        },
        "returns": {
          "balance": "   Total value of the asset in the platform"
        }
      },
      "claimGovernance()": {
        "details": "Claim Governance of the contract to a new account (`newGovernor`). Can only be called by the new Governor."
      },
      "collectRewardToken()": {
        "details": "Collect AAVE, send to Vault."
      },
      "deposit(address,uint256)": {
        "details": "Deposit asset into Aave",
        "params": {
          "_amount": "Amount of asset to deposit",
          "_asset": "Address of asset to deposit"
        }
      },
      "depositAll()": {
        "details": "Deposit the entire balance of any supported asset into Aave"
      },
      "governor()": {
        "details": "Returns the address of the current Governor."
      },
      "initialize(address,address,address,address[],address[])": {
        "details": "Internal initialize function, to set up initial internal state",
        "params": {
          "_assets": "Addresses of initial supported assets",
          "_pTokens": "Platform Token corresponding addresses",
          "_platformAddress": "Generic platform address",
          "_rewardTokenAddress": "Address of reward token for platform",
          "_vaultAddress": "Address of the Vault"
        }
      },
      "initialize(address,address,address,address[],address[],address)": {
        "params": {
          "_assets": "Addresses of supported assets",
          "_incentivesAddress": "Address of the AAVE incentives controller",
          "_pTokens": "Platform Token corresponding addresses",
          "_platformAddress": "Address of the AAVE pool",
          "_rewardTokenAddress": "Address of the AAVE token",
          "_vaultAddress": "Address of the vault"
        }
      },
      "isGovernor()": {
        "details": "Returns true if the caller is the current Governor."
      },
      "removePToken(uint256)": {
        "details": "Remove a supported asset by passing its index.      This method can only be called by the system Governor",
        "params": {
          "_assetIndex": "Index of the asset to be removed"
        }
      },
      "safeApproveAllTokens()": {
        "details": "Approve the spending of all assets by their corresponding aToken,      if for some reason is it necessary."
      },
      "setPTokenAddress(address,address)": {
        "details": "Provide support for asset by passing its pToken address.      This method can only be called by the system Governor",
        "params": {
          "_asset": "Address for the asset",
          "_pToken": "Address for the corresponding platform token"
        }
      },
      "setRewardLiquidationThreshold(uint256)": {
        "details": "Set the reward token liquidation threshold.",
        "params": {
          "_threshold": "Threshold amount in decimals of reward token that will cause the Vault to claim and withdrawAll on allocate() calls."
        }
      },
      "setRewardTokenAddress(address)": {
        "details": "Set the reward token address.",
        "params": {
          "_rewardTokenAddress": "Address of the reward token"
        }
      },
      "supportsAsset(address)": {
        "details": "Retuns bool indicating whether asset is supported by strategy",
        "params": {
          "_asset": "Address of the asset"
        }
      },
      "transferGovernance(address)": {
        "details": "Transfers Governance of the contract to a new account (`newGovernor`). Can only be called by the current Governor. Must be claimed for this to complete",
        "params": {
          "_newGovernor": "Address of the new Governor"
        }
      },
      "transferToken(address,uint256)": {
        "details": "Transfer token to governor. Intended for recovering tokens stuck in      strategy contracts, i.e. mistaken sends.",
        "params": {
          "_amount": "Amount of the asset to transfer",
          "_asset": "Address for the asset"
        }
      },
      "withdraw(address,address,uint256)": {
        "details": "Withdraw asset from Aave",
        "params": {
          "_amount": "Amount of asset to withdraw",
          "_asset": "Address of asset to withdraw",
          "_recipient": "Address to receive withdrawn asset"
        }
      },
      "withdrawAll()": {
        "details": "Remove all assets from platform and send them to Vault contract."
      }
    },
    "version": 1
  },
  "userdoc": {
    "kind": "user",
    "methods": {
      "initialize(address,address,address,address[],address[],address)": {
        "notice": "Initializer for setting up strategy internal state. This overrides the InitializableAbstractStrategy initializer as AAVE needs several extra addresses for the rewards program."
      }
    },
    "version": 1
  },
  "storageLayout": {
    "storage": [
      {
        "astId": 10042,
        "contract": "contracts/strategies/AaveStrategy.sol:AaveStrategy",
        "label": "initialized",
        "offset": 0,
        "slot": "0",
        "type": "t_bool"
      },
      {
        "astId": 10045,
        "contract": "contracts/strategies/AaveStrategy.sol:AaveStrategy",
        "label": "initializing",
        "offset": 1,
        "slot": "0",
        "type": "t_bool"
      },
      {
        "astId": 10085,
        "contract": "contracts/strategies/AaveStrategy.sol:AaveStrategy",
        "label": "______gap",
        "offset": 0,
        "slot": "1",
        "type": "t_array(t_uint256)50_storage"
      },
      {
        "astId": 10157,
        "contract": "contracts/strategies/AaveStrategy.sol:AaveStrategy",
        "label": "platformAddress",
        "offset": 0,
        "slot": "51",
        "type": "t_address"
      },
      {
        "astId": 10159,
        "contract": "contracts/strategies/AaveStrategy.sol:AaveStrategy",
        "label": "vaultAddress",
        "offset": 0,
        "slot": "52",
        "type": "t_address"
      },
      {
        "astId": 10163,
        "contract": "contracts/strategies/AaveStrategy.sol:AaveStrategy",
        "label": "assetToPToken",
        "offset": 0,
        "slot": "53",
        "type": "t_mapping(t_address,t_address)"
      },
      {
        "astId": 10166,
        "contract": "contracts/strategies/AaveStrategy.sol:AaveStrategy",
        "label": "assetsMapped",
        "offset": 0,
        "slot": "54",
        "type": "t_array(t_address)dyn_storage"
      },
      {
        "astId": 10168,
        "contract": "contracts/strategies/AaveStrategy.sol:AaveStrategy",
        "label": "rewardTokenAddress",
        "offset": 0,
        "slot": "55",
        "type": "t_address"
      },
      {
        "astId": 10170,
        "contract": "contracts/strategies/AaveStrategy.sol:AaveStrategy",
        "label": "rewardLiquidationThreshold",
        "offset": 0,
        "slot": "56",
        "type": "t_uint256"
      },
      {
        "astId": 10174,
        "contract": "contracts/strategies/AaveStrategy.sol:AaveStrategy",
        "label": "_reserved",
        "offset": 0,
        "slot": "57",
        "type": "t_array(t_int256)100_storage"
      },
      {
        "astId": 7450,
        "contract": "contracts/strategies/AaveStrategy.sol:AaveStrategy",
        "label": "incentivesController",
        "offset": 0,
        "slot": "157",
        "type": "t_contract(IAaveIncentivesController)8240"
      }
    ],
    "types": {
      "t_address": {
        "encoding": "inplace",
        "label": "address",
        "numberOfBytes": "20"
      },
      "t_array(t_address)dyn_storage": {
        "base": "t_address",
        "encoding": "dynamic_array",
        "label": "address[]",
        "numberOfBytes": "32"
      },
      "t_array(t_int256)100_storage": {
        "base": "t_int256",
        "encoding": "inplace",
        "label": "int256[100]",
        "numberOfBytes": "3200"
      },
      "t_array(t_uint256)50_storage": {
        "base": "t_uint256",
        "encoding": "inplace",
        "label": "uint256[50]",
        "numberOfBytes": "1600"
      },
      "t_bool": {
        "encoding": "inplace",
        "label": "bool",
        "numberOfBytes": "1"
      },
      "t_contract(IAaveIncentivesController)8240": {
        "encoding": "inplace",
        "label": "contract IAaveIncentivesController",
        "numberOfBytes": "20"
      },
      "t_int256": {
        "encoding": "inplace",
        "label": "int256",
        "numberOfBytes": "32"
      },
      "t_mapping(t_address,t_address)": {
        "encoding": "mapping",
        "key": "t_address",
        "label": "mapping(address => address)",
        "numberOfBytes": "32",
        "value": "t_address"
      },
      "t_uint256": {
        "encoding": "inplace",
        "label": "uint256",
        "numberOfBytes": "32"
      }
    }
  }
}