{
  "_format": "hh-sol-artifact-1",
  "contractName": "Flipper",
  "sourceName": "contracts/flipper/Flipper.sol",
  "abi": [
    {
      "inputs": [
        {
          "internalType": "address",
          "name": "_dai",
          "type": "address"
        },
        {
          "internalType": "address",
          "name": "_xusd",
          "type": "address"
        },
        {
          "internalType": "address",
          "name": "_usdc",
          "type": "address"
        },
        {
          "internalType": "address",
          "name": "_usdt",
          "type": "address"
        }
      ],
      "stateMutability": "nonpayable",
      "type": "constructor"
    },
    {
      "anonymous": false,
      "inputs": [
        {
          "indexed": true,
          "internalType": "address",
          "name": "previousGovernor",
          "type": "address"
        },
        {
          "indexed": true,
          "internalType": "address",
          "name": "newGovernor",
          "type": "address"
        }
      ],
      "name": "GovernorshipTransferred",
      "type": "event"
    },
    {
      "anonymous": false,
      "inputs": [
        {
          "indexed": true,
          "internalType": "address",
          "name": "previousGovernor",
          "type": "address"
        },
        {
          "indexed": true,
          "internalType": "address",
          "name": "newGovernor",
          "type": "address"
        }
      ],
      "name": "PendingGovernorshipTransfer",
      "type": "event"
    },
    {
      "inputs": [
        {
          "internalType": "uint256",
          "name": "amount",
          "type": "uint256"
        }
      ],
      "name": "buyXusdWithDai",
      "outputs": [],
      "stateMutability": "nonpayable",
      "type": "function"
    },
    {
      "inputs": [
        {
          "internalType": "uint256",
          "name": "amount",
          "type": "uint256"
        }
      ],
      "name": "buyXusdWithUsdc",
      "outputs": [],
      "stateMutability": "nonpayable",
      "type": "function"
    },
    {
      "inputs": [
        {
          "internalType": "uint256",
          "name": "amount",
          "type": "uint256"
        }
      ],
      "name": "buyXusdWithUsdt",
      "outputs": [],
      "stateMutability": "nonpayable",
      "type": "function"
    },
    {
      "inputs": [],
      "name": "claimGovernance",
      "outputs": [],
      "stateMutability": "nonpayable",
      "type": "function"
    },
    {
      "inputs": [],
      "name": "governor",
      "outputs": [
        {
          "internalType": "address",
          "name": "",
          "type": "address"
        }
      ],
      "stateMutability": "view",
      "type": "function"
    },
    {
      "inputs": [],
      "name": "isGovernor",
      "outputs": [
        {
          "internalType": "bool",
          "name": "",
          "type": "bool"
        }
      ],
      "stateMutability": "view",
      "type": "function"
    },
    {
      "inputs": [],
      "name": "rebaseOptIn",
      "outputs": [],
      "stateMutability": "nonpayable",
      "type": "function"
    },
    {
      "inputs": [
        {
          "internalType": "uint256",
          "name": "amount",
          "type": "uint256"
        }
      ],
      "name": "sellXusdForDai",
      "outputs": [],
      "stateMutability": "nonpayable",
      "type": "function"
    },
    {
      "inputs": [
        {
          "internalType": "uint256",
          "name": "amount",
          "type": "uint256"
        }
      ],
      "name": "sellXusdForUsdc",
      "outputs": [],
      "stateMutability": "nonpayable",
      "type": "function"
    },
    {
      "inputs": [
        {
          "internalType": "uint256",
          "name": "amount",
          "type": "uint256"
        }
      ],
      "name": "sellXusdForUsdt",
      "outputs": [],
      "stateMutability": "nonpayable",
      "type": "function"
    },
    {
      "inputs": [
        {
          "internalType": "address",
          "name": "_newGovernor",
          "type": "address"
        }
      ],
      "name": "transferGovernance",
      "outputs": [],
      "stateMutability": "nonpayable",
      "type": "function"
    },
    {
      "inputs": [
        {
          "internalType": "address",
          "name": "token",
          "type": "address"
        },
        {
          "internalType": "uint256",
          "name": "amount",
          "type": "uint256"
        }
      ],
      "name": "withdraw",
      "outputs": [],
      "stateMutability": "nonpayable",
      "type": "function"
    },
    {
      "inputs": [],
      "name": "withdrawAll",
      "outputs": [],
      "stateMutability": "nonpayable",
      "type": "function"
    }
  ],
  "bytecode": "0x6101006040523480156200001257600080fd5b50604051620018ba380380620018ba833981016040819052620000359162000132565b6200004d336000805160206200189a83398151915255565b6000805160206200189a833981519152546040516001600160a01b03909116906000907fc7c0c772add429241571afb3805861fb3cfa2af374534088b76cdb4325a87e9a908290a36001600160a01b038416620000a957600080fd5b6001600160a01b038316620000bd57600080fd5b6001600160a01b038216620000d157600080fd5b6001600160a01b038116620000e557600080fd5b6001600160601b0319606094851b811660805292841b831660a05290831b821660c05290911b1660e0526200018f565b80516001600160a01b03811681146200012d57600080fd5b919050565b600080600080608085870312156200014957600080fd5b620001548562000115565b9350620001646020860162000115565b9250620001746040860162000115565b9150620001846060860162000115565b905092959194509250565b60805160601c60a05160601c60c05160601c60e05160601c61165c6200023e6000396000818161097701528181610a0501528181610b480152610c550152600081816104120152818161052f01528181610a5a0152610ae60152600081816102f60152818161063c015281816108960152818161092201528181610be801528181610cfd015261102601526000818161020d015281816107b5015281816108410152610daf015261165c6000f3fe608060405234801561001057600080fd5b50600436106100cf5760003560e01c8063b5a92a171161008c578063d0cf505911610066578063d0cf505914610182578063d38bfff414610195578063f3fef3a3146101a8578063f51b0fd4146101bb57600080fd5b8063b5a92a1714610144578063b9f8add314610157578063c7af33521461016a57600080fd5b806306fc1372146100d45780630c340a24146100e95780631465d2ab1461010e5780634e8ecb87146101215780635d36b19014610134578063853828b61461013c575b600080fd5b6100e76100e2366004611486565b6101c3565b005b6100f16103c1565b6040516001600160a01b0390911681526020015b60405180910390f35b6100e761011c366004611486565b6103de565b6100e761012f366004611486565b6104fb565b6100e7610675565b6100e761071b565b6100e7610152366004611486565b610b14565b6100e7610165366004611486565b610c21565b610172610d38565b6040519015158152602001610105565b6100e7610190366004611486565b610d69565b6100e76101a336600461141f565b610e75565b6100e76101b636600461143a565b610f19565b6100e7610fb8565b69054b40b1f852bda000008111156101f65760405162461bcd60e51b81526004016101ed90611562565b60405180910390fd5b6040516323b872dd60e01b81526001600160a01b037f000000000000000000000000000000000000000000000000000000000000000016906323b872dd90610246903390309086906004016114d4565b602060405180830381600087803b15801561026057600080fd5b505af1158015610274573d6000803e3d6000fd5b505050506040513d601f19601f820116820180604052508101906102989190611464565b6102da5760405162461bcd60e51b8152602060048201526013602482015272111052481d1c985b9cd9995c8819985a5b1959606a1b60448201526064016101ed565b60405163a9059cbb60e01b8152336004820152602481018290527f00000000000000000000000000000000000000000000000000000000000000006001600160a01b03169063a9059cbb906044015b602060405180830381600087803b15801561034357600080fd5b505af1158015610357573d6000803e3d6000fd5b505050506040513d601f19601f8201168201806040525081019061037b9190611464565b6103be5760405162461bcd60e51b8152602060048201526014602482015273161554d1081d1c985b9cd9995c8819985a5b195960621b60448201526064016101ed565b50565b60006103d96000805160206116078339815191525490565b905090565b69054b40b1f852bda000008111156104085760405162461bcd60e51b81526004016101ed90611562565b6001600160a01b037f0000000000000000000000000000000000000000000000000000000000000000166323b872dd333061044864e8d4a51000866115b4565b6040518463ffffffff1660e01b8152600401610466939291906114d4565b602060405180830381600087803b15801561048057600080fd5b505af1158015610494573d6000803e3d6000fd5b505050506040513d601f19601f820116820180604052508101906104b89190611464565b6102da5760405162461bcd60e51b81526020600482015260146024820152731554d110c81d1c985b9cd9995c8819985a5b195960621b60448201526064016101ed565b69054b40b1f852bda000008111156105255760405162461bcd60e51b81526004016101ed90611562565b6001600160a01b037f00000000000000000000000000000000000000000000000000000000000000001663a9059cbb3361056464e8d4a51000856115b4565b6040516001600160e01b031960e085901b1681526001600160a01b0390921660048301526024820152604401602060405180830381600087803b1580156105aa57600080fd5b505af11580156105be573d6000803e3d6000fd5b505050506040513d601f19601f820116820180604052508101906105e29190611464565b6106255760405162461bcd60e51b81526020600482015260146024820152731554d110c81d1c985b9cd9995c8819985a5b195960621b60448201526064016101ed565b6040516323b872dd60e01b81526001600160a01b037f000000000000000000000000000000000000000000000000000000000000000016906323b872dd90610329903390309086906004016114d4565b7f44c4d30b2eaad5130ad70c3ba6972730566f3e6359ab83e800d905c61b1c51db546001600160a01b0316336001600160a01b0316146107105760405162461bcd60e51b815260206004820152603060248201527f4f6e6c79207468652070656e64696e6720476f7665726e6f722063616e20636f60448201526f6d706c6574652074686520636c61696d60801b60648201526084016101ed565b6107193361109f565b565b610723610d38565b61073f5760405162461bcd60e51b81526004016101ed9061152b565b7f53bf423e48ed90e97d02ab0ebab13b2a235a6bfbe9c321847d5c175333ac4535805460028114156107835760405162461bcd60e51b81526004016101ed9061158c565b600282556108686107a06000805160206116078339815191525490565b6040516370a0823160e01b81523060048201527f00000000000000000000000000000000000000000000000000000000000000006001600160a01b0316906370a082319060240160206040518083038186803b1580156107ff57600080fd5b505afa158015610813573d6000803e3d6000fd5b505050506040513d601f19601f82011682018060405250810190610837919061149f565b6001600160a01b037f0000000000000000000000000000000000000000000000000000000000000000169190611160565b6109496108816000805160206116078339815191525490565b6040516370a0823160e01b81523060048201527f00000000000000000000000000000000000000000000000000000000000000006001600160a01b0316906370a082319060240160206040518083038186803b1580156108e057600080fd5b505afa1580156108f4573d6000803e3d6000fd5b505050506040513d601f19601f82011682018060405250810190610918919061149f565b6001600160a01b037f0000000000000000000000000000000000000000000000000000000000000000169190611160565b610a2c6109626000805160206116078339815191525490565b6040516370a0823160e01b81523060048201527f00000000000000000000000000000000000000000000000000000000000000006001600160a01b0316906370a0823190602401602060405180830381600087803b1580156109c357600080fd5b505af11580156109d7573d6000803e3d6000fd5b505050506040513d601f19601f820116820180604052508101906109fb919061149f565b6001600160a01b037f0000000000000000000000000000000000000000000000000000000000000000169190611160565b610b0d610a456000805160206116078339815191525490565b6040516370a0823160e01b81523060048201527f00000000000000000000000000000000000000000000000000000000000000006001600160a01b0316906370a082319060240160206040518083038186803b158015610aa457600080fd5b505afa158015610ab8573d6000803e3d6000fd5b505050506040513d601f19601f82011682018060405250810190610adc919061149f565b6001600160a01b037f0000000000000000000000000000000000000000000000000000000000000000169190611160565b5060019055565b69054b40b1f852bda00000811115610b3e5760405162461bcd60e51b81526004016101ed90611562565b6001600160a01b037f0000000000000000000000000000000000000000000000000000000000000000166323b872dd3330610b7e64e8d4a51000866115b4565b6040518463ffffffff1660e01b8152600401610b9c939291906114d4565b600060405180830381600087803b158015610bb657600080fd5b505af1158015610bca573d6000803e3d6000fd5b505060405163a9059cbb60e01b8152336004820152602481018490527f00000000000000000000000000000000000000000000000000000000000000006001600160a01b0316925063a9059cbb9150604401610329565b69054b40b1f852bda00000811115610c4b5760405162461bcd60e51b81526004016101ed90611562565b6001600160a01b037f00000000000000000000000000000000000000000000000000000000000000001663a9059cbb33610c8a64e8d4a51000856115b4565b6040516001600160e01b031960e085901b1681526001600160a01b0390921660048301526024820152604401600060405180830381600087803b158015610cd057600080fd5b505af1158015610ce4573d6000803e3d6000fd5b50506040516323b872dd60e01b81526001600160a01b037f00000000000000000000000000000000000000000000000000000000000000001692506323b872dd9150610329903390309086906004016114d4565b6000610d506000805160206116078339815191525490565b6001600160a01b0316336001600160a01b031614905090565b69054b40b1f852bda00000811115610d935760405162461bcd60e51b81526004016101ed90611562565b60405163a9059cbb60e01b8152336004820152602481018290527f00000000000000000000000000000000000000000000000000000000000000006001600160a01b03169063a9059cbb90604401602060405180830381600087803b158015610dfb57600080fd5b505af1158015610e0f573d6000803e3d6000fd5b505050506040513d601f19601f82011682018060405250810190610e339190611464565b6106255760405162461bcd60e51b8152602060048201526013602482015272111052481d1c985b9cd9995c8819985a5b1959606a1b60448201526064016101ed565b610e7d610d38565b610e995760405162461bcd60e51b81526004016101ed9061152b565b610ec1817f44c4d30b2eaad5130ad70c3ba6972730566f3e6359ab83e800d905c61b1c51db55565b806001600160a01b0316610ee16000805160206116078339815191525490565b6001600160a01b03167fa39cc5eb22d0f34d8beaefee8a3f17cc229c1a1d1ef87a5ad47313487b1c4f0d60405160405180910390a350565b610f21610d38565b610f3d5760405162461bcd60e51b81526004016101ed9061152b565b7f53bf423e48ed90e97d02ab0ebab13b2a235a6bfbe9c321847d5c175333ac453580546002811415610f815760405162461bcd60e51b81526004016101ed9061158c565b60028255610faf610f9e6000805160206116078339815191525490565b6001600160a01b0386169085611160565b50600190555050565b610fc0610d38565b610fdc5760405162461bcd60e51b81526004016101ed9061152b565b7f53bf423e48ed90e97d02ab0ebab13b2a235a6bfbe9c321847d5c175333ac4535805460028114156110205760405162461bcd60e51b81526004016101ed9061158c565b600282557f00000000000000000000000000000000000000000000000000000000000000006001600160a01b031663f51b0fd46040518163ffffffff1660e01b8152600401600060405180830381600087803b15801561107f57600080fd5b505af1158015611093573d6000803e3d6000fd5b50505050600182555050565b6001600160a01b0381166110f55760405162461bcd60e51b815260206004820152601a60248201527f4e657720476f7665726e6f72206973206164647265737328302900000000000060448201526064016101ed565b806001600160a01b03166111156000805160206116078339815191525490565b6001600160a01b03167fc7c0c772add429241571afb3805861fb3cfa2af374534088b76cdb4325a87e9a60405160405180910390a36103be8160008051602061160783398151915255565b604080516001600160a01b038416602482015260448082018490528251808303909101815260649091019091526020810180516001600160e01b031663a9059cbb60e01b1790526111b29084906111b7565b505050565b600061120c826040518060400160405280602081526020017f5361666545524332303a206c6f772d6c6576656c2063616c6c206661696c6564815250856001600160a01b03166112899092919063ffffffff16565b8051909150156111b2578080602001905181019061122a9190611464565b6111b25760405162461bcd60e51b815260206004820152602a60248201527f5361666545524332303a204552433230206f7065726174696f6e20646964206e6044820152691bdd081cdd58d8d9595960b21b60648201526084016101ed565b606061129884846000856112a2565b90505b9392505050565b6060824710156113035760405162461bcd60e51b815260206004820152602660248201527f416464726573733a20696e73756666696369656e742062616c616e636520666f6044820152651c8818d85b1b60d21b60648201526084016101ed565b843b6113515760405162461bcd60e51b815260206004820152601d60248201527f416464726573733a2063616c6c20746f206e6f6e2d636f6e747261637400000060448201526064016101ed565b600080866001600160a01b0316858760405161136d91906114b8565b60006040518083038185875af1925050503d80600081146113aa576040519150601f19603f3d011682016040523d82523d6000602084013e6113af565b606091505b50915091506113bf8282866113ca565b979650505050505050565b606083156113d957508161129b565b8251156113e95782518084602001fd5b8160405162461bcd60e51b81526004016101ed91906114f8565b80356001600160a01b038116811461141a57600080fd5b919050565b60006020828403121561143157600080fd5b61129b82611403565b6000806040838503121561144d57600080fd5b61145683611403565b946020939093013593505050565b60006020828403121561147657600080fd5b8151801515811461129b57600080fd5b60006020828403121561149857600080fd5b5035919050565b6000602082840312156114b157600080fd5b5051919050565b600082516114ca8184602087016115d6565b9190910192915050565b6001600160a01b039384168152919092166020820152604081019190915260600190565b60208152600082518060208401526115178160408501602087016115d6565b601f01601f19169190910160400192915050565b6020808252601a908201527f43616c6c6572206973206e6f742074686520476f7665726e6f72000000000000604082015260600190565b60208082526010908201526f416d6f756e7420746f6f206c6172676560801b604082015260600190565b6020808252600e908201526d1499595b9d1c985b9d0818d85b1b60921b604082015260600190565b6000826115d157634e487b7160e01b600052601260045260246000fd5b500490565b60005b838110156115f15781810151838201526020016115d9565b83811115611600576000848401525b5050505056fe7bea13895fa79d2831e0a9e28edede30099005a50d652d8957cf8a607ee6ca4aa264697066735822122007510b316df37cd9566d266abfeaaafae8fc9b871fd7abeb62924f6209fae1de64736f6c634300080700337bea13895fa79d2831e0a9e28edede30099005a50d652d8957cf8a607ee6ca4a",
  "linkReferences": {},
  "deployedLinkReferences": {}
}