{
  "address": "0x97FDC3c1AA747aC142bb2b9BfbC539A6E0CE0262",
  "abi": [
    {
      "inputs": [
        {
          "internalType": "address",
          "name": "asset",
          "type": "address"
        }
      ],
      "name": "price",
      "outputs": [
        {
          "internalType": "uint256",
          "name": "",
          "type": "uint256"
        }
      ],
      "stateMutability": "view",
      "type": "function"
    }
  ],
  "transactionHash": "0xb846f0075c23ae137ea6cfda7e655d25e6a982a40dee4eba5f99ca31b4c24b7c",
  "args": [],
  "numDeployments": 1,
  "solcInputHash": "d7ee75279a383661ed79ccb63fbb9734",
  "bytecode": "0x608060405234801561001057600080fd5b50610662806100206000396000f3fe608060405234801561001057600080fd5b506004361061002b5760003560e01c8063aea9107814610030575b600080fd5b61004361003e3660046104a4565b610055565b60405190815260200160405180910390f35b600080610061836101f0565b90506001600160a01b0381166100b45760405162461bcd60e51b81526020600482015260136024820152724173736574206e6f7420617661696c61626c6560681b60448201526064015b60405180910390fd5b6000816001600160a01b031663feaf968c6040518163ffffffff1660e01b815260040160a06040518083038186803b1580156100ef57600080fd5b505afa158015610103573d6000803e3d6000fd5b505050506040513d601f19601f82011682018060405250810190610127919061057a565b505050915050600081905061013b85610335565b156101e8576307bfa4808111156101945760405162461bcd60e51b815260206004820152601960248201527f4f7261636c653a2050726963652065786365656473206d61780000000000000060448201526064016100ab565b63042c1d808110156101e85760405162461bcd60e51b815260206004820152601760248201527f4f7261636c653a20507269636520756e646572206d696e00000000000000000060448201526064016100ab565b949350505050565b60006001600160a01b03821673d586e7f844cea2f87f50152665bcbc2c279d8d70141561023257507351d7180eda2260cc4f6e4eebb82fef5c3c2b8300919050565b6001600160a01b03821673a7d7079b0fead91f3e65f86e8915cb59c1a4c6641415610272575073f096872672f44d6eba71458d74fe67f9a77a23b9919050565b6001600160a01b03821673c7198437980c041c805a1edcba50c1ce5db9511814156102b2575073ebe676ee90fe1112671f19b6b7459bc678b67e8a919050565b6001600160a01b03821673b31f66aa3c1e785363f0875a1b74e27b85fd66c714156102f25750730a77230d17318075983913bc2145db16c7366156919050565b60405162461bcd60e51b81526020600482015260136024820152724173736574206e6f7420617661696c61626c6560681b60448201526064016100ab565b919050565b6000806103418361040a565b905060008160405160200161035691906105ca565b604051602081830303815290604052805190602001209050604051602001610387906244414960e81b815260030190565b604051602081830303815290604052805190602001208114806103d15750604051635553444360e01b60208201526024016040516020818303038152906040528051906020012081145b806101e85750604051631554d11560e21b6020820152602401604051602081830303815290604052805190602001208114949350505050565b60606000826001600160a01b03166395d89b416040518163ffffffff1660e01b815260040160006040518083038186803b15801561044757600080fd5b505afa15801561045b573d6000803e3d6000fd5b505050506040513d6000823e601f3d908101601f1916820160405261048391908101906104cd565b9392505050565b805169ffffffffffffffffffff8116811461033057600080fd5b6000602082840312156104b657600080fd5b81356001600160a01b038116811461048357600080fd5b6000602082840312156104df57600080fd5b815167ffffffffffffffff808211156104f757600080fd5b818401915084601f83011261050b57600080fd5b81518181111561051d5761051d610616565b604051601f8201601f19908116603f0116810190838211818310171561054557610545610616565b8160405282815287602084870101111561055e57600080fd5b61056f8360208301602088016105e6565b979650505050505050565b600080600080600060a0868803121561059257600080fd5b61059b8661048a565b94506020860151935060408601519250606086015191506105be6080870161048a565b90509295509295909350565b600082516105dc8184602087016105e6565b9190910192915050565b60005b838110156106015781810151838201526020016105e9565b83811115610610576000848401525b50505050565b634e487b7160e01b600052604160045260246000fdfea2646970667358221220898af93defe3e4e3fc5f315250383ce2862c885c3e0840619b9d9f899e0349fd64736f6c63430008070033",
  "devdoc": {
    "kind": "dev",
    "methods": {
      "price(address)": {
        "params": {
          "asset": "address of the asset"
        },
        "returns": {
          "_0": "uint256 USD price of 1 of the asset, in 8 decimal fixed"
        }
      }
    },
    "version": 1
  },
  "userdoc": {
    "kind": "user",
    "methods": {
      "price(address)": {
        "notice": "Returns the total price in 8 digit USD for a given asset."
      }
    },
    "version": 1
  },
  "storageLayout": {
    "storage": [],
    "types": null
  }
}