{
  "address": "0xf4c6314Ca38787A45AC300B4018C4a37C286a86B",
  "abi": [
    {
      "anonymous": false,
      "inputs": [
        {
          "indexed": true,
          "internalType": "address",
          "name": "_asset",
          "type": "address"
        },
        {
          "indexed": false,
          "internalType": "address",
          "name": "_pToken",
          "type": "address"
        },
        {
          "indexed": false,
          "internalType": "uint256",
          "name": "_amount",
          "type": "uint256"
        }
      ],
      "name": "Deposit",
      "type": "event"
    },
    {
      "anonymous": false,
      "inputs": [
        {
          "indexed": true,
          "internalType": "address",
          "name": "previousGovernor",
          "type": "address"
        },
        {
          "indexed": true,
          "internalType": "address",
          "name": "newGovernor",
          "type": "address"
        }
      ],
      "name": "GovernorshipTransferred",
      "type": "event"
    },
    {
      "anonymous": false,
      "inputs": [
        {
          "indexed": true,
          "internalType": "address",
          "name": "_asset",
          "type": "address"
        },
        {
          "indexed": false,
          "internalType": "address",
          "name": "_pToken",
          "type": "address"
        }
      ],
      "name": "PTokenAdded",
      "type": "event"
    },
    {
      "anonymous": false,
      "inputs": [
        {
          "indexed": true,
          "internalType": "address",
          "name": "_asset",
          "type": "address"
        },
        {
          "indexed": false,
          "internalType": "address",
          "name": "_pToken",
          "type": "address"
        }
      ],
      "name": "PTokenRemoved",
      "type": "event"
    },
    {
      "anonymous": false,
      "inputs": [
        {
          "indexed": true,
          "internalType": "address",
          "name": "previousGovernor",
          "type": "address"
        },
        {
          "indexed": true,
          "internalType": "address",
          "name": "newGovernor",
          "type": "address"
        }
      ],
      "name": "PendingGovernorshipTransfer",
      "type": "event"
    },
    {
      "anonymous": false,
      "inputs": [
        {
          "indexed": false,
          "internalType": "uint256",
          "name": "_oldThreshold",
          "type": "uint256"
        },
        {
          "indexed": false,
          "internalType": "uint256",
          "name": "_newThreshold",
          "type": "uint256"
        }
      ],
      "name": "RewardLiquidationThresholdUpdated",
      "type": "event"
    },
    {
      "anonymous": false,
      "inputs": [
        {
          "indexed": false,
          "internalType": "address",
          "name": "_oldAddress",
          "type": "address"
        },
        {
          "indexed": false,
          "internalType": "address",
          "name": "_newAddress",
          "type": "address"
        }
      ],
      "name": "RewardTokenAddressUpdated",
      "type": "event"
    },
    {
      "anonymous": false,
      "inputs": [
        {
          "indexed": false,
          "internalType": "address[]",
          "name": "_oldAddresses",
          "type": "address[]"
        },
        {
          "indexed": false,
          "internalType": "address[]",
          "name": "_newAddresses",
          "type": "address[]"
        }
      ],
      "name": "RewardTokenAddressesUpdated",
      "type": "event"
    },
    {
      "anonymous": false,
      "inputs": [
        {
          "indexed": false,
          "internalType": "address",
          "name": "recipient",
          "type": "address"
        },
        {
          "indexed": false,
          "internalType": "address",
          "name": "rewardToken",
          "type": "address"
        },
        {
          "indexed": false,
          "internalType": "uint256",
          "name": "amount",
          "type": "uint256"
        }
      ],
      "name": "RewardTokenCollected",
      "type": "event"
    },
    {
      "anonymous": false,
      "inputs": [
        {
          "indexed": true,
          "internalType": "address",
          "name": "_asset",
          "type": "address"
        },
        {
          "indexed": false,
          "internalType": "address",
          "name": "_pToken",
          "type": "address"
        },
        {
          "indexed": false,
          "internalType": "uint256",
          "name": "_amount",
          "type": "uint256"
        }
      ],
      "name": "Withdrawal",
      "type": "event"
    },
    {
      "inputs": [],
      "name": "_deprecated_rewardTokenAddress",
      "outputs": [
        {
          "internalType": "address",
          "name": "",
          "type": "address"
        }
      ],
      "stateMutability": "view",
      "type": "function"
    },
    {
      "inputs": [
        {
          "internalType": "address",
          "name": "",
          "type": "address"
        }
      ],
      "name": "assetToPToken",
      "outputs": [
        {
          "internalType": "address",
          "name": "",
          "type": "address"
        }
      ],
      "stateMutability": "view",
      "type": "function"
    },
    {
      "inputs": [
        {
          "internalType": "address",
          "name": "_asset",
          "type": "address"
        }
      ],
      "name": "checkBalance",
      "outputs": [
        {
          "internalType": "uint256",
          "name": "balance",
          "type": "uint256"
        }
      ],
      "stateMutability": "view",
      "type": "function"
    },
    {
      "inputs": [],
      "name": "claimGovernance",
      "outputs": [],
      "stateMutability": "nonpayable",
      "type": "function"
    },
    {
      "inputs": [],
      "name": "collectRewardTokens",
      "outputs": [],
      "stateMutability": "nonpayable",
      "type": "function"
    },
    {
      "inputs": [
        {
          "internalType": "address",
          "name": "_asset",
          "type": "address"
        },
        {
          "internalType": "uint256",
          "name": "_amount",
          "type": "uint256"
        }
      ],
      "name": "deposit",
      "outputs": [],
      "stateMutability": "nonpayable",
      "type": "function"
    },
    {
      "inputs": [],
      "name": "depositAll",
      "outputs": [],
      "stateMutability": "nonpayable",
      "type": "function"
    },
    {
      "inputs": [],
      "name": "getRewardTokenAddresses",
      "outputs": [
        {
          "internalType": "address[]",
          "name": "",
          "type": "address[]"
        }
      ],
      "stateMutability": "view",
      "type": "function"
    },
    {
      "inputs": [],
      "name": "governor",
      "outputs": [
        {
          "internalType": "address",
          "name": "",
          "type": "address"
        }
      ],
      "stateMutability": "view",
      "type": "function"
    },
    {
      "inputs": [],
      "name": "incentivesController",
      "outputs": [
        {
          "internalType": "contract IAaveIncentivesController",
          "name": "",
          "type": "address"
        }
      ],
      "stateMutability": "view",
      "type": "function"
    },
    {
      "inputs": [
        {
          "internalType": "address",
          "name": "_platformAddress",
          "type": "address"
        },
        {
          "internalType": "address",
          "name": "_vaultAddress",
          "type": "address"
        },
        {
          "internalType": "address[]",
          "name": "_rewardTokenAddresses",
          "type": "address[]"
        },
        {
          "internalType": "address[]",
          "name": "_assets",
          "type": "address[]"
        },
        {
          "internalType": "address[]",
          "name": "_pTokens",
          "type": "address[]"
        },
        {
          "internalType": "address",
          "name": "_incentivesAddress",
          "type": "address"
        }
      ],
      "name": "initialize",
      "outputs": [],
      "stateMutability": "nonpayable",
      "type": "function"
    },
    {
      "inputs": [
        {
          "internalType": "address",
          "name": "_platformAddress",
          "type": "address"
        },
        {
          "internalType": "address",
          "name": "_vaultAddress",
          "type": "address"
        },
        {
          "internalType": "address[]",
          "name": "_rewardTokenAddresses",
          "type": "address[]"
        },
        {
          "internalType": "address[]",
          "name": "_assets",
          "type": "address[]"
        },
        {
          "internalType": "address[]",
          "name": "_pTokens",
          "type": "address[]"
        }
      ],
      "name": "initialize",
      "outputs": [],
      "stateMutability": "nonpayable",
      "type": "function"
    },
    {
      "inputs": [],
      "name": "isGovernor",
      "outputs": [
        {
          "internalType": "bool",
          "name": "",
          "type": "bool"
        }
      ],
      "stateMutability": "view",
      "type": "function"
    },
    {
      "inputs": [],
      "name": "platformAddress",
      "outputs": [
        {
          "internalType": "address",
          "name": "",
          "type": "address"
        }
      ],
      "stateMutability": "view",
      "type": "function"
    },
    {
      "inputs": [
        {
          "internalType": "uint256",
          "name": "_assetIndex",
          "type": "uint256"
        }
      ],
      "name": "removePToken",
      "outputs": [],
      "stateMutability": "nonpayable",
      "type": "function"
    },
    {
      "inputs": [],
      "name": "rewardLiquidationThreshold",
      "outputs": [
        {
          "internalType": "uint256",
          "name": "",
          "type": "uint256"
        }
      ],
      "stateMutability": "view",
      "type": "function"
    },
    {
      "inputs": [
        {
          "internalType": "uint256",
          "name": "",
          "type": "uint256"
        }
      ],
      "name": "rewardTokenAddresses",
      "outputs": [
        {
          "internalType": "address",
          "name": "",
          "type": "address"
        }
      ],
      "stateMutability": "view",
      "type": "function"
    },
    {
      "inputs": [],
      "name": "safeApproveAllTokens",
      "outputs": [],
      "stateMutability": "nonpayable",
      "type": "function"
    },
    {
      "inputs": [
        {
          "internalType": "address",
          "name": "_asset",
          "type": "address"
        },
        {
          "internalType": "address",
          "name": "_pToken",
          "type": "address"
        }
      ],
      "name": "setPTokenAddress",
      "outputs": [],
      "stateMutability": "nonpayable",
      "type": "function"
    },
    {
      "inputs": [
        {
          "internalType": "uint256",
          "name": "_threshold",
          "type": "uint256"
        }
      ],
      "name": "setRewardLiquidationThreshold",
      "outputs": [],
      "stateMutability": "nonpayable",
      "type": "function"
    },
    {
      "inputs": [
        {
          "internalType": "address[]",
          "name": "_rewardTokenAddresses",
          "type": "address[]"
        }
      ],
      "name": "setRewardTokenAddresses",
      "outputs": [],
      "stateMutability": "nonpayable",
      "type": "function"
    },
    {
      "inputs": [
        {
          "internalType": "address",
          "name": "_asset",
          "type": "address"
        }
      ],
      "name": "supportsAsset",
      "outputs": [
        {
          "internalType": "bool",
          "name": "",
          "type": "bool"
        }
      ],
      "stateMutability": "view",
      "type": "function"
    },
    {
      "inputs": [
        {
          "internalType": "address",
          "name": "_newGovernor",
          "type": "address"
        }
      ],
      "name": "transferGovernance",
      "outputs": [],
      "stateMutability": "nonpayable",
      "type": "function"
    },
    {
      "inputs": [
        {
          "internalType": "address",
          "name": "_asset",
          "type": "address"
        },
        {
          "internalType": "uint256",
          "name": "_amount",
          "type": "uint256"
        }
      ],
      "name": "transferToken",
      "outputs": [],
      "stateMutability": "nonpayable",
      "type": "function"
    },
    {
      "inputs": [],
      "name": "vaultAddress",
      "outputs": [
        {
          "internalType": "address",
          "name": "",
          "type": "address"
        }
      ],
      "stateMutability": "view",
      "type": "function"
    },
    {
      "inputs": [
        {
          "internalType": "address",
          "name": "_recipient",
          "type": "address"
        },
        {
          "internalType": "address",
          "name": "_asset",
          "type": "address"
        },
        {
          "internalType": "uint256",
          "name": "_amount",
          "type": "uint256"
        }
      ],
      "name": "withdraw",
      "outputs": [],
      "stateMutability": "nonpayable",
      "type": "function"
    },
    {
      "inputs": [],
      "name": "withdrawAll",
      "outputs": [],
      "stateMutability": "nonpayable",
      "type": "function"
    }
  ],
  "transactionHash": "0x3603a221386cdb879da835cb2b1f0302306c75cfb944df924dc4da14a5bf4bc4",
  "args": [],
  "numDeployments": 2,
  "solcInputHash": "ecea130246819fa0fc6e9ca85ae9023a",
  "bytecode": "0x608060405234801561001057600080fd5b506100273360008051602061294c83398151915255565b60008051602061294c833981519152546040516001600160a01b03909116906000907fc7c0c772add429241571afb3805861fb3cfa2af374534088b76cdb4325a87e9a908290a36128cf8061007d6000396000f3fe608060405234801561001057600080fd5b50600436106101a95760003560e01c80639136616a116100f9578063c7af335211610097578063d9caed1211610071578063d9caed1214610385578063dbe55e5614610398578063de5f6268146103ab578063f6ca71b0146103b357600080fd5b8063c7af335214610357578063cd3b02121461035f578063d38bfff41461037257600080fd5b806396d538bb116100d357806396d538bb146102eb578063aa388af6146102fe578063ad1728cb1461033c578063af1df2551461034457600080fd5b80639136616a146102b257806395bf49cc146102c55780639688d2fc146102d857600080fd5b806347e7ef24116101665780635d36b190116101405780635d36b1901461027c5780635f515226146102845780637b2d9b2c14610297578063853828b6146102aa57600080fd5b806347e7ef241461024a5780635653b4141461025d5780635a063f631461027457600080fd5b80630c340a24146101ae5780630ed57b3a146101d35780630fc3b4c4146101e85780631072cbea146102115780632e65520114610224578063430bf08a14610237575b600080fd5b6101b66103c8565b6040516001600160a01b0390911681526020015b60405180910390f35b6101e66101e136600461223e565b6103e5565b005b6101b66101f6366004612204565b6035602052600090815260409020546001600160a01b031681565b6101e661021f366004612449565b610420565b6037546101b6906001600160a01b031681565b6034546101b6906001600160a01b031681565b6101e6610258366004612449565b610460565b61026660385481565b6040519081526020016101ca565b6101e66104d3565b6101e66107f7565b610266610292366004612204565b61089d565b6101b66102a53660046124d9565b61092a565b6101e6610954565b6101e66102c03660046124d9565b610c7d565b6101e66102d3366004612336565b610e48565b6101e66102e6366004612277565b610f70565b6101e66102f9366004612475565b611079565b61032c61030c366004612204565b6001600160a01b0390811660009081526035602052604090205416151590565b60405190151581526020016101ca565b6101e661119f565b609d546101b6906001600160a01b031681565b61032c61127d565b6101e661036d3660046124d9565b6112ae565b6101e6610380366004612204565b611313565b6101e6610393366004612408565b6113b7565b6033546101b6906001600160a01b031681565b6101e6611609565b6103bb61175b565b6040516101ca919061256b565b60006103e060008051602061287a8339815191525490565b905090565b6103ed61127d565b6104125760405162461bcd60e51b8152600401610409906126dd565b60405180910390fd5b61041c82826117bd565b5050565b61042861127d565b6104445760405162461bcd60e51b8152600401610409906126dd565b61041c61044f6103c8565b6001600160a01b0384169083611922565b6034546001600160a01b0316331461048a5760405162461bcd60e51b8152600401610409906126a6565b60008051602061285a833981519152805460028114156104bc5760405162461bcd60e51b815260040161040990612762565b600282556104ca8484611985565b50600190555050565b6034546001600160a01b031633146104fd5760405162461bcd60e51b8152600401610409906126a6565b60008051602061285a8339815191528054600281141561052f5760405162461bcd60e51b815260040161040990612762565b600282556039546001146105855760405162461bcd60e51b815260206004820152601c60248201527f4f6e6c7920737570706f7274732073696e676c65207265776172642e000000006044820152606401610409565b6000603960008154811061059b5761059b612818565b60009182526020822001546036546001600160a01b03909116925067ffffffffffffffff8111156105ce576105ce61282e565b6040519080825280602002602001820160405280156105f7578160200160208202803683370190505b50905060005b603654811015610673576106376036828154811061061d5761061d612818565b6000918252602090912001546001600160a01b0316611aa0565b82828151811061064957610649612818565b6001600160a01b03909216602092830291909101909101528061066b816127d1565b9150506105fd565b50609d546040516345accf9360e11b81526000916001600160a01b031690638b599f26906106a7908590309060040161257e565b60206040518083038186803b1580156106bf57600080fd5b505afa1580156106d3573d6000803e3d6000fd5b505050506040513d601f19601f820116820180604052508101906106f791906124f2565b905080156107ec57609d54604051633111e7b360e01b81526000916001600160a01b031690633111e7b390610734908690869030906004016125a8565b602060405180830381600087803b15801561074e57600080fd5b505af1158015610762573d6000803e3d6000fd5b505050506040513d601f19601f8201168201806040525081019061078691906124f2565b90508181146107d05760405162461bcd60e51b8152602060048201526016602482015275414156452072657761726420646966666572656e636560501b6044820152606401610409565b6034546107ea906001600160a01b03868116911683611922565b505b505050600182555050565b7f1973cae3d8695cb4c31dce9679edb790944900898ecc70570ba365e7de143b0a546001600160a01b0316336001600160a01b0316146108925760405162461bcd60e51b815260206004820152603060248201527f4f6e6c79207468652070656e64696e6720476f7665726e6f722063616e20636f60448201526f6d706c6574652074686520636c61696d60801b6064820152608401610409565b61089b33611b08565b565b6000806108a983611aa0565b6040516370a0823160e01b81523060048201529091506001600160a01b038216906370a082319060240160206040518083038186803b1580156108eb57600080fd5b505afa1580156108ff573d6000803e3d6000fd5b505050506040513d601f19601f8201168201806040525081019061092391906124f2565b9392505050565b6039818154811061093a57600080fd5b6000918252602090912001546001600160a01b0316905081565b6034546001600160a01b031633148061098557506109706103c8565b6001600160a01b0316336001600160a01b0316145b6109dd5760405162461bcd60e51b815260206004820152602360248201527f43616c6c6572206973206e6f7420746865205661756c74206f7220476f7665726044820152623737b960e91b6064820152608401610409565b60008051602061285a83398151915280546002811415610a0f5760405162461bcd60e51b815260040161040990612762565b6002825560005b603654811015610c7557600060368281548110610a3557610a35612818565b6000918252602082200154603680546001600160a01b039092169350610a65918590811061061d5761061d612818565b6040516370a0823160e01b81523060048201529091506000906001600160a01b038316906370a082319060240160206040518083038186803b158015610aaa57600080fd5b505afa158015610abe573d6000803e3d6000fd5b505050506040513d601f19601f82011682018060405250810190610ae291906124f2565b90508015610c5f576000610af4611bcc565b604051631a4ca37b60e21b81526001600160a01b0386811660048301526024820185905230604483015291909116906369328dec90606401602060405180830381600087803b158015610b4657600080fd5b505af1158015610b5a573d6000803e3d6000fd5b505050506040513d601f19601f82011682018060405250810190610b7e91906124f2565b9050818114610bc95760405162461bcd60e51b8152602060048201526017602482015276088d2c840dcdee840eed2e8d0c8e4c2ee40cadcdeeaced604b1b6044820152606401610409565b6034546040516370a0823160e01b8152306004820152610c5d916001600160a01b0390811691908716906370a082319060240160206040518083038186803b158015610c1457600080fd5b505afa158015610c28573d6000803e3d6000fd5b505050506040513d601f19601f82011682018060405250810190610c4c91906124f2565b6001600160a01b0387169190611922565b505b5050508080610c6d906127d1565b915050610a16565b505060019055565b610c8561127d565b610ca15760405162461bcd60e51b8152600401610409906126dd565b6036548110610ce25760405162461bcd60e51b815260206004820152600d60248201526c092dcecc2d8d2c840d2dcc8caf609b1b6044820152606401610409565b600060368281548110610cf757610cf7612818565b60009182526020808320909101546001600160a01b03908116808452603590925260409092205460365491935090911690610d349060019061278a565b831015610db65760368054610d4b9060019061278a565b81548110610d5b57610d5b612818565b600091825260209091200154603680546001600160a01b039092169185908110610d8757610d87612818565b9060005260206000200160006101000a8154816001600160a01b0302191690836001600160a01b031602179055505b6036805480610dc757610dc7612802565b60008281526020808220600019908401810180546001600160a01b031990811690915593019093556001600160a01b038581168083526035855260409283902080549094169093559051908416815290917f16b7600acff27e39a8a96056b3d533045298de927507f5c1d97e4accde60488c910160405180910390a2505050565b610e5061127d565b610e6c5760405162461bcd60e51b8152600401610409906126dd565b600054610100900460ff1680610e85575060005460ff16155b610ea15760405162461bcd60e51b815260040161040990612714565b600054610100900460ff16158015610ec3576000805461ffff19166101011790555b609d80546001600160a01b0319166001600160a01b0384161790556040805160208781028083018201909352878252610f52928d928d928d928d92918d918d9182919085019084908082843760009201919091525050604080516020808e0282810182019093528d82529093508d92508c918291850190849080828437600092019190915250611cb292505050565b8015610f64576000805461ff00191690555b50505050505050505050565b610f7861127d565b610f945760405162461bcd60e51b8152600401610409906126dd565b600054610100900460ff1680610fad575060005460ff16155b610fc95760405162461bcd60e51b815260040161040990612714565b600054610100900460ff16158015610feb576000805461ffff19166101011790555b61105c8989898989898080602002602001604051908101604052809392919081815260200183836020028082843760009201919091525050604080516020808d0282810182019093528c82529093508c92508b918291850190849080828437600092019190915250611cb292505050565b801561106e576000805461ff00191690555b505050505050505050565b61108161127d565b61109d5760405162461bcd60e51b8152600401610409906126dd565b60005b818110156111515760008383838181106110bc576110bc612818565b90506020020160208101906110d19190612204565b6001600160a01b0316141561113f5760405162461bcd60e51b815260206004820152602e60248201527f43616e206e6f742073657420616e20656d70747920616464726573732061732060448201526d30903932bbb0b932103a37b5b2b760911b6064820152608401610409565b80611149816127d1565b9150506110a0565b507f04c0b9649497d316554306e53678d5f5f5dbc3a06f97dec13ff4cfe98b986bbc60398383604051611186939291906125db565b60405180910390a161119a60398383612140565b505050565b6111a761127d565b6111c35760405162461bcd60e51b8152600401610409906126dd565b60008051602061285a833981519152805460028114156111f55760405162461bcd60e51b815260040161040990612762565b600282556000611203611bcc565b905060005b6036548110156112735760006036828154811061122757611227612818565b60009182526020822001546001600160a01b0316915061124a9082908590611d9b565b6112606001600160a01b03821684600019611d9b565b508061126b816127d1565b915050611208565b5050600182555050565b600061129560008051602061287a8339815191525490565b6001600160a01b0316336001600160a01b031614905090565b6112b661127d565b6112d25760405162461bcd60e51b8152600401610409906126dd565b60385460408051918252602082018390527f01538952e8f491e3569a11bf3935ca2fa917ea85ec938dac52e696fbb76d8cc6910160405180910390a1603855565b61131b61127d565b6113375760405162461bcd60e51b8152600401610409906126dd565b61135f817f1973cae3d8695cb4c31dce9679edb790944900898ecc70570ba365e7de143b0a55565b806001600160a01b031661137f60008051602061287a8339815191525490565b6001600160a01b03167fa39cc5eb22d0f34d8beaefee8a3f17cc229c1a1d1ef87a5ad47313487b1c4f0d60405160405180910390a350565b6034546001600160a01b031633146113e15760405162461bcd60e51b8152600401610409906126a6565b60008051602061285a833981519152805460028114156114135760405162461bcd60e51b815260040161040990612762565b60028255600083116114675760405162461bcd60e51b815260206004820152601760248201527f4d75737420776974686472617720736f6d657468696e670000000000000000006044820152606401610409565b6001600160a01b0385166114b65760405162461bcd60e51b8152602060048201526016602482015275135d5cdd081cdc1958da599e481c9958da5c1a595b9d60521b6044820152606401610409565b836001600160a01b03167f2717ead6b9200dd235aad468c9809ea400fe33ac69b5bfaa6d3e90fc922b63986114ea86611aa0565b604080516001600160a01b039092168252602082018790520160405180910390a26000611515611bcc565b604051631a4ca37b60e21b81526001600160a01b0387811660048301526024820187905230604483015291909116906369328dec90606401602060405180830381600087803b15801561156757600080fd5b505af115801561157b573d6000803e3d6000fd5b505050506040513d601f19601f8201168201806040525081019061159f91906124f2565b90508381146115ea5760405162461bcd60e51b8152602060048201526017602482015276088d2c840dcdee840eed2e8d0c8e4c2ee40cadcdeeaced604b1b6044820152606401610409565b6115fe6001600160a01b0386168786611922565b505060019055505050565b6034546001600160a01b031633146116335760405162461bcd60e51b8152600401610409906126a6565b60008051602061285a833981519152805460028114156116655760405162461bcd60e51b815260040161040990612762565b6002825560005b603654811015610c755760006036828154811061168b5761168b612818565b6000918252602090912001546040516370a0823160e01b81523060048201526001600160a01b03909116906370a082319060240160206040518083038186803b1580156116d757600080fd5b505afa1580156116eb573d6000803e3d6000fd5b505050506040513d601f19601f8201168201806040525081019061170f91906124f2565b90508015611748576117486036838154811061172d5761172d612818565b6000918252602090912001546001600160a01b031682611985565b5080611753816127d1565b91505061166c565b606060398054806020026020016040519081016040528092919081815260200182805480156117b357602002820191906000526020600020905b81546001600160a01b03168152600190910190602001808311611795575b5050505050905090565b6001600160a01b03828116600090815260356020526040902054161561181a5760405162461bcd60e51b81526020600482015260126024820152711c151bdad95b88185b1c9958591e481cd95d60721b6044820152606401610409565b6001600160a01b0382161580159061183a57506001600160a01b03811615155b61187a5760405162461bcd60e51b8152602060048201526011602482015270496e76616c69642061646472657373657360781b6044820152606401610409565b6001600160a01b03828116600081815260356020908152604080832080549587166001600160a01b031996871681179091556036805460018101825594527f4a11f94e20a93c79f6ec743a1954ec4fc2c08429ae2122118bf234b2185c81b890930180549095168417909455925190815290917fef6485b84315f9b1483beffa32aae9a0596890395e3d7521f1c5fbb51790e765910160405180910390a261041c8282611ebf565b6040516001600160a01b03831660248201526044810182905261119a90849063a9059cbb60e01b906064015b60408051601f198184030181529190526020810180516001600160e01b03166001600160e01b031990931692909217909152611ef6565b600081116119ce5760405162461bcd60e51b81526020600482015260166024820152754d757374206465706f73697420736f6d657468696e6760501b6044820152606401610409565b816001600160a01b03167f5548c837ab068cf56a2c2479df0882a4922fd203edb7517321831d95078c5f62611a0284611aa0565b604080516001600160a01b039092168252602082018590520160405180910390a2611a2b611bcc565b60405163e8eda9df60e01b81526001600160a01b0384811660048301526024820184905230604483015260006064830152919091169063e8eda9df90608401600060405180830381600087803b158015611a8457600080fd5b505af1158015611a98573d6000803e3d6000fd5b505050505050565b6001600160a01b0380821660009081526035602052604081205490911680611b025760405162461bcd60e51b815260206004820152601560248201527418551bdad95b88191bd95cc81b9bdd08195e1a5cdd605a1b6044820152606401610409565b92915050565b6001600160a01b038116611b5e5760405162461bcd60e51b815260206004820152601a60248201527f4e657720476f7665726e6f7220697320616464726573732830290000000000006044820152606401610409565b806001600160a01b0316611b7e60008051602061287a8339815191525490565b6001600160a01b03167fc7c0c772add429241571afb3805861fb3cfa2af374534088b76cdb4325a87e9a60405160405180910390a3611bc98160008051602061287a83398151915255565b50565b600080603360009054906101000a90046001600160a01b03166001600160a01b0316630261bf8b6040518163ffffffff1660e01b815260040160206040518083038186803b158015611c1d57600080fd5b505afa158015611c31573d6000803e3d6000fd5b505050506040513d601f19601f82011682018060405250810190611c559190612221565b90506001600160a01b038116611cad5760405162461bcd60e51b815260206004820152601b60248201527f4c656e64696e6720706f6f6c20646f6573206e6f7420657869737400000000006044820152606401610409565b919050565b603380546001600160a01b038089166001600160a01b0319928316179092556034805492881692909116919091179055611cee60398585612140565b50815181518114611d385760405162461bcd60e51b8152602060048201526014602482015273496e76616c696420696e7075742061727261797360601b6044820152606401610409565b60005b81811015611d9157611d7f848281518110611d5857611d58612818565b6020026020010151848381518110611d7257611d72612818565b60200260200101516117bd565b80611d89816127d1565b915050611d3b565b5050505050505050565b801580611e245750604051636eb1769f60e11b81523060048201526001600160a01b03838116602483015284169063dd62ed3e9060440160206040518083038186803b158015611dea57600080fd5b505afa158015611dfe573d6000803e3d6000fd5b505050506040513d601f19601f82011682018060405250810190611e2291906124f2565b155b611e8f5760405162461bcd60e51b815260206004820152603660248201527f5361666545524332303a20617070726f76652066726f6d206e6f6e2d7a65726f60448201527520746f206e6f6e2d7a65726f20616c6c6f77616e636560501b6064820152608401610409565b6040516001600160a01b03831660248201526044810182905261119a90849063095ea7b360e01b9060640161194e565b6000611ec9611bcc565b9050611ee06001600160a01b038416826000611d9b565b61119a6001600160a01b03841682600019611d9b565b6000611f4b826040518060400160405280602081526020017f5361666545524332303a206c6f772d6c6576656c2063616c6c206661696c6564815250856001600160a01b0316611fc89092919063ffffffff16565b80519091501561119a5780806020019051810190611f6991906124b7565b61119a5760405162461bcd60e51b815260206004820152602a60248201527f5361666545524332303a204552433230206f7065726174696f6e20646964206e6044820152691bdd081cdd58d8d9595960b21b6064820152608401610409565b6060611fd78484600085611fdf565b949350505050565b6060824710156120405760405162461bcd60e51b815260206004820152602660248201527f416464726573733a20696e73756666696369656e742062616c616e636520666f6044820152651c8818d85b1b60d21b6064820152608401610409565b843b61208e5760405162461bcd60e51b815260206004820152601d60248201527f416464726573733a2063616c6c20746f206e6f6e2d636f6e74726163740000006044820152606401610409565b600080866001600160a01b031685876040516120aa919061254f565b60006040518083038185875af1925050503d80600081146120e7576040519150601f19603f3d011682016040523d82523d6000602084013e6120ec565b606091505b50915091506120fc828286612107565b979650505050505050565b60608315612116575081610923565b8251156121265782518084602001fd5b8160405162461bcd60e51b81526004016104099190612673565b828054828255906000526020600020908101928215612193579160200282015b828111156121935781546001600160a01b0319166001600160a01b03843516178255602090920191600190910190612160565b5061219f9291506121a3565b5090565b5b8082111561219f57600081556001016121a4565b60008083601f8401126121ca57600080fd5b50813567ffffffffffffffff8111156121e257600080fd5b6020830191508360208260051b85010111156121fd57600080fd5b9250929050565b60006020828403121561221657600080fd5b813561092381612844565b60006020828403121561223357600080fd5b815161092381612844565b6000806040838503121561225157600080fd5b823561225c81612844565b9150602083013561226c81612844565b809150509250929050565b60008060008060008060008060a0898b03121561229357600080fd5b883561229e81612844565b975060208901356122ae81612844565b9650604089013567ffffffffffffffff808211156122cb57600080fd5b6122d78c838d016121b8565b909850965060608b01359150808211156122f057600080fd5b6122fc8c838d016121b8565b909650945060808b013591508082111561231557600080fd5b506123228b828c016121b8565b999c989b5096995094979396929594505050565b600080600080600080600080600060c08a8c03121561235457600080fd5b893561235f81612844565b985060208a013561236f81612844565b975060408a013567ffffffffffffffff8082111561238c57600080fd5b6123988d838e016121b8565b909950975060608c01359150808211156123b157600080fd5b6123bd8d838e016121b8565b909750955060808c01359150808211156123d657600080fd5b506123e38c828d016121b8565b90945092505060a08a01356123f781612844565b809150509295985092959850929598565b60008060006060848603121561241d57600080fd5b833561242881612844565b9250602084013561243881612844565b929592945050506040919091013590565b6000806040838503121561245c57600080fd5b823561246781612844565b946020939093013593505050565b6000806020838503121561248857600080fd5b823567ffffffffffffffff81111561249f57600080fd5b6124ab858286016121b8565b90969095509350505050565b6000602082840312156124c957600080fd5b8151801515811461092357600080fd5b6000602082840312156124eb57600080fd5b5035919050565b60006020828403121561250457600080fd5b5051919050565b600081518084526020808501945080840160005b838110156125445781516001600160a01b03168752958201959082019060010161251f565b509495945050505050565b600082516125618184602087016127a1565b9190910192915050565b602081526000610923602083018461250b565b604081526000612591604083018561250b565b905060018060a01b03831660208301529392505050565b6060815260006125bb606083018661250b565b6020830194909452506001600160a01b0391909116604090910152919050565b6000604082016040835280865480835260608501915087600052602092508260002060005b828110156126255781546001600160a01b031684529284019260019182019101612600565b505050838103828501528481528590820160005b8681101561266757823561264c81612844565b6001600160a01b031682529183019190830190600101612639565b50979650505050505050565b60208152600082518060208401526126928160408501602087016127a1565b601f01601f19169190910160400192915050565b60208082526017908201527f43616c6c6572206973206e6f7420746865205661756c74000000000000000000604082015260600190565b6020808252601a908201527f43616c6c6572206973206e6f742074686520476f7665726e6f72000000000000604082015260600190565b6020808252602e908201527f496e697469616c697a61626c653a20636f6e747261637420697320616c72656160408201526d191e481a5b9a5d1a585b1a5e995960921b606082015260800190565b6020808252600e908201526d1499595b9d1c985b9d0818d85b1b60921b604082015260600190565b60008282101561279c5761279c6127ec565b500390565b60005b838110156127bc5781810151838201526020016127a4565b838111156127cb576000848401525b50505050565b60006000198214156127e5576127e56127ec565b5060010190565b634e487b7160e01b600052601160045260246000fd5b634e487b7160e01b600052603160045260246000fd5b634e487b7160e01b600052603260045260246000fd5b634e487b7160e01b600052604160045260246000fd5b6001600160a01b0381168114611bc957600080fdfe218adab1852f0bdeacb3305483cf296dbcf6abf496f646284463c8e6a43fa665fe7bb572d5723516ce4fe7a6a664f5adb38f5714efcd271411ed70a34d3ef2f7a2646970667358221220e20b3316a7aa5806258106a3cc384fdf811ec70462ca0e1df7b85f77c37110b664736f6c63430008070033fe7bb572d5723516ce4fe7a6a664f5adb38f5714efcd271411ed70a34d3ef2f7",
  "devdoc": {
    "kind": "dev",
    "methods": {
      "checkBalance(address)": {
        "details": "Get the total asset value held in the platform",
        "params": {
          "_asset": "Address of the asset"
        },
        "returns": {
          "balance": "   Total value of the asset in the platform"
        }
      },
      "claimGovernance()": {
        "details": "Claim Governance of the contract to a new account (`newGovernor`). Can only be called by the new Governor."
      },
      "collectRewardTokens()": {
        "details": "Collect AAVE, send to Vault."
      },
      "deposit(address,uint256)": {
        "details": "Deposit asset into Aave",
        "params": {
          "_amount": "Amount of asset to deposit",
          "_asset": "Address of asset to deposit"
        }
      },
      "depositAll()": {
        "details": "Deposit the entire balance of any supported asset into Aave"
      },
      "getRewardTokenAddresses()": {
        "details": "Get the reward token addresses.",
        "returns": {
          "_0": "address[] the reward token addresses."
        }
      },
      "governor()": {
        "details": "Returns the address of the current Governor."
      },
      "initialize(address,address,address[],address[],address[])": {
        "details": "Internal initialize function, to set up initial internal state",
        "params": {
          "_assets": "Addresses of initial supported assets",
          "_pTokens": "Platform Token corresponding addresses",
          "_platformAddress": "Generic platform address",
          "_rewardTokenAddresses": "Addresses of reward tokens for platform",
          "_vaultAddress": "Address of the Vault"
        }
      },
      "initialize(address,address,address[],address[],address[],address)": {
        "params": {
          "_assets": "Addresses of supported assets",
          "_incentivesAddress": "Address of the AAVE incentives controller",
          "_pTokens": "Platform Token corresponding addresses",
          "_platformAddress": "Address of the AAVE pool",
          "_rewardTokenAddresses": "Addresses of the reward token(s)",
          "_vaultAddress": "Address of the vault"
        }
      },
      "isGovernor()": {
        "details": "Returns true if the caller is the current Governor."
      },
      "removePToken(uint256)": {
        "details": "Remove a supported asset by passing its index.      This method can only be called by the system Governor",
        "params": {
          "_assetIndex": "Index of the asset to be removed"
        }
      },
      "safeApproveAllTokens()": {
        "details": "Approve the spending of all assets by their corresponding aToken,      if for some reason is it necessary."
      },
      "setPTokenAddress(address,address)": {
        "details": "Provide support for asset by passing its pToken address.      This method can only be called by the system Governor",
        "params": {
          "_asset": "Address for the asset",
          "_pToken": "Address for the corresponding platform token"
        }
      },
      "setRewardLiquidationThreshold(uint256)": {
        "details": "Set the reward token liquidation threshold.",
        "params": {
          "_threshold": "Threshold amount in decimals of reward token that will cause the Vault to claim and withdrawAll on allocate() calls."
        }
      },
      "setRewardTokenAddresses(address[])": {
        "details": "Set the reward token addresses.",
        "params": {
          "_rewardTokenAddresses": "Address array of the reward tokens"
        }
      },
      "supportsAsset(address)": {
        "details": "Retuns bool indicating whether asset is supported by strategy",
        "params": {
          "_asset": "Address of the asset"
        }
      },
      "transferGovernance(address)": {
        "details": "Transfers Governance of the contract to a new account (`newGovernor`). Can only be called by the current Governor. Must be claimed for this to complete",
        "params": {
          "_newGovernor": "Address of the new Governor"
        }
      },
      "transferToken(address,uint256)": {
        "details": "Transfer token to governor. Intended for recovering tokens stuck in      strategy contracts, i.e. mistaken sends.",
        "params": {
          "_amount": "Amount of the asset to transfer",
          "_asset": "Address for the asset"
        }
      },
      "withdraw(address,address,uint256)": {
        "details": "Withdraw asset from Aave",
        "params": {
          "_amount": "Amount of asset to withdraw",
          "_asset": "Address of asset to withdraw",
          "_recipient": "Address to receive withdrawn asset"
        }
      },
      "withdrawAll()": {
        "details": "Remove all assets from platform and send them to Vault contract."
      }
    },
    "version": 1
  },
  "userdoc": {
    "kind": "user",
    "methods": {
      "initialize(address,address,address[],address[],address[],address)": {
        "notice": "Initializer for setting up strategy internal state. This overrides the InitializableAbstractStrategy initializer as AAVE needs several extra addresses for the rewards program."
      }
    },
    "version": 1
  },
  "storageLayout": {
    "storage": [
      {
        "astId": 12147,
        "contract": "contracts/strategies/AaveStrategy.sol:AaveStrategy",
        "label": "initialized",
        "offset": 0,
        "slot": "0",
        "type": "t_bool"
      },
      {
        "astId": 12150,
        "contract": "contracts/strategies/AaveStrategy.sol:AaveStrategy",
        "label": "initializing",
        "offset": 1,
        "slot": "0",
        "type": "t_bool"
      },
      {
        "astId": 12190,
        "contract": "contracts/strategies/AaveStrategy.sol:AaveStrategy",
        "label": "______gap",
        "offset": 0,
        "slot": "1",
        "type": "t_array(t_uint256)50_storage"
      },
      {
        "astId": 12272,
        "contract": "contracts/strategies/AaveStrategy.sol:AaveStrategy",
        "label": "platformAddress",
        "offset": 0,
        "slot": "51",
        "type": "t_address"
      },
      {
        "astId": 12274,
        "contract": "contracts/strategies/AaveStrategy.sol:AaveStrategy",
        "label": "vaultAddress",
        "offset": 0,
        "slot": "52",
        "type": "t_address"
      },
      {
        "astId": 12278,
        "contract": "contracts/strategies/AaveStrategy.sol:AaveStrategy",
        "label": "assetToPToken",
        "offset": 0,
        "slot": "53",
        "type": "t_mapping(t_address,t_address)"
      },
      {
        "astId": 12281,
        "contract": "contracts/strategies/AaveStrategy.sol:AaveStrategy",
        "label": "assetsMapped",
        "offset": 0,
        "slot": "54",
        "type": "t_array(t_address)dyn_storage"
      },
      {
        "astId": 12283,
        "contract": "contracts/strategies/AaveStrategy.sol:AaveStrategy",
        "label": "_deprecated_rewardTokenAddress",
        "offset": 0,
        "slot": "55",
        "type": "t_address"
      },
      {
        "astId": 12285,
        "contract": "contracts/strategies/AaveStrategy.sol:AaveStrategy",
        "label": "rewardLiquidationThreshold",
        "offset": 0,
        "slot": "56",
        "type": "t_uint256"
      },
      {
        "astId": 12288,
        "contract": "contracts/strategies/AaveStrategy.sol:AaveStrategy",
        "label": "rewardTokenAddresses",
        "offset": 0,
        "slot": "57",
        "type": "t_array(t_address)dyn_storage"
      },
      {
        "astId": 12292,
        "contract": "contracts/strategies/AaveStrategy.sol:AaveStrategy",
        "label": "_reserved",
        "offset": 0,
        "slot": "58",
        "type": "t_array(t_int256)99_storage"
      },
      {
        "astId": 8557,
        "contract": "contracts/strategies/AaveStrategy.sol:AaveStrategy",
        "label": "incentivesController",
        "offset": 0,
        "slot": "157",
        "type": "t_contract(IAaveIncentivesController)10309"
      }
    ],
    "types": {
      "t_address": {
        "encoding": "inplace",
        "label": "address",
        "numberOfBytes": "20"
      },
      "t_array(t_address)dyn_storage": {
        "base": "t_address",
        "encoding": "dynamic_array",
        "label": "address[]",
        "numberOfBytes": "32"
      },
      "t_array(t_int256)99_storage": {
        "base": "t_int256",
        "encoding": "inplace",
        "label": "int256[99]",
        "numberOfBytes": "3168"
      },
      "t_array(t_uint256)50_storage": {
        "base": "t_uint256",
        "encoding": "inplace",
        "label": "uint256[50]",
        "numberOfBytes": "1600"
      },
      "t_bool": {
        "encoding": "inplace",
        "label": "bool",
        "numberOfBytes": "1"
      },
      "t_contract(IAaveIncentivesController)10309": {
        "encoding": "inplace",
        "label": "contract IAaveIncentivesController",
        "numberOfBytes": "20"
      },
      "t_int256": {
        "encoding": "inplace",
        "label": "int256",
        "numberOfBytes": "32"
      },
      "t_mapping(t_address,t_address)": {
        "encoding": "mapping",
        "key": "t_address",
        "label": "mapping(address => address)",
        "numberOfBytes": "32",
        "value": "t_address"
      },
      "t_uint256": {
        "encoding": "inplace",
        "label": "uint256",
        "numberOfBytes": "32"
      }
    }
  }
}