{
  "address": "0x49a3E3387ca1D3d47C752d3BF66F5bF21f1fC592",
  "abi": [
    {
      "anonymous": false,
      "inputs": [
        {
          "indexed": true,
          "internalType": "address",
          "name": "_asset",
          "type": "address"
        },
        {
          "indexed": false,
          "internalType": "address",
          "name": "_pToken",
          "type": "address"
        },
        {
          "indexed": false,
          "internalType": "uint256",
          "name": "_amount",
          "type": "uint256"
        }
      ],
      "name": "Deposit",
      "type": "event"
    },
    {
      "anonymous": false,
      "inputs": [
        {
          "indexed": true,
          "internalType": "address",
          "name": "previousGovernor",
          "type": "address"
        },
        {
          "indexed": true,
          "internalType": "address",
          "name": "newGovernor",
          "type": "address"
        }
      ],
      "name": "GovernorshipTransferred",
      "type": "event"
    },
    {
      "anonymous": false,
      "inputs": [
        {
          "indexed": true,
          "internalType": "address",
          "name": "_asset",
          "type": "address"
        },
        {
          "indexed": false,
          "internalType": "address",
          "name": "_pToken",
          "type": "address"
        }
      ],
      "name": "PTokenAdded",
      "type": "event"
    },
    {
      "anonymous": false,
      "inputs": [
        {
          "indexed": true,
          "internalType": "address",
          "name": "_asset",
          "type": "address"
        },
        {
          "indexed": false,
          "internalType": "address",
          "name": "_pToken",
          "type": "address"
        }
      ],
      "name": "PTokenRemoved",
      "type": "event"
    },
    {
      "anonymous": false,
      "inputs": [
        {
          "indexed": true,
          "internalType": "address",
          "name": "previousGovernor",
          "type": "address"
        },
        {
          "indexed": true,
          "internalType": "address",
          "name": "newGovernor",
          "type": "address"
        }
      ],
      "name": "PendingGovernorshipTransfer",
      "type": "event"
    },
    {
      "anonymous": false,
      "inputs": [
        {
          "indexed": false,
          "internalType": "uint256",
          "name": "_oldThreshold",
          "type": "uint256"
        },
        {
          "indexed": false,
          "internalType": "uint256",
          "name": "_newThreshold",
          "type": "uint256"
        }
      ],
      "name": "RewardLiquidationThresholdUpdated",
      "type": "event"
    },
    {
      "anonymous": false,
      "inputs": [
        {
          "indexed": false,
          "internalType": "address",
          "name": "_oldAddress",
          "type": "address"
        },
        {
          "indexed": false,
          "internalType": "address",
          "name": "_newAddress",
          "type": "address"
        }
      ],
      "name": "RewardTokenAddressUpdated",
      "type": "event"
    },
    {
      "anonymous": false,
      "inputs": [
        {
          "indexed": false,
          "internalType": "address[]",
          "name": "_oldAddresses",
          "type": "address[]"
        },
        {
          "indexed": false,
          "internalType": "address[]",
          "name": "_newAddresses",
          "type": "address[]"
        }
      ],
      "name": "RewardTokenAddressesUpdated",
      "type": "event"
    },
    {
      "anonymous": false,
      "inputs": [
        {
          "indexed": false,
          "internalType": "address",
          "name": "recipient",
          "type": "address"
        },
        {
          "indexed": false,
          "internalType": "address",
          "name": "rewardToken",
          "type": "address"
        },
        {
          "indexed": false,
          "internalType": "uint256",
          "name": "amount",
          "type": "uint256"
        }
      ],
      "name": "RewardTokenCollected",
      "type": "event"
    },
    {
      "anonymous": false,
      "inputs": [
        {
          "indexed": false,
          "internalType": "address",
          "name": "asset",
          "type": "address"
        },
        {
          "indexed": false,
          "internalType": "uint256",
          "name": "amount",
          "type": "uint256"
        }
      ],
      "name": "SkippedWithdrawal",
      "type": "event"
    },
    {
      "anonymous": false,
      "inputs": [
        {
          "indexed": true,
          "internalType": "address",
          "name": "_asset",
          "type": "address"
        },
        {
          "indexed": false,
          "internalType": "address",
          "name": "_pToken",
          "type": "address"
        },
        {
          "indexed": false,
          "internalType": "uint256",
          "name": "_amount",
          "type": "uint256"
        }
      ],
      "name": "Withdrawal",
      "type": "event"
    },
    {
      "inputs": [],
      "name": "_deprecated_rewardTokenAddress",
      "outputs": [
        {
          "internalType": "address",
          "name": "",
          "type": "address"
        }
      ],
      "stateMutability": "view",
      "type": "function"
    },
    {
      "inputs": [
        {
          "internalType": "address",
          "name": "",
          "type": "address"
        }
      ],
      "name": "assetToPToken",
      "outputs": [
        {
          "internalType": "address",
          "name": "",
          "type": "address"
        }
      ],
      "stateMutability": "view",
      "type": "function"
    },
    {
      "inputs": [
        {
          "internalType": "address",
          "name": "_asset",
          "type": "address"
        }
      ],
      "name": "checkBalance",
      "outputs": [
        {
          "internalType": "uint256",
          "name": "balance",
          "type": "uint256"
        }
      ],
      "stateMutability": "view",
      "type": "function"
    },
    {
      "inputs": [],
      "name": "claimGovernance",
      "outputs": [],
      "stateMutability": "nonpayable",
      "type": "function"
    },
    {
      "inputs": [],
      "name": "collectRewardTokens",
      "outputs": [],
      "stateMutability": "nonpayable",
      "type": "function"
    },
    {
      "inputs": [
        {
          "internalType": "address",
          "name": "_asset",
          "type": "address"
        },
        {
          "internalType": "uint256",
          "name": "_amount",
          "type": "uint256"
        }
      ],
      "name": "deposit",
      "outputs": [],
      "stateMutability": "nonpayable",
      "type": "function"
    },
    {
      "inputs": [],
      "name": "depositAll",
      "outputs": [],
      "stateMutability": "nonpayable",
      "type": "function"
    },
    {
      "inputs": [
        {
          "internalType": "address",
          "name": "_rewardTokenAddress",
          "type": "address"
        }
      ],
      "name": "getProofAndAmount",
      "outputs": [
        {
          "internalType": "bytes32[]",
          "name": "",
          "type": "bytes32[]"
        },
        {
          "internalType": "uint256",
          "name": "",
          "type": "uint256"
        }
      ],
      "stateMutability": "view",
      "type": "function"
    },
    {
      "inputs": [],
      "name": "getRewardTokenAddresses",
      "outputs": [
        {
          "internalType": "address[]",
          "name": "",
          "type": "address[]"
        }
      ],
      "stateMutability": "view",
      "type": "function"
    },
    {
      "inputs": [],
      "name": "governor",
      "outputs": [
        {
          "internalType": "address",
          "name": "",
          "type": "address"
        }
      ],
      "stateMutability": "view",
      "type": "function"
    },
    {
      "inputs": [
        {
          "internalType": "uint256",
          "name": "",
          "type": "uint256"
        }
      ],
      "name": "incentiveDistributorAddresses",
      "outputs": [
        {
          "internalType": "address",
          "name": "",
          "type": "address"
        }
      ],
      "stateMutability": "view",
      "type": "function"
    },
    {
      "inputs": [
        {
          "internalType": "address",
          "name": "_platformAddress",
          "type": "address"
        },
        {
          "internalType": "address",
          "name": "_vaultAddress",
          "type": "address"
        },
        {
          "internalType": "address[]",
          "name": "_rewardTokenAddresses",
          "type": "address[]"
        },
        {
          "internalType": "address[]",
          "name": "_assets",
          "type": "address[]"
        },
        {
          "internalType": "address[]",
          "name": "_pTokens",
          "type": "address[]"
        }
      ],
      "name": "initialize",
      "outputs": [],
      "stateMutability": "nonpayable",
      "type": "function"
    },
    {
      "inputs": [
        {
          "internalType": "address",
          "name": "_platformAddress",
          "type": "address"
        },
        {
          "internalType": "address",
          "name": "_vaultAddress",
          "type": "address"
        },
        {
          "internalType": "address[]",
          "name": "_rewardTokenAddresses",
          "type": "address[]"
        },
        {
          "internalType": "address[]",
          "name": "_assets",
          "type": "address[]"
        },
        {
          "internalType": "address[]",
          "name": "_pTokens",
          "type": "address[]"
        },
        {
          "internalType": "address[]",
          "name": "_incentiveDistributorAddresses",
          "type": "address[]"
        }
      ],
      "name": "initialize",
      "outputs": [],
      "stateMutability": "nonpayable",
      "type": "function"
    },
    {
      "inputs": [],
      "name": "isGovernor",
      "outputs": [
        {
          "internalType": "bool",
          "name": "",
          "type": "bool"
        }
      ],
      "stateMutability": "view",
      "type": "function"
    },
    {
      "inputs": [],
      "name": "platformAddress",
      "outputs": [
        {
          "internalType": "address",
          "name": "",
          "type": "address"
        }
      ],
      "stateMutability": "view",
      "type": "function"
    },
    {
      "inputs": [
        {
          "internalType": "uint256",
          "name": "_assetIndex",
          "type": "uint256"
        }
      ],
      "name": "removePToken",
      "outputs": [],
      "stateMutability": "nonpayable",
      "type": "function"
    },
    {
      "inputs": [],
      "name": "rewardLiquidationThreshold",
      "outputs": [
        {
          "internalType": "uint256",
          "name": "",
          "type": "uint256"
        }
      ],
      "stateMutability": "view",
      "type": "function"
    },
    {
      "inputs": [
        {
          "internalType": "uint256",
          "name": "",
          "type": "uint256"
        }
      ],
      "name": "rewardTokenAddresses",
      "outputs": [
        {
          "internalType": "address",
          "name": "",
          "type": "address"
        }
      ],
      "stateMutability": "view",
      "type": "function"
    },
    {
      "inputs": [],
      "name": "safeApproveAllTokens",
      "outputs": [],
      "stateMutability": "nonpayable",
      "type": "function"
    },
    {
      "inputs": [
        {
          "internalType": "address",
          "name": "_asset",
          "type": "address"
        },
        {
          "internalType": "address",
          "name": "_pToken",
          "type": "address"
        }
      ],
      "name": "setPTokenAddress",
      "outputs": [],
      "stateMutability": "nonpayable",
      "type": "function"
    },
    {
      "inputs": [
        {
          "internalType": "address",
          "name": "_rewardTokenAddress",
          "type": "address"
        },
        {
          "internalType": "bytes32[]",
          "name": "proof",
          "type": "bytes32[]"
        },
        {
          "internalType": "uint256",
          "name": "amount",
          "type": "uint256"
        }
      ],
      "name": "setProofAndAmount",
      "outputs": [],
      "stateMutability": "nonpayable",
      "type": "function"
    },
    {
      "inputs": [
        {
          "internalType": "uint256",
          "name": "_threshold",
          "type": "uint256"
        }
      ],
      "name": "setRewardLiquidationThreshold",
      "outputs": [],
      "stateMutability": "nonpayable",
      "type": "function"
    },
    {
      "inputs": [
        {
          "internalType": "address[]",
          "name": "_rewardTokenAddresses",
          "type": "address[]"
        }
      ],
      "name": "setRewardTokenAddresses",
      "outputs": [],
      "stateMutability": "nonpayable",
      "type": "function"
    },
    {
      "inputs": [
        {
          "internalType": "address",
          "name": "_asset",
          "type": "address"
        }
      ],
      "name": "supportsAsset",
      "outputs": [
        {
          "internalType": "bool",
          "name": "",
          "type": "bool"
        }
      ],
      "stateMutability": "view",
      "type": "function"
    },
    {
      "inputs": [
        {
          "internalType": "address",
          "name": "_newGovernor",
          "type": "address"
        }
      ],
      "name": "transferGovernance",
      "outputs": [],
      "stateMutability": "nonpayable",
      "type": "function"
    },
    {
      "inputs": [
        {
          "internalType": "address",
          "name": "_asset",
          "type": "address"
        },
        {
          "internalType": "uint256",
          "name": "_amount",
          "type": "uint256"
        }
      ],
      "name": "transferToken",
      "outputs": [],
      "stateMutability": "nonpayable",
      "type": "function"
    },
    {
      "inputs": [],
      "name": "vaultAddress",
      "outputs": [
        {
          "internalType": "address",
          "name": "",
          "type": "address"
        }
      ],
      "stateMutability": "view",
      "type": "function"
    },
    {
      "inputs": [
        {
          "internalType": "address",
          "name": "_recipient",
          "type": "address"
        },
        {
          "internalType": "address",
          "name": "_asset",
          "type": "address"
        },
        {
          "internalType": "uint256",
          "name": "_amount",
          "type": "uint256"
        }
      ],
      "name": "withdraw",
      "outputs": [],
      "stateMutability": "nonpayable",
      "type": "function"
    },
    {
      "inputs": [],
      "name": "withdrawAll",
      "outputs": [],
      "stateMutability": "nonpayable",
      "type": "function"
    }
  ],
  "transactionHash": "0x544645b105142a18d9bdc3ba8c53d3b5c1a077a5095a387367f476bc9f031a07",
  "args": [],
  "numDeployments": 1,
  "solcInputHash": "d446e58b2ef115b1f5a66a1ad9203529",
  "bytecode": "0x608060405234801561001057600080fd5b50610028336000805160206200305b83398151915255565b6000805160206200305b833981519152546040516001600160a01b03909116906000907fc7c0c772add429241571afb3805861fb3cfa2af374534088b76cdb4325a87e9a908290a3612fdb80620000806000396000f3fe608060405234801561001057600080fd5b50600436106101cf5760003560e01c8063853828b611610104578063c7af3352116100a2578063dbe55e5611610071578063dbe55e56146103df578063de5f6268146103f2578063e29f7bc1146103fa578063f6ca71b01461040d57600080fd5b8063c7af33521461039e578063cd3b0212146103a6578063d38bfff4146103b9578063d9caed12146103cc57600080fd5b806396d538bb116100de57806396d538bb14610332578063a8a3f0fc14610345578063aa388af614610358578063ad1728cb1461039657600080fd5b8063853828b6146103045780639136616a1461030c5780639688d2fc1461031f57600080fd5b806347e7ef24116101715780635a063f631161014b5780635a063f63146102ce5780635d36b190146102d65780635f515226146102de5780637b2d9b2c146102f157600080fd5b806347e7ef2414610283578063540ea49a146102965780635653b414146102b757600080fd5b80631072cbea116101ad5780631072cbea146102375780632e6552011461024a57806336ec89991461025d578063430bf08a1461027057600080fd5b80630c340a24146101d45780630ed57b3a146101f95780630fc3b4c41461020e575b600080fd5b6101dc610422565b6040516001600160a01b0390911681526020015b60405180910390f35b61020c610207366004612890565b61043f565b005b6101dc61021c366004612856565b6035602052600090815260409020546001600160a01b031681565b61020c610245366004612b0d565b61047a565b6037546101dc906001600160a01b031681565b61020c61026b366004612ab1565b6104ba565b6034546101dc906001600160a01b031681565b61020c610291366004612b0d565b610604565b6102a96102a4366004612856565b610677565b6040516101f0929190612d32565b6102c060385481565b6040519081526020016101f0565b61020c6106f5565b61020c610b68565b6102c06102ec366004612856565b610c0e565b6101dc6102ff366004612b9d565b610cca565b61020c610cf4565b61020c61031a366004612b9d565b610fdd565b61020c61032d3660046128c9565b6111a8565b61020c610340366004612b39565b6112b1565b61020c610353366004612988565b6113d7565b610386610366366004612856565b6001600160a01b0390811660009081526035602052604090205416151590565b60405190151581526020016101f0565b61020c61153e565b6103866115c4565b61020c6103b4366004612b9d565b6115f5565b61020c6103c7366004612856565b61165a565b61020c6103da366004612a70565b6116fe565b6033546101dc906001600160a01b031681565b61020c611b4b565b6101dc610408366004612b9d565b611c9d565b610415611cad565b6040516101f09190612c4d565b600061043a600080516020612f868339815191525490565b905090565b6104476115c4565b61046c5760405162461bcd60e51b815260040161046390612dbe565b60405180910390fd5b6104768282611d0f565b5050565b6104826115c4565b61049e5760405162461bcd60e51b815260040161046390612dbe565b6104766104a9610422565b6001600160a01b0384169083611e74565b603460009054906101000a90046001600160a01b03166001600160a01b031663570d8e1d6040518163ffffffff1660e01b815260040160206040518083038186803b15801561050857600080fd5b505afa15801561051c573d6000803e3d6000fd5b505050506040513d601f19601f820116820180604052508101906105409190612873565b6001600160a01b0316336001600160a01b0316148061056257506105626115c4565b6105bf5760405162461bcd60e51b815260206004820152602860248201527f43616c6c6572206973206e6f74207468652053747261746567697374206f722060448201526723b7bb32b93737b960c11b6064820152608401610463565b6001600160a01b0384166000908152609e602052604090206105e2908484612747565b506001600160a01b039093166000908152609f60205260409020929092555050565b6034546001600160a01b0316331461062e5760405162461bcd60e51b815260040161046390612d87565b600080516020612f66833981519152805460028114156106605760405162461bcd60e51b815260040161046390612e43565b6002825561066e8484611ed7565b50600190555050565b6001600160a01b0381166000908152609e60209081526040808320609f835281842054815483518186028101860190945280845260609594929391928491908301828280156106e557602002820191906000526020600020905b8154815260200190600101908083116106d1575b5050505050915091509150915091565b6034546001600160a01b0316331461071f5760405162461bcd60e51b815260040161046390612d87565b600080516020612f66833981519152805460028114156107515760405162461bcd60e51b815260040161046390612e43565b6002825560005b603954811015610b60576000609d828154811061077757610777612f3a565b600091825260209091200154603980546001600160a01b03909216925090839081106107a5576107a5612f3a565b9060005260206000200160009054906101000a90046001600160a01b03166001600160a01b0316816001600160a01b031663fc0c546a6040518163ffffffff1660e01b815260040160206040518083038186803b15801561080557600080fd5b505afa158015610819573d6000803e3d6000fd5b505050506040513d601f19601f8201168201806040525081019061083d9190612873565b6001600160a01b03161461085057600080fd5b6000609f60006039858154811061086957610869612f3a565b60009182526020808320909101546001600160a01b0316835282019290925260400190205490508061089c575050610b4e565b6000609e6000603986815481106108b5576108b5612f3a565b60009182526020808320909101546001600160a01b0316835282810193909352604091820190208054825181850281018501909352808352919290919083018282801561092157602002820191906000526020600020905b81548152602001906001019080831161090d575b505060405163c884ef8360e01b81523060048201529394506000936001600160a01b038816935063c884ef839250602401905060206040518083038186803b15801561096c57600080fd5b505afa158015610980573d6000803e3d6000fd5b505050506040513d601f19601f820116820180604052508101906109a49190612bb6565b905082811015610b4957604051630f44fe1d60e21b81526001600160a01b03851690633d13f874906109de90309087908790600401612c26565b600060405180830381600087803b1580156109f857600080fd5b505af1158015610a0c573d6000803e3d6000fd5b50505050600060398681548110610a2557610a25612f3a565b60009182526020822001546040516370a0823160e01b81523060048201526001600160a01b03909116925082906370a082319060240160206040518083038186803b158015610a7357600080fd5b505afa158015610a87573d6000803e3d6000fd5b505050506040513d601f19601f82011682018060405250810190610aab9190612bb6565b603454603980549293507ff6c07a063ed4e63808eb8da7112d46dbcd38de2b40a73dbcc9353c5a94c72353926001600160a01b03909216918a908110610af357610af3612f3a565b60009182526020918290200154604080516001600160a01b0394851681529390911691830191909152810183905260600160405180910390a1603454610b46906001600160a01b03848116911683611e74565b50505b505050505b80610b5881612ef3565b915050610758565b505060019055565b7f1973cae3d8695cb4c31dce9679edb790944900898ecc70570ba365e7de143b0a546001600160a01b0316336001600160a01b031614610c035760405162461bcd60e51b815260206004820152603060248201527f4f6e6c79207468652070656e64696e6720476f7665726e6f722063616e20636f60448201526f6d706c6574652074686520636c61696d60801b6064820152608401610463565b610c0c33611fd4565b565b6001600160a01b0380821660009081526035602052604081205490911680610c3557600080fd5b6000610c4084612098565b90506000816001600160a01b03166369e527da6040518163ffffffff1660e01b815260040160206040518083038186803b158015610c7d57600080fd5b505afa158015610c91573d6000803e3d6000fd5b505050506040513d601f19601f82011682018060405250810190610cb59190612873565b9050610cc18382612101565b95945050505050565b60398181548110610cda57600080fd5b6000918252602090912001546001600160a01b0316905081565b6034546001600160a01b0316331480610d255750610d10610422565b6001600160a01b0316336001600160a01b0316145b610d7d5760405162461bcd60e51b815260206004820152602360248201527f43616c6c6572206973206e6f7420746865205661756c74206f7220476f7665726044820152623737b960e91b6064820152608401610463565b600080516020612f6683398151915280546002811415610daf5760405162461bcd60e51b815260040161046390612e43565b6002825560005b603654811015610b6057600060368281548110610dd557610dd5612f3a565b6000918252602082200154603680546001600160a01b039092169350610e1f9185908110610e0557610e05612f3a565b6000918252602090912001546001600160a01b0316612098565b90506000610e5360368581548110610e3957610e39612f3a565b6000918252602090912001546001600160a01b0316612211565b6040516370a0823160e01b81523060048201529091506000906001600160a01b038316906370a082319060240160206040518083038186803b158015610e9857600080fd5b505afa158015610eac573d6000803e3d6000fd5b505050506040513d601f19601f82011682018060405250810190610ed09190612bb6565b90508015610fc657604051632e1a7d4d60e01b8152600481018290526001600160a01b03841690632e1a7d4d90602401600060405180830381600087803b158015610f1a57600080fd5b505af1158015610f2e573d6000803e3d6000fd5b50506034546040516370a0823160e01b8152306004820152610fc693506001600160a01b039182169250908716906370a082319060240160206040518083038186803b158015610f7d57600080fd5b505afa158015610f91573d6000803e3d6000fd5b505050506040513d601f19601f82011682018060405250810190610fb59190612bb6565b6001600160a01b0387169190611e74565b505050508080610fd590612ef3565b915050610db6565b610fe56115c4565b6110015760405162461bcd60e51b815260040161046390612dbe565b60365481106110425760405162461bcd60e51b815260206004820152600d60248201526c092dcecc2d8d2c840d2dcc8caf609b1b6044820152606401610463565b60006036828154811061105757611057612f3a565b60009182526020808320909101546001600160a01b0390811680845260359092526040909220546036549193509091169061109490600190612eac565b83101561111657603680546110ab90600190612eac565b815481106110bb576110bb612f3a565b600091825260209091200154603680546001600160a01b0390921691859081106110e7576110e7612f3a565b9060005260206000200160006101000a8154816001600160a01b0302191690836001600160a01b031602179055505b603680548061112757611127612f24565b60008281526020808220600019908401810180546001600160a01b031990811690915593019093556001600160a01b038581168083526035855260409283902080549094169093559051908416815290917f16b7600acff27e39a8a96056b3d533045298de927507f5c1d97e4accde60488c910160405180910390a2505050565b6111b06115c4565b6111cc5760405162461bcd60e51b815260040161046390612dbe565b600054610100900460ff16806111e5575060005460ff16155b6112015760405162461bcd60e51b815260040161046390612df5565b600054610100900460ff16158015611223576000805461ffff19166101011790555b6112948989898989898080602002602001604051908101604052809392919081815260200183836020028082843760009201919091525050604080516020808d0282810182019093528c82529093508c92508b91829185019084908082843760009201919091525061229792505050565b80156112a6576000805461ff00191690555b505050505050505050565b6112b96115c4565b6112d55760405162461bcd60e51b815260040161046390612dbe565b60005b818110156113895760008383838181106112f4576112f4612f3a565b90506020020160208101906113099190612856565b6001600160a01b031614156113775760405162461bcd60e51b815260206004820152602e60248201527f43616e206e6f742073657420616e20656d70747920616464726573732061732060448201526d30903932bbb0b932103a37b5b2b760911b6064820152608401610463565b8061138181612ef3565b9150506112d8565b507f04c0b9649497d316554306e53678d5f5f5dbc3a06f97dec13ff4cfe98b986bbc603983836040516113be93929190612c9a565b60405180910390a16113d260398383612792565b505050565b6113df6115c4565b6113fb5760405162461bcd60e51b815260040161046390612dbe565b600054610100900460ff1680611414575060005460ff16155b6114305760405162461bcd60e51b815260040161046390612df5565b600054610100900460ff16158015611452576000805461ffff19166101011790555b8782146114a15760405162461bcd60e51b815260206004820152601d60248201527f6e6f7420313a3120726577617264732d746f2d696e63656e74697665730000006044820152606401610463565b6114ad609d8484612792565b5061151f8b8b8b8b8b8b8080602002602001604051908101604052809392919081815260200183836020028082843760009201919091525050604080516020808f0282810182019093528e82529093508e92508d91829185019084908082843760009201919091525061229792505050565b8015611531576000805461ff00191690555b5050505050505050505050565b60365460005b818110156104765760006036828154811061156157611561612f3a565b60009182526020808320909101546001600160a01b039081168084526035909252604083205491935016906115999083908390612380565b6115af6001600160a01b03831682600019612380565b505080806115bc90612ef3565b915050611544565b60006115dc600080516020612f868339815191525490565b6001600160a01b0316336001600160a01b031614905090565b6115fd6115c4565b6116195760405162461bcd60e51b815260040161046390612dbe565b60385460408051918252602082018390527f01538952e8f491e3569a11bf3935ca2fa917ea85ec938dac52e696fbb76d8cc6910160405180910390a1603855565b6116626115c4565b61167e5760405162461bcd60e51b815260040161046390612dbe565b6116a6817f1973cae3d8695cb4c31dce9679edb790944900898ecc70570ba365e7de143b0a55565b806001600160a01b03166116c6600080516020612f868339815191525490565b6001600160a01b03167fa39cc5eb22d0f34d8beaefee8a3f17cc229c1a1d1ef87a5ad47313487b1c4f0d60405160405180910390a350565b6034546001600160a01b031633146117285760405162461bcd60e51b815260040161046390612d87565b600080516020612f668339815191528054600281141561175a5760405162461bcd60e51b815260040161046390612e43565b60028255600083116117ae5760405162461bcd60e51b815260206004820152601760248201527f4d75737420776974686472617720736f6d657468696e670000000000000000006044820152606401610463565b6001600160a01b0385166117fd5760405162461bcd60e51b8152602060048201526016602482015275135d5cdd081cdc1958da599e481c9958da5c1a595b9d60521b6044820152606401610463565b600061180885612098565b9050600061181586612211565b9050600061182382876124a4565b604080516001600160a01b03868116825260208201849052929350918916917f2717ead6b9200dd235aad468c9809ea400fe33ac69b5bfaa6d3e90fc922b6398910160405180910390a2806118bc57604080516001600160a01b0389168152602081018890527f2ca0d37ecfc1b8853f4bc276c69586250b3978c1d467c05d6c143966026724ec910160405180910390a1505050611b41565b866001600160a01b03167f2717ead6b9200dd235aad468c9809ea400fe33ac69b5bfaa6d3e90fc922b6398836001600160a01b0316636f307dc36040518163ffffffff1660e01b8152600401602060405180830381600087803b15801561192257600080fd5b505af1158015611936573d6000803e3d6000fd5b505050506040513d601f19601f8201168201806040525081019061195a9190612873565b604080516001600160a01b039092168252602082018a90520160405180910390a26040516370a0823160e01b81523060048201526000906001600160a01b038916906370a082319060240160206040518083038186803b1580156119bd57600080fd5b505afa1580156119d1573d6000803e3d6000fd5b505050506040513d601f19601f820116820180604052508101906119f59190612bb6565b604051632e1a7d4d60e01b8152600481018490529091506001600160a01b03851690632e1a7d4d90602401600060405180830381600087803b158015611a3a57600080fd5b505af1158015611a4e573d6000803e3d6000fd5b50506040516370a0823160e01b8152306004820152600092506001600160a01b038b1691506370a082319060240160206040518083038186803b158015611a9457600080fd5b505afa158015611aa8573d6000803e3d6000fd5b505050506040513d601f19601f82011682018060405250810190611acc9190612bb6565b9050611ad88282612eac565b881115611b275760405162461bcd60e51b815260206004820152601760248201527f446964206e6f7420776974686472617720656e6f7567680000000000000000006044820152606401610463565b611b3b6001600160a01b038a168b8a611e74565b50505050505b5060019055505050565b6034546001600160a01b03163314611b755760405162461bcd60e51b815260040161046390612d87565b600080516020612f6683398151915280546002811415611ba75760405162461bcd60e51b815260040161046390612e43565b6002825560005b603654811015610b6057600060368281548110611bcd57611bcd612f3a565b6000918252602090912001546040516370a0823160e01b81523060048201526001600160a01b03909116906370a082319060240160206040518083038186803b158015611c1957600080fd5b505afa158015611c2d573d6000803e3d6000fd5b505050506040513d601f19601f82011682018060405250810190611c519190612bb6565b90508015611c8a57611c8a60368381548110611c6f57611c6f612f3a565b6000918252602090912001546001600160a01b031682611ed7565b5080611c9581612ef3565b915050611bae565b609d8181548110610cda57600080fd5b60606039805480602002602001604051908101604052809291908181526020018280548015611d0557602002820191906000526020600020905b81546001600160a01b03168152600190910190602001808311611ce7575b5050505050905090565b6001600160a01b038281166000908152603560205260409020541615611d6c5760405162461bcd60e51b81526020600482015260126024820152711c151bdad95b88185b1c9958591e481cd95d60721b6044820152606401610463565b6001600160a01b03821615801590611d8c57506001600160a01b03811615155b611dcc5760405162461bcd60e51b8152602060048201526011602482015270496e76616c69642061646472657373657360781b6044820152606401610463565b6001600160a01b03828116600081815260356020908152604080832080549587166001600160a01b031996871681179091556036805460018101825594527f4a11f94e20a93c79f6ec743a1954ec4fc2c08429ae2122118bf234b2185c81b890930180549095168417909455925190815290917fef6485b84315f9b1483beffa32aae9a0596890395e3d7521f1c5fbb51790e765910160405180910390a2610476828261253f565b6040516001600160a01b0383166024820152604481018290526113d290849063a9059cbb60e01b906064015b60408051601f198184030181529190526020810180516001600160e01b03166001600160e01b03199093169290921790915261256a565b60008111611f205760405162461bcd60e51b81526020600482015260166024820152754d757374206465706f73697420736f6d657468696e6760501b6044820152606401610463565b6000611f2b83612098565b604080516001600160a01b03808416825260208201869052929350918516917f5548c837ab068cf56a2c2479df0882a4922fd203edb7517321831d95078c5f62910160405180910390a260405163b6b55f2560e01b8152600481018390526001600160a01b0382169063b6b55f2590602401600060405180830381600087803b158015611fb757600080fd5b505af1158015611fcb573d6000803e3d6000fd5b50505050505050565b6001600160a01b03811661202a5760405162461bcd60e51b815260206004820152601a60248201527f4e657720476f7665726e6f7220697320616464726573732830290000000000006044820152606401610463565b806001600160a01b031661204a600080516020612f868339815191525490565b6001600160a01b03167fc7c0c772add429241571afb3805861fb3cfa2af374534088b76cdb4325a87e9a60405160405180910390a361209581600080516020612f8683398151915255565b50565b6001600160a01b03808216600090815260356020526040812054909116806120fb5760405162461bcd60e51b81526020600482015260166024820152751cd85999509bde08191bd95cc81b9bdd08195e1a5cdd60521b6044820152606401610463565b92915050565b6040516370a0823160e01b815230600482015260009081906001600160a01b038516906370a082319060240160206040518083038186803b15801561214557600080fd5b505afa158015612159573d6000803e3d6000fd5b505050506040513d601f19601f8201168201806040525081019061217d9190612bb6565b90506000836001600160a01b031663182df0f56040518163ffffffff1660e01b815260040160206040518083038186803b1580156121ba57600080fd5b505afa1580156121ce573d6000803e3d6000fd5b505050506040513d601f19601f820116820180604052508101906121f29190612bb6565b9050670de0b6b3a76400006122078284612e8d565b610cc19190612e6b565b60008061221d83612098565b9050806001600160a01b03166369e527da6040518163ffffffff1660e01b815260040160206040518083038186803b15801561225857600080fd5b505afa15801561226c573d6000803e3d6000fd5b505050506040513d601f19601f820116820180604052508101906122909190612873565b9392505050565b603380546001600160a01b038089166001600160a01b03199283161790925560348054928816929091169190911790556122d360398585612792565b5081518151811461231d5760405162461bcd60e51b8152602060048201526014602482015273496e76616c696420696e7075742061727261797360601b6044820152606401610463565b60005b818110156123765761236484828151811061233d5761233d612f3a565b602002602001015184838151811061235757612357612f3a565b6020026020010151611d0f565b8061236e81612ef3565b915050612320565b5050505050505050565b8015806124095750604051636eb1769f60e11b81523060048201526001600160a01b03838116602483015284169063dd62ed3e9060440160206040518083038186803b1580156123cf57600080fd5b505afa1580156123e3573d6000803e3d6000fd5b505050506040513d601f19601f820116820180604052508101906124079190612bb6565b155b6124745760405162461bcd60e51b815260206004820152603660248201527f5361666545524332303a20617070726f76652066726f6d206e6f6e2d7a65726f60448201527520746f206e6f6e2d7a65726f20616c6c6f77616e636560501b6064820152608401610463565b6040516001600160a01b0383166024820152604481018290526113d290849063095ea7b360e01b90606401611ea0565b600080836001600160a01b031663182df0f56040518163ffffffff1660e01b815260040160206040518083038186803b1580156124e057600080fd5b505afa1580156124f4573d6000803e3d6000fd5b505050506040513d601f19601f820116820180604052508101906125189190612bb6565b90508061252d84670de0b6b3a7640000612e8d565b6125379190612e6b565b949350505050565b6125546001600160a01b038316826000612380565b6104766001600160a01b03831682600019612380565b60006125bf826040518060400160405280602081526020017f5361666545524332303a206c6f772d6c6576656c2063616c6c206661696c6564815250856001600160a01b031661263c9092919063ffffffff16565b8051909150156113d257808060200190518101906125dd9190612b7b565b6113d25760405162461bcd60e51b815260206004820152602a60248201527f5361666545524332303a204552433230206f7065726174696f6e20646964206e6044820152691bdd081cdd58d8d9595960b21b6064820152608401610463565b6060612537848460008585843b6126955760405162461bcd60e51b815260206004820152601d60248201527f416464726573733a2063616c6c20746f206e6f6e2d636f6e74726163740000006044820152606401610463565b600080866001600160a01b031685876040516126b19190612c0a565b60006040518083038185875af1925050503d80600081146126ee576040519150601f19603f3d011682016040523d82523d6000602084013e6126f3565b606091505b509150915061270382828661270e565b979650505050505050565b6060831561271d575081612290565b82511561272d5782518084602001fd5b8160405162461bcd60e51b81526004016104639190612d54565b828054828255906000526020600020908101928215612782579160200282015b82811115612782578235825591602001919060010190612767565b5061278e9291506127e5565b5090565b828054828255906000526020600020908101928215612782579160200282015b828111156127825781546001600160a01b0319166001600160a01b038435161782556020909201916001909101906127b2565b5b8082111561278e57600081556001016127e6565b803561280581612f50565b919050565b60008083601f84011261281c57600080fd5b50813567ffffffffffffffff81111561283457600080fd5b6020830191508360208260051b850101111561284f57600080fd5b9250929050565b60006020828403121561286857600080fd5b813561229081612f50565b60006020828403121561288557600080fd5b815161229081612f50565b600080604083850312156128a357600080fd5b82356128ae81612f50565b915060208301356128be81612f50565b809150509250929050565b60008060008060008060008060a0898b0312156128e557600080fd5b88356128f081612f50565b9750602089013561290081612f50565b9650604089013567ffffffffffffffff8082111561291d57600080fd5b6129298c838d0161280a565b909850965060608b013591508082111561294257600080fd5b61294e8c838d0161280a565b909650945060808b013591508082111561296757600080fd5b506129748b828c0161280a565b999c989b5096995094979396929594505050565b60008060008060008060008060008060c08b8d0312156129a757600080fd5b6129b08b6127fa565b99506129be60208c016127fa565b985060408b013567ffffffffffffffff808211156129db57600080fd5b6129e78e838f0161280a565b909a50985060608d0135915080821115612a0057600080fd5b612a0c8e838f0161280a565b909850965060808d0135915080821115612a2557600080fd5b612a318e838f0161280a565b909650945060a08d0135915080821115612a4a57600080fd5b50612a578d828e0161280a565b915080935050809150509295989b9194979a5092959850565b600080600060608486031215612a8557600080fd5b8335612a9081612f50565b92506020840135612aa081612f50565b929592945050506040919091013590565b60008060008060608587031215612ac757600080fd5b8435612ad281612f50565b9350602085013567ffffffffffffffff811115612aee57600080fd5b612afa8782880161280a565b9598909750949560400135949350505050565b60008060408385031215612b2057600080fd5b8235612b2b81612f50565b946020939093013593505050565b60008060208385031215612b4c57600080fd5b823567ffffffffffffffff811115612b6357600080fd5b612b6f8582860161280a565b90969095509350505050565b600060208284031215612b8d57600080fd5b8151801515811461229057600080fd5b600060208284031215612baf57600080fd5b5035919050565b600060208284031215612bc857600080fd5b5051919050565b600081518084526020808501945080840160005b83811015612bff57815187529582019590820190600101612be3565b509495945050505050565b60008251612c1c818460208701612ec3565b9190910192915050565b60018060a01b0384168152826020820152606060408201526000610cc16060830184612bcf565b6020808252825182820181905260009190848201906040850190845b81811015612c8e5783516001600160a01b031683529284019291840191600101612c69565b50909695505050505050565b6000604082016040835280865480835260608501915087600052602092508260002060005b82811015612ce45781546001600160a01b031684529284019260019182019101612cbf565b505050838103828501528481528590820160005b86811015612d26578235612d0b81612f50565b6001600160a01b031682529183019190830190600101612cf8565b50979650505050505050565b604081526000612d456040830185612bcf565b90508260208301529392505050565b6020815260008251806020840152612d73816040850160208701612ec3565b601f01601f19169190910160400192915050565b60208082526017908201527f43616c6c6572206973206e6f7420746865205661756c74000000000000000000604082015260600190565b6020808252601a908201527f43616c6c6572206973206e6f742074686520476f7665726e6f72000000000000604082015260600190565b6020808252602e908201527f496e697469616c697a61626c653a20636f6e747261637420697320616c72656160408201526d191e481a5b9a5d1a585b1a5e995960921b606082015260800190565b6020808252600e908201526d1499595b9d1c985b9d0818d85b1b60921b604082015260600190565b600082612e8857634e487b7160e01b600052601260045260246000fd5b500490565b6000816000190483118215151615612ea757612ea7612f0e565b500290565b600082821015612ebe57612ebe612f0e565b500390565b60005b83811015612ede578181015183820152602001612ec6565b83811115612eed576000848401525b50505050565b6000600019821415612f0757612f07612f0e565b5060010190565b634e487b7160e01b600052601160045260246000fd5b634e487b7160e01b600052603160045260246000fd5b634e487b7160e01b600052603260045260246000fd5b6001600160a01b038116811461209557600080fdfe218adab1852f0bdeacb3305483cf296dbcf6abf496f646284463c8e6a43fa665fe7bb572d5723516ce4fe7a6a664f5adb38f5714efcd271411ed70a34d3ef2f7a2646970667358221220bb2054c00e56f76a66cd65ad8a9d7ecadbfcb0f79a10522c5c3bf690463e3d9364736f6c63430008070033fe7bb572d5723516ce4fe7a6a664f5adb38f5714efcd271411ed70a34d3ef2f7",
  "devdoc": {
    "kind": "dev",
    "methods": {
      "checkBalance(address)": {
        "details": "Get the total asset value held in the platform      This includes any interest that was generated since depositing      CREAM exchange rate between the cToken and asset gradually increases,      causing the cToken to be worth more corresponding asset.",
        "params": {
          "_asset": "Address of the asset"
        },
        "returns": {
          "balance": "   Total value of the asset in the platform"
        }
      },
      "claimGovernance()": {
        "details": "Claim Governance of the contract to a new account (`newGovernor`). Can only be called by the new Governor."
      },
      "collectRewardTokens()": {
        "details": "Collect accumulated WAVAX+ALPHA and send to Vault."
      },
      "deposit(address,uint256)": {
        "details": "Deposit asset into AlphaHomora",
        "params": {
          "_amount": "Amount of asset to deposit",
          "_asset": "Address of asset to deposit"
        }
      },
      "depositAll()": {
        "details": "Deposit the entire balance of any supported asset into AlphaHomora"
      },
      "getRewardTokenAddresses()": {
        "details": "Get the reward token addresses.",
        "returns": {
          "_0": "address[] the reward token addresses."
        }
      },
      "governor()": {
        "details": "Returns the address of the current Governor."
      },
      "initialize(address,address,address[],address[],address[])": {
        "details": "Internal initialize function, to set up initial internal state",
        "params": {
          "_assets": "Addresses of initial supported assets",
          "_pTokens": "Platform Token corresponding addresses",
          "_platformAddress": "Generic platform address",
          "_rewardTokenAddresses": "Addresses of reward tokens for platform",
          "_vaultAddress": "Address of the Vault"
        }
      },
      "isGovernor()": {
        "details": "Returns true if the caller is the current Governor."
      },
      "removePToken(uint256)": {
        "details": "Remove a supported asset by passing its index.      This method can only be called by the system Governor",
        "params": {
          "_assetIndex": "Index of the asset to be removed"
        }
      },
      "safeApproveAllTokens()": {
        "details": "Approve the spending of all assets by their corresponding cToken,      if for some reason is it necessary."
      },
      "setPTokenAddress(address,address)": {
        "details": "Provide support for asset by passing its pToken address.      This method can only be called by the system Governor",
        "params": {
          "_asset": "Address for the asset",
          "_pToken": "Address for the corresponding platform token"
        }
      },
      "setProofAndAmount(address,bytes32[],uint256)": {
        "details": "Sets the reward amount and merkle proof from off-chain.",
        "params": {
          "_rewardTokenAddress": "The reward token address",
          "amount": "The accumulated (total) amount of rewards.",
          "proof": "the MerkleProof provided by AlphaHomora"
        }
      },
      "setRewardLiquidationThreshold(uint256)": {
        "details": "Set the reward token liquidation threshold.",
        "params": {
          "_threshold": "Threshold amount in decimals of reward token that will cause the Vault to claim and withdrawAll on allocate() calls."
        }
      },
      "setRewardTokenAddresses(address[])": {
        "details": "Set the reward token addresses.",
        "params": {
          "_rewardTokenAddresses": "Address array of the reward tokens"
        }
      },
      "supportsAsset(address)": {
        "details": "Returns bool indicating whether asset is supported by strategy",
        "params": {
          "_asset": "Address of the asset"
        }
      },
      "transferGovernance(address)": {
        "details": "Transfers Governance of the contract to a new account (`newGovernor`). Can only be called by the current Governor. Must be claimed for this to complete",
        "params": {
          "_newGovernor": "Address of the new Governor"
        }
      },
      "transferToken(address,uint256)": {
        "details": "Transfer token to governor. Intended for recovering tokens stuck in      strategy contracts, i.e. mistaken sends.",
        "params": {
          "_amount": "Amount of the asset to transfer",
          "_asset": "Address for the asset"
        }
      },
      "withdraw(address,address,uint256)": {
        "details": "Withdraw asset from AlphaHomora",
        "params": {
          "_amount": "Amount of asset to withdraw",
          "_asset": "Address of asset to withdraw",
          "_recipient": "Address to receive withdrawn asset"
        }
      },
      "withdrawAll()": {
        "details": "Remove all assets from platform and send all of that asset to Vault contract."
      }
    },
    "version": 1
  },
  "userdoc": {
    "kind": "user",
    "methods": {},
    "version": 1
  },
  "storageLayout": {
    "storage": [
      {
        "astId": 13956,
        "contract": "contracts/strategies/AlphaHomoraStrategy.sol:AlphaHomoraStrategy",
        "label": "initialized",
        "offset": 0,
        "slot": "0",
        "type": "t_bool"
      },
      {
        "astId": 13959,
        "contract": "contracts/strategies/AlphaHomoraStrategy.sol:AlphaHomoraStrategy",
        "label": "initializing",
        "offset": 1,
        "slot": "0",
        "type": "t_bool"
      },
      {
        "astId": 13999,
        "contract": "contracts/strategies/AlphaHomoraStrategy.sol:AlphaHomoraStrategy",
        "label": "______gap",
        "offset": 0,
        "slot": "1",
        "type": "t_array(t_uint256)50_storage"
      },
      {
        "astId": 14081,
        "contract": "contracts/strategies/AlphaHomoraStrategy.sol:AlphaHomoraStrategy",
        "label": "platformAddress",
        "offset": 0,
        "slot": "51",
        "type": "t_address"
      },
      {
        "astId": 14083,
        "contract": "contracts/strategies/AlphaHomoraStrategy.sol:AlphaHomoraStrategy",
        "label": "vaultAddress",
        "offset": 0,
        "slot": "52",
        "type": "t_address"
      },
      {
        "astId": 14087,
        "contract": "contracts/strategies/AlphaHomoraStrategy.sol:AlphaHomoraStrategy",
        "label": "assetToPToken",
        "offset": 0,
        "slot": "53",
        "type": "t_mapping(t_address,t_address)"
      },
      {
        "astId": 14090,
        "contract": "contracts/strategies/AlphaHomoraStrategy.sol:AlphaHomoraStrategy",
        "label": "assetsMapped",
        "offset": 0,
        "slot": "54",
        "type": "t_array(t_address)dyn_storage"
      },
      {
        "astId": 14092,
        "contract": "contracts/strategies/AlphaHomoraStrategy.sol:AlphaHomoraStrategy",
        "label": "_deprecated_rewardTokenAddress",
        "offset": 0,
        "slot": "55",
        "type": "t_address"
      },
      {
        "astId": 14094,
        "contract": "contracts/strategies/AlphaHomoraStrategy.sol:AlphaHomoraStrategy",
        "label": "rewardLiquidationThreshold",
        "offset": 0,
        "slot": "56",
        "type": "t_uint256"
      },
      {
        "astId": 14097,
        "contract": "contracts/strategies/AlphaHomoraStrategy.sol:AlphaHomoraStrategy",
        "label": "rewardTokenAddresses",
        "offset": 0,
        "slot": "57",
        "type": "t_array(t_address)dyn_storage"
      },
      {
        "astId": 14101,
        "contract": "contracts/strategies/AlphaHomoraStrategy.sol:AlphaHomoraStrategy",
        "label": "_reserved",
        "offset": 0,
        "slot": "58",
        "type": "t_array(t_int256)99_storage"
      },
      {
        "astId": 10131,
        "contract": "contracts/strategies/AlphaHomoraStrategy.sol:AlphaHomoraStrategy",
        "label": "incentiveDistributorAddresses",
        "offset": 0,
        "slot": "157",
        "type": "t_array(t_address)dyn_storage"
      },
      {
        "astId": 10136,
        "contract": "contracts/strategies/AlphaHomoraStrategy.sol:AlphaHomoraStrategy",
        "label": "_proofs",
        "offset": 0,
        "slot": "158",
        "type": "t_mapping(t_address,t_array(t_bytes32)dyn_storage)"
      },
      {
        "astId": 10140,
        "contract": "contracts/strategies/AlphaHomoraStrategy.sol:AlphaHomoraStrategy",
        "label": "_amounts",
        "offset": 0,
        "slot": "159",
        "type": "t_mapping(t_address,t_uint256)"
      }
    ],
    "types": {
      "t_address": {
        "encoding": "inplace",
        "label": "address",
        "numberOfBytes": "20"
      },
      "t_array(t_address)dyn_storage": {
        "base": "t_address",
        "encoding": "dynamic_array",
        "label": "address[]",
        "numberOfBytes": "32"
      },
      "t_array(t_bytes32)dyn_storage": {
        "base": "t_bytes32",
        "encoding": "dynamic_array",
        "label": "bytes32[]",
        "numberOfBytes": "32"
      },
      "t_array(t_int256)99_storage": {
        "base": "t_int256",
        "encoding": "inplace",
        "label": "int256[99]",
        "numberOfBytes": "3168"
      },
      "t_array(t_uint256)50_storage": {
        "base": "t_uint256",
        "encoding": "inplace",
        "label": "uint256[50]",
        "numberOfBytes": "1600"
      },
      "t_bool": {
        "encoding": "inplace",
        "label": "bool",
        "numberOfBytes": "1"
      },
      "t_bytes32": {
        "encoding": "inplace",
        "label": "bytes32",
        "numberOfBytes": "32"
      },
      "t_int256": {
        "encoding": "inplace",
        "label": "int256",
        "numberOfBytes": "32"
      },
      "t_mapping(t_address,t_address)": {
        "encoding": "mapping",
        "key": "t_address",
        "label": "mapping(address => address)",
        "numberOfBytes": "32",
        "value": "t_address"
      },
      "t_mapping(t_address,t_array(t_bytes32)dyn_storage)": {
        "encoding": "mapping",
        "key": "t_address",
        "label": "mapping(address => bytes32[])",
        "numberOfBytes": "32",
        "value": "t_array(t_bytes32)dyn_storage"
      },
      "t_mapping(t_address,t_uint256)": {
        "encoding": "mapping",
        "key": "t_address",
        "label": "mapping(address => uint256)",
        "numberOfBytes": "32",
        "value": "t_uint256"
      },
      "t_uint256": {
        "encoding": "inplace",
        "label": "uint256",
        "numberOfBytes": "32"
      }
    }
  }
}