{
  "address": "0x8882FAddD440D018EfA15B92d03F3f357eC91D4A",
  "abi": [
    {
      "anonymous": false,
      "inputs": [
        {
          "indexed": true,
          "internalType": "address",
          "name": "_asset",
          "type": "address"
        },
        {
          "indexed": false,
          "internalType": "address",
          "name": "_pToken",
          "type": "address"
        },
        {
          "indexed": false,
          "internalType": "uint256",
          "name": "_amount",
          "type": "uint256"
        }
      ],
      "name": "Deposit",
      "type": "event"
    },
    {
      "anonymous": false,
      "inputs": [
        {
          "indexed": true,
          "internalType": "address",
          "name": "previousGovernor",
          "type": "address"
        },
        {
          "indexed": true,
          "internalType": "address",
          "name": "newGovernor",
          "type": "address"
        }
      ],
      "name": "GovernorshipTransferred",
      "type": "event"
    },
    {
      "anonymous": false,
      "inputs": [
        {
          "indexed": true,
          "internalType": "address",
          "name": "_asset",
          "type": "address"
        },
        {
          "indexed": false,
          "internalType": "address",
          "name": "_pToken",
          "type": "address"
        }
      ],
      "name": "PTokenAdded",
      "type": "event"
    },
    {
      "anonymous": false,
      "inputs": [
        {
          "indexed": true,
          "internalType": "address",
          "name": "_asset",
          "type": "address"
        },
        {
          "indexed": false,
          "internalType": "address",
          "name": "_pToken",
          "type": "address"
        }
      ],
      "name": "PTokenRemoved",
      "type": "event"
    },
    {
      "anonymous": false,
      "inputs": [
        {
          "indexed": true,
          "internalType": "address",
          "name": "previousGovernor",
          "type": "address"
        },
        {
          "indexed": true,
          "internalType": "address",
          "name": "newGovernor",
          "type": "address"
        }
      ],
      "name": "PendingGovernorshipTransfer",
      "type": "event"
    },
    {
      "anonymous": false,
      "inputs": [
        {
          "indexed": false,
          "internalType": "uint256",
          "name": "_oldThreshold",
          "type": "uint256"
        },
        {
          "indexed": false,
          "internalType": "uint256",
          "name": "_newThreshold",
          "type": "uint256"
        }
      ],
      "name": "RewardLiquidationThresholdUpdated",
      "type": "event"
    },
    {
      "anonymous": false,
      "inputs": [
        {
          "indexed": false,
          "internalType": "address",
          "name": "_oldAddress",
          "type": "address"
        },
        {
          "indexed": false,
          "internalType": "address",
          "name": "_newAddress",
          "type": "address"
        }
      ],
      "name": "RewardTokenAddressUpdated",
      "type": "event"
    },
    {
      "anonymous": false,
      "inputs": [
        {
          "indexed": false,
          "internalType": "address",
          "name": "recipient",
          "type": "address"
        },
        {
          "indexed": false,
          "internalType": "uint256",
          "name": "amount",
          "type": "uint256"
        }
      ],
      "name": "RewardTokenCollected",
      "type": "event"
    },
    {
      "anonymous": false,
      "inputs": [
        {
          "indexed": true,
          "internalType": "address",
          "name": "_asset",
          "type": "address"
        },
        {
          "indexed": false,
          "internalType": "address",
          "name": "_pToken",
          "type": "address"
        },
        {
          "indexed": false,
          "internalType": "uint256",
          "name": "_amount",
          "type": "uint256"
        }
      ],
      "name": "Withdrawal",
      "type": "event"
    },
    {
      "inputs": [
        {
          "internalType": "address",
          "name": "",
          "type": "address"
        }
      ],
      "name": "assetToPToken",
      "outputs": [
        {
          "internalType": "address",
          "name": "",
          "type": "address"
        }
      ],
      "stateMutability": "view",
      "type": "function"
    },
    {
      "inputs": [
        {
          "internalType": "address",
          "name": "_asset",
          "type": "address"
        }
      ],
      "name": "checkBalance",
      "outputs": [
        {
          "internalType": "uint256",
          "name": "balance",
          "type": "uint256"
        }
      ],
      "stateMutability": "view",
      "type": "function"
    },
    {
      "inputs": [],
      "name": "claimGovernance",
      "outputs": [],
      "stateMutability": "nonpayable",
      "type": "function"
    },
    {
      "inputs": [],
      "name": "collectRewardToken",
      "outputs": [],
      "stateMutability": "nonpayable",
      "type": "function"
    },
    {
      "inputs": [
        {
          "internalType": "address",
          "name": "_asset",
          "type": "address"
        },
        {
          "internalType": "uint256",
          "name": "_amount",
          "type": "uint256"
        }
      ],
      "name": "deposit",
      "outputs": [],
      "stateMutability": "nonpayable",
      "type": "function"
    },
    {
      "inputs": [],
      "name": "depositAll",
      "outputs": [],
      "stateMutability": "nonpayable",
      "type": "function"
    },
    {
      "inputs": [],
      "name": "governor",
      "outputs": [
        {
          "internalType": "address",
          "name": "",
          "type": "address"
        }
      ],
      "stateMutability": "view",
      "type": "function"
    },
    {
      "inputs": [
        {
          "internalType": "address",
          "name": "_platformAddress",
          "type": "address"
        },
        {
          "internalType": "address",
          "name": "_vaultAddress",
          "type": "address"
        },
        {
          "internalType": "address",
          "name": "_rewardTokenAddress",
          "type": "address"
        },
        {
          "internalType": "address[]",
          "name": "_assets",
          "type": "address[]"
        },
        {
          "internalType": "address[]",
          "name": "_pTokens",
          "type": "address[]"
        },
        {
          "internalType": "address",
          "name": "_crvGaugeAddress",
          "type": "address"
        }
      ],
      "name": "initialize",
      "outputs": [],
      "stateMutability": "nonpayable",
      "type": "function"
    },
    {
      "inputs": [
        {
          "internalType": "address",
          "name": "_platformAddress",
          "type": "address"
        },
        {
          "internalType": "address",
          "name": "_vaultAddress",
          "type": "address"
        },
        {
          "internalType": "address",
          "name": "_rewardTokenAddress",
          "type": "address"
        },
        {
          "internalType": "address[]",
          "name": "_assets",
          "type": "address[]"
        },
        {
          "internalType": "address[]",
          "name": "_pTokens",
          "type": "address[]"
        }
      ],
      "name": "initialize",
      "outputs": [],
      "stateMutability": "nonpayable",
      "type": "function"
    },
    {
      "inputs": [],
      "name": "isGovernor",
      "outputs": [
        {
          "internalType": "bool",
          "name": "",
          "type": "bool"
        }
      ],
      "stateMutability": "view",
      "type": "function"
    },
    {
      "inputs": [],
      "name": "platformAddress",
      "outputs": [
        {
          "internalType": "address",
          "name": "",
          "type": "address"
        }
      ],
      "stateMutability": "view",
      "type": "function"
    },
    {
      "inputs": [
        {
          "internalType": "uint256",
          "name": "_assetIndex",
          "type": "uint256"
        }
      ],
      "name": "removePToken",
      "outputs": [],
      "stateMutability": "nonpayable",
      "type": "function"
    },
    {
      "inputs": [],
      "name": "rewardLiquidationThreshold",
      "outputs": [
        {
          "internalType": "uint256",
          "name": "",
          "type": "uint256"
        }
      ],
      "stateMutability": "view",
      "type": "function"
    },
    {
      "inputs": [],
      "name": "rewardTokenAddress",
      "outputs": [
        {
          "internalType": "address",
          "name": "",
          "type": "address"
        }
      ],
      "stateMutability": "view",
      "type": "function"
    },
    {
      "inputs": [],
      "name": "safeApproveAllTokens",
      "outputs": [],
      "stateMutability": "nonpayable",
      "type": "function"
    },
    {
      "inputs": [
        {
          "internalType": "address",
          "name": "_asset",
          "type": "address"
        },
        {
          "internalType": "address",
          "name": "_pToken",
          "type": "address"
        }
      ],
      "name": "setPTokenAddress",
      "outputs": [],
      "stateMutability": "nonpayable",
      "type": "function"
    },
    {
      "inputs": [
        {
          "internalType": "uint256",
          "name": "_threshold",
          "type": "uint256"
        }
      ],
      "name": "setRewardLiquidationThreshold",
      "outputs": [],
      "stateMutability": "nonpayable",
      "type": "function"
    },
    {
      "inputs": [
        {
          "internalType": "address",
          "name": "_rewardTokenAddress",
          "type": "address"
        }
      ],
      "name": "setRewardTokenAddress",
      "outputs": [],
      "stateMutability": "nonpayable",
      "type": "function"
    },
    {
      "inputs": [
        {
          "internalType": "address",
          "name": "_asset",
          "type": "address"
        }
      ],
      "name": "supportsAsset",
      "outputs": [
        {
          "internalType": "bool",
          "name": "",
          "type": "bool"
        }
      ],
      "stateMutability": "view",
      "type": "function"
    },
    {
      "inputs": [
        {
          "internalType": "address",
          "name": "_newGovernor",
          "type": "address"
        }
      ],
      "name": "transferGovernance",
      "outputs": [],
      "stateMutability": "nonpayable",
      "type": "function"
    },
    {
      "inputs": [
        {
          "internalType": "address",
          "name": "_asset",
          "type": "address"
        },
        {
          "internalType": "uint256",
          "name": "_amount",
          "type": "uint256"
        }
      ],
      "name": "transferToken",
      "outputs": [],
      "stateMutability": "nonpayable",
      "type": "function"
    },
    {
      "inputs": [],
      "name": "vaultAddress",
      "outputs": [
        {
          "internalType": "address",
          "name": "",
          "type": "address"
        }
      ],
      "stateMutability": "view",
      "type": "function"
    },
    {
      "inputs": [
        {
          "internalType": "address",
          "name": "_recipient",
          "type": "address"
        },
        {
          "internalType": "address",
          "name": "_asset",
          "type": "address"
        },
        {
          "internalType": "uint256",
          "name": "_amount",
          "type": "uint256"
        }
      ],
      "name": "withdraw",
      "outputs": [],
      "stateMutability": "nonpayable",
      "type": "function"
    },
    {
      "inputs": [],
      "name": "withdrawAll",
      "outputs": [],
      "stateMutability": "nonpayable",
      "type": "function"
    }
  ],
  "transactionHash": "0x0e193a998bb66d8ea5def8d5d78ddf152433b5f7f315550573cd7fe67b14eda6",
  "args": [],
  "numDeployments": 1,
  "solcInputHash": "ddb3e332b8672aa6c6a47b2acd76301c",
  "bytecode": "0x608060405234801561001057600080fd5b506100283360008051602062002bb883398151915255565b60008051602062002bb8833981519152546040516001600160a01b03909116906000907fc7c0c772add429241571afb3805861fb3cfa2af374534088b76cdb4325a87e9a908290a3612b3880620000806000396000f3fe608060405234801561001057600080fd5b50600436106101585760003560e01c8063790fcf9f116100c3578063c7af33521161007c578063c7af3352146102e0578063cd3b0212146102e8578063d38bfff4146102fb578063d9caed121461030e578063dbe55e5614610321578063de5f62681461033457600080fd5b8063790fcf9f14610259578063853828b61461026c5780639136616a146102745780639a6acf2014610287578063aa388af61461029a578063ad1728cb146102d857600080fd5b8063430bf08a11610115578063430bf08a146101ee57806347e7ef24146102015780635653b414146102145780635d36b1901461022b5780635f515226146102335780636a0597f91461024657600080fd5b80630242241d1461015d5780630c340a24146101675780630ed57b3a1461018c5780630fc3b4c41461019f5780631072cbea146101c8578063125f9e33146101db575b600080fd5b61016561033c565b005b61016f610414565b6040516001600160a01b0390911681526020015b60405180910390f35b61016561019a3660046124be565b610431565b61016f6101ad366004612484565b6035602052600090815260409020546001600160a01b031681565b6101656101d636600461269b565b610463565b60375461016f906001600160a01b031681565b60345461016f906001600160a01b031681565b61016561020f36600461269b565b6104a3565b61021d60385481565b604051908152602001610183565b610165610706565b61021d610241366004612484565b6107ac565b61016561025436600461259f565b6108f3565b6101656102673660046124f7565b610aba565b610165610bc1565b6101656102823660046126e9565b610e4f565b610165610295366004612484565b61101a565b6102c86102a8366004612484565b6001600160a01b0390811660009081526035602052604090205416151590565b6040519015158152602001610183565b6101656110a7565b6102c8611160565b6101656102f63660046126e9565b611191565b610165610309366004612484565b6111f6565b61016561031c36600461265a565b61129a565b60335461016f906001600160a01b031681565b610165611574565b6034546001600160a01b0316331461036f5760405162461bcd60e51b8152600401610366906127d1565b60405180910390fd5b600080516020612ac3833981519152805460028114156103a15760405162461bcd60e51b81526004016103669061288d565b60028255609e54603454604051639faceb1b60e01b81523060048201526001600160a01b039182166024820152911690639faceb1b90604401600060405180830381600087803b1580156103f457600080fd5b505af1158015610408573d6000803e3d6000fd5b50505050600182555050565b600061042c600080516020612ae38339815191525490565b905090565b610439611160565b6104555760405162461bcd60e51b815260040161036690612808565b61045f828261185d565b5050565b61046b611160565b6104875760405162461bcd60e51b815260040161036690612808565b61045f610492610414565b6001600160a01b03841690836119c2565b6034546001600160a01b031633146104cd5760405162461bcd60e51b8152600401610366906127d1565b600080516020612ac3833981519152805460028114156104ff5760405162461bcd60e51b81526004016103669061288d565b600282556000831161054c5760405162461bcd60e51b81526020600482015260166024820152754d757374206465706f73697420736f6d657468696e6760501b6044820152606401610366565b603354604080516001600160a01b03928316815260208101869052918616917f5548c837ab068cf56a2c2479df0882a4922fd203edb7517321831d95078c5f62910160405180910390a261059e61241a565b60006105a986611a2a565b9050848282600281106105be576105be612a97565b60200201526033546001600160a01b031660006105da88611ac5565b90506000610664836001600160a01b031663bb7b8b806040518163ffffffff1660e01b815260040160206040518083038186803b15801561061a57600080fd5b505afa15801561062e573d6000803e3d6000fd5b505050506040513d601f19601f820116820180604052508101906106529190612702565b61065e8a601286611bb4565b90611c18565b9050600061068b610684662386f26fc10000670de0b6b3a7640000612a0d565b8390611c41565b604051630b4c7e4d60e01b81529091506001600160a01b03851690630b4c7e4d906106bc9089908590600401612783565b600060405180830381600087803b1580156106d657600080fd5b505af11580156106ea573d6000803e3d6000fd5b505050506106f6611c56565b5050505050506001825550505050565b7f1973cae3d8695cb4c31dce9679edb790944900898ecc70570ba365e7de143b0a546001600160a01b0316336001600160a01b0316146107a15760405162461bcd60e51b815260206004820152603060248201527f4f6e6c79207468652070656e64696e6720476f7665726e6f722063616e20636f60448201526f6d706c6574652074686520636c61696d60801b6064820152608401610366565b6107aa33611d3b565b565b6001600160a01b038181166000908152603560205260408120549091166108095760405162461bcd60e51b8152602060048201526011602482015270155b9cdd5c1c1bdc9d195908185cdcd95d607a1b6044820152606401610366565b6000610813611dff565b6033549093506001600160a01b031691505081156108ec576000816001600160a01b031663bb7b8b806040518163ffffffff1660e01b815260040160206040518083038186803b15801561086657600080fd5b505afa15801561087a573d6000803e3d6000fd5b505050506040513d601f19601f8201168201806040525081019061089e9190612702565b90506000670de0b6b3a76400006108b583866129ee565b6108bf91906128e1565b905060006108cc87611ac5565b905060026108dc83836012611bb4565b6108e691906128e1565b95505050505b5050919050565b6108fb611160565b6109175760405162461bcd60e51b815260040161036690612808565b600054610100900460ff1680610930575060005460ff16155b61094c5760405162461bcd60e51b81526004016103669061283f565b600054610100900460ff1615801561096e576000805461ffff19166101011790555b600285146109be5760405162461bcd60e51b815260206004820152601c60248201527f4d75737420686176652065786163746c792074776f20617373657473000000006044820152606401610366565b609e80546001600160a01b0319166001600160a01b03841617905583836000816109ea576109ea612a97565b90506020020160208101906109ff9190612484565b609d60006101000a8154816001600160a01b0302191690836001600160a01b03160217905550610a9589898989898080602002602001604051908101604052809392919081815260200183836020028082843760009201919091525050604080516020808d0282810182019093528c82529093508c92508b918291850190849080828437600092019190915250611f1192505050565b610a9d611ff9565b8015610aaf576000805461ff00191690555b505050505050505050565b610ac2611160565b610ade5760405162461bcd60e51b815260040161036690612808565b600054610100900460ff1680610af7575060005460ff16155b610b135760405162461bcd60e51b81526004016103669061283f565b600054610100900460ff16158015610b35576000805461ffff19166101011790555b610ba588888888888080602002602001604051908101604052809392919081815260200183836020028082843760009201919091525050604080516020808c0282810182019093528b82529093508b92508a918291850190849080828437600092019190915250611f1192505050565b8015610bb7576000805461ff00191690555b5050505050505050565b6034546001600160a01b0316331480610bf25750610bdd610414565b6001600160a01b0316336001600160a01b0316145b610c4a5760405162461bcd60e51b815260206004820152602360248201527f43616c6c6572206973206e6f7420746865205661756c74206f7220476f7665726044820152623737b960e91b6064820152608401610366565b600080516020612ac383398151915280546002811415610c7c5760405162461bcd60e51b81526004016103669061288d565b60028255600080610c8b611dff565b9250925050610c998261206c565b6040805180820182526000808252602082015260335491516316cd8e2760e21b815290916001600160a01b0316908190635b36389c90610cdf90869086906004016128b5565b600060405180830381600087803b158015610cf957600080fd5b505af1158015610d0d573d6000803e3d6000fd5b5050505060005b603654811015610e425760405163c661065760e01b8152600481018290526000906001600160a01b0384169063c66106579060240160206040518083038186803b158015610d6157600080fd5b505afa158015610d75573d6000803e3d6000fd5b505050506040513d601f19601f82011682018060405250810190610d9991906124a1565b6034546040516370a0823160e01b8152306004820152919250610e2f916001600160a01b03918216918416906370a082319060240160206040518083038186803b158015610de657600080fd5b505afa158015610dfa573d6000803e3d6000fd5b505050506040513d601f19601f82011682018060405250810190610e1e9190612702565b6001600160a01b03841691906119c2565b5080610e3a81612a50565b915050610d14565b5050505050600182555050565b610e57611160565b610e735760405162461bcd60e51b815260040161036690612808565b6036548110610eb45760405162461bcd60e51b815260206004820152600d60248201526c092dcecc2d8d2c840d2dcc8caf609b1b6044820152606401610366565b600060368281548110610ec957610ec9612a97565b60009182526020808320909101546001600160a01b03908116808452603590925260409092205460365491935090911690610f0690600190612a0d565b831015610f885760368054610f1d90600190612a0d565b81548110610f2d57610f2d612a97565b600091825260209091200154603680546001600160a01b039092169185908110610f5957610f59612a97565b9060005260206000200160006101000a8154816001600160a01b0302191690836001600160a01b031602179055505b6036805480610f9957610f99612a81565b60008281526020808220600019908401810180546001600160a01b031990811690915593019093556001600160a01b038581168083526035855260409283902080549094169093559051908416815290917f16b7600acff27e39a8a96056b3d533045298de927507f5c1d97e4accde60488c910160405180910390a2505050565b611022611160565b61103e5760405162461bcd60e51b815260040161036690612808565b603754604080516001600160a01b03928316815291831660208301527f6000690cf6fd1e69830cc1142bc52655402f4a58db681849f61c3c8fb322ff8a910160405180910390a1603780546001600160a01b0319166001600160a01b0392909216919091179055565b6110af611160565b6110cb5760405162461bcd60e51b815260040161036690612808565b600080516020612ac3833981519152805460028114156110fd5760405162461bcd60e51b81526004016103669061288d565b60028255611109611ff9565b60005b603654811015611158576111466036828154811061112c5761112c612a97565b6000918252602090912001546001600160a01b031661209d565b8061115081612a50565b91505061110c565b505060019055565b6000611178600080516020612ae38339815191525490565b6001600160a01b0316336001600160a01b031614905090565b611199611160565b6111b55760405162461bcd60e51b815260040161036690612808565b60385460408051918252602082018390527f01538952e8f491e3569a11bf3935ca2fa917ea85ec938dac52e696fbb76d8cc6910160405180910390a1603855565b6111fe611160565b61121a5760405162461bcd60e51b815260040161036690612808565b611242817f1973cae3d8695cb4c31dce9679edb790944900898ecc70570ba365e7de143b0a55565b806001600160a01b0316611262600080516020612ae38339815191525490565b6001600160a01b03167fa39cc5eb22d0f34d8beaefee8a3f17cc229c1a1d1ef87a5ad47313487b1c4f0d60405160405180910390a350565b6034546001600160a01b031633146112c45760405162461bcd60e51b8152600401610366906127d1565b600080516020612ac3833981519152805460028114156112f65760405162461bcd60e51b81526004016103669061288d565b600282556000831161133b5760405162461bcd60e51b815260206004820152600e60248201526d125b9d985b1a5908185b5bdd5b9d60921b6044820152606401610366565b6001600160a01b0384811660008181526035602090815260409182902054825194168452830186905290917f2717ead6b9200dd235aad468c9809ea400fe33ac69b5bfaa6d3e90fc922b6398910160405180910390a260008061139c611dff565b925050915060006113ac87611a2a565b60335460405163cc2b27d760e01b815260048101859052600f83900b602482015291925082916001600160a01b0390911690600090829063cc2b27d79060440160206040518083038186803b15801561140457600080fd5b505afa158015611418573d6000803e3d6000fd5b505050506040513d601f19601f8201168201806040525081019061143c9190612702565b905060008161144b8b886129ee565b61145591906128e1565b90508086116114a65760405162461bcd60e51b815260206004820152601f60248201527f496e73756666696369656e7420555344432d55534443652062616c616e6365006044820152606401610366565b808710156114c0576114c06114bb8883612a0d565b61206c565b60408051808201909152600080825260208201528a8187600281106114e7576114e7612a97565b602002015260405163e310327360e01b81526001600160a01b0385169063e31032739061151a9084908690600401612783565b600060405180830381600087803b15801561153457600080fd5b505af1158015611548573d6000803e3d6000fd5b50611561925050506001600160a01b038d168e8d6119c2565b5050505050505050600182555050505050565b6034546001600160a01b0316331461159e5760405162461bcd60e51b8152600401610366906127d1565b600080516020612ac3833981519152805460028114156115d05760405162461bcd60e51b81526004016103669061288d565b60028255604080518082018252600080825260208083018290526033548451630176f71760e71b81529451939492936001600160a01b03909116928492849263bb7b8b80926004808201939291829003018186803b15801561163157600080fd5b505afa158015611645573d6000803e3d6000fd5b505050506040513d601f19601f820116820180604052508101906116699190612702565b905060005b6036548110156117cc5760006036828154811061168d5761168d612a97565b60009182526020822001546040516370a0823160e01b81523060048201526001600160a01b03909116925082906370a082319060240160206040518083038186803b1580156116db57600080fd5b505afa1580156116ef573d6000803e3d6000fd5b505050506040513d601f19601f820116820180604052508101906117139190612702565b905080156117b757600061172683611a2a565b90508188826002811061173b5761173b612a97565b6020020152600061174b84611ac5565b905061175d8661065e85601285611bb4565b61176790896128c9565b603354604080516001600160a01b03928316815260208101879052929a50908616917f5548c837ab068cf56a2c2479df0882a4922fd203edb7517321831d95078c5f62910160405180910390a250505b505080806117c490612a50565b91505061166e565b5060006117f26117eb662386f26fc10000670de0b6b3a7640000612a0d565b8590611c41565b604051630b4c7e4d60e01b81529091506001600160a01b03841690630b4c7e4d906118239088908590600401612783565b600060405180830381600087803b15801561183d57600080fd5b505af1158015611851573d6000803e3d6000fd5b50505050610e42611c56565b6001600160a01b0382811660009081526035602052604090205416156118ba5760405162461bcd60e51b81526020600482015260126024820152711c151bdad95b88185b1c9958591e481cd95d60721b6044820152606401610366565b6001600160a01b038216158015906118da57506001600160a01b03811615155b61191a5760405162461bcd60e51b8152602060048201526011602482015270496e76616c69642061646472657373657360781b6044820152606401610366565b6001600160a01b03828116600081815260356020908152604080832080549587166001600160a01b031996871681179091556036805460018101825594527f4a11f94e20a93c79f6ec743a1954ec4fc2c08429ae2122118bf234b2185c81b890930180549095168417909455925190815290917fef6485b84315f9b1483beffa32aae9a0596890395e3d7521f1c5fbb51790e765910160405180910390a261045f82826120d6565b6040516001600160a01b038316602482015260448101829052611a2590849063a9059cbb60e01b906064015b60408051601f198184030181529190526020810180516001600160e01b03166001600160e01b0319909316929092179091526120df565b505050565b6000805b6002811015611a8757826001600160a01b031660368281548110611a5457611a54612a97565b6000918252602090912001546001600160a01b03161415611a755792915050565b80611a7f81612a50565b915050611a2e565b5060405162461bcd60e51b8152602060048201526012602482015271125b9d985b1a59081c1bdbdb08185cdcd95d60721b6044820152606401610366565b600080826001600160a01b031663313ce5676040518163ffffffff1660e01b815260040160206040518083038186803b158015611b0157600080fd5b505afa158015611b15573d6000803e3d6000fd5b505050506040513d601f19601f82011682018060405250810190611b39919061271b565b60ff16905060048110158015611b50575060128111155b611bae5760405162461bcd60e51b815260206004820152602960248201527f546f6b656e206d75737420686176652073756666696369656e7420646563696d604482015268616c20706c6163657360b81b6064820152608401610366565b92915050565b600081831115611be457611bdd611bcb8385612a0d565b611bd690600a612946565b85906121b1565b9350611c0e565b81831015611c0e57611c0b611bf98484612a0d565b611c0490600a612946565b85906121bd565b93505b50825b9392505050565b600080611c2d84670de0b6b3a76400006121b1565b9050611c3981846121bd565b949350505050565b6000611c118383670de0b6b3a76400006121c9565b609d54609e546040516370a0823160e01b81523060048201526001600160a01b039283169290911690636e553f659083906370a082319060240160206040518083038186803b158015611ca857600080fd5b505afa158015611cbc573d6000803e3d6000fd5b505050506040513d601f19601f82011682018060405250810190611ce09190612702565b6040516001600160e01b031960e084901b16815260048101919091523060248201526044015b600060405180830381600087803b158015611d2057600080fd5b505af1158015611d34573d6000803e3d6000fd5b5050505050565b6001600160a01b038116611d915760405162461bcd60e51b815260206004820152601a60248201527f4e657720476f7665726e6f7220697320616464726573732830290000000000006044820152606401610366565b806001600160a01b0316611db1600080516020612ae38339815191525490565b6001600160a01b03167fc7c0c772add429241571afb3805861fb3cfa2af374534088b76cdb4325a87e9a60405160405180910390a3611dfc81600080516020612ae383398151915255565b50565b609d546040516370a0823160e01b8152306004820152600091829182916001600160a01b0316906370a082319060240160206040518083038186803b158015611e4757600080fd5b505afa158015611e5b573d6000803e3d6000fd5b505050506040513d601f19601f82011682018060405250810190611e7f9190612702565b609e546040516370a0823160e01b81523060048201529194506001600160a01b03169081906370a082319060240160206040518083038186803b158015611ec557600080fd5b505afa158015611ed9573d6000803e3d6000fd5b505050506040513d601f19601f82011682018060405250810190611efd9190612702565b9250611f0983856128c9565b915050909192565b603380546001600160a01b038088166001600160a01b031992831617909255603480548784169083161790556037805492861692909116919091179055815181518114611f975760405162461bcd60e51b8152602060048201526014602482015273496e76616c696420696e7075742061727261797360601b6044820152606401610366565b60005b81811015611ff057611fde848281518110611fb757611fb7612a97565b6020026020010151848381518110611fd157611fd1612a97565b602002602001015161185d565b80611fe881612a50565b915050611f9a565b50505050505050565b609d546033546001600160a01b03918216916120199183911660006121eb565b603354612035906001600160a01b0383811691166000196121eb565b609e54612050906001600160a01b03838116911660006121eb565b609e54611dfc906001600160a01b0383811691166000196121eb565b609e54604051632e1a7d4d60e01b8152600481018390526001600160a01b0390911690632e1a7d4d90602401611d06565b60335481906120ba906001600160a01b03808416911660006121eb565b60335461045f906001600160a01b0383811691166000196121eb565b61045f8261209d565b6000612134826040518060400160405280602081526020017f5361666545524332303a206c6f772d6c6576656c2063616c6c206661696c6564815250856001600160a01b031661230f9092919063ffffffff16565b805190915015611a25578080602001905181019061215291906126c7565b611a255760405162461bcd60e51b815260206004820152602a60248201527f5361666545524332303a204552433230206f7065726174696f6e20646964206e6044820152691bdd081cdd58d8d9595960b21b6064820152608401610366565b6000611c1182846129ee565b6000611c1182846128e1565b6000806121d685856121b1565b90506121e281846121bd565b95945050505050565b8015806122745750604051636eb1769f60e11b81523060048201526001600160a01b03838116602483015284169063dd62ed3e9060440160206040518083038186803b15801561223a57600080fd5b505afa15801561224e573d6000803e3d6000fd5b505050506040513d601f19601f820116820180604052508101906122729190612702565b155b6122df5760405162461bcd60e51b815260206004820152603660248201527f5361666545524332303a20617070726f76652066726f6d206e6f6e2d7a65726f60448201527520746f206e6f6e2d7a65726f20616c6c6f77616e636560501b6064820152608401610366565b6040516001600160a01b038316602482015260448101829052611a2590849063095ea7b360e01b906064016119ee565b6060611c39848460008585843b6123685760405162461bcd60e51b815260206004820152601d60248201527f416464726573733a2063616c6c20746f206e6f6e2d636f6e74726163740000006044820152606401610366565b600080866001600160a01b031685876040516123849190612767565b60006040518083038185875af1925050503d80600081146123c1576040519150601f19603f3d011682016040523d82523d6000602084013e6123c6565b606091505b50915091506123d68282866123e1565b979650505050505050565b606083156123f0575081611c11565b8251156124005782518084602001fd5b8160405162461bcd60e51b8152600401610366919061279e565b60405180604001604052806002906020820280368337509192915050565b60008083601f84011261244a57600080fd5b50813567ffffffffffffffff81111561246257600080fd5b6020830191508360208260051b850101111561247d57600080fd5b9250929050565b60006020828403121561249657600080fd5b8135611c1181612aad565b6000602082840312156124b357600080fd5b8151611c1181612aad565b600080604083850312156124d157600080fd5b82356124dc81612aad565b915060208301356124ec81612aad565b809150509250929050565b600080600080600080600060a0888a03121561251257600080fd5b873561251d81612aad565b9650602088013561252d81612aad565b9550604088013561253d81612aad565b9450606088013567ffffffffffffffff8082111561255a57600080fd5b6125668b838c01612438565b909650945060808a013591508082111561257f57600080fd5b5061258c8a828b01612438565b989b979a50959850939692959293505050565b60008060008060008060008060c0898b0312156125bb57600080fd5b88356125c681612aad565b975060208901356125d681612aad565b965060408901356125e681612aad565b9550606089013567ffffffffffffffff8082111561260357600080fd5b61260f8c838d01612438565b909750955060808b013591508082111561262857600080fd5b506126358b828c01612438565b90945092505060a089013561264981612aad565b809150509295985092959890939650565b60008060006060848603121561266f57600080fd5b833561267a81612aad565b9250602084013561268a81612aad565b929592945050506040919091013590565b600080604083850312156126ae57600080fd5b82356126b981612aad565b946020939093013593505050565b6000602082840312156126d957600080fd5b81518015158114611c1157600080fd5b6000602082840312156126fb57600080fd5b5035919050565b60006020828403121561271457600080fd5b5051919050565b60006020828403121561272d57600080fd5b815160ff81168114611c1157600080fd5b8060005b6002811015612761578151845260209384019390910190600101612742565b50505050565b60008251612779818460208701612a24565b9190910192915050565b60608101612791828561273e565b8260408301529392505050565b60208152600082518060208401526127bd816040850160208701612a24565b601f01601f19169190910160400192915050565b60208082526017908201527f43616c6c6572206973206e6f7420746865205661756c74000000000000000000604082015260600190565b6020808252601a908201527f43616c6c6572206973206e6f742074686520476f7665726e6f72000000000000604082015260600190565b6020808252602e908201527f496e697469616c697a61626c653a20636f6e747261637420697320616c72656160408201526d191e481a5b9a5d1a585b1a5e995960921b606082015260800190565b6020808252600e908201526d1499595b9d1c985b9d0818d85b1b60921b604082015260600190565b82815260608101611c11602083018461273e565b600082198211156128dc576128dc612a6b565b500190565b6000826128fe57634e487b7160e01b600052601260045260246000fd5b500490565b600181815b8085111561293e57816000190482111561292457612924612a6b565b8085161561293157918102915b93841c9390800290612908565b509250929050565b6000611c11838360008261295c57506001611bae565b8161296957506000611bae565b816001811461297f5760028114612989576129a5565b6001915050611bae565b60ff84111561299a5761299a612a6b565b50506001821b611bae565b5060208310610133831016604e8410600b84101617156129c8575081810a611bae565b6129d28383612903565b80600019048211156129e6576129e6612a6b565b029392505050565b6000816000190483118215151615612a0857612a08612a6b565b500290565b600082821015612a1f57612a1f612a6b565b500390565b60005b83811015612a3f578181015183820152602001612a27565b838111156127615750506000910152565b6000600019821415612a6457612a64612a6b565b5060010190565b634e487b7160e01b600052601160045260246000fd5b634e487b7160e01b600052603160045260246000fd5b634e487b7160e01b600052603260045260246000fd5b6001600160a01b0381168114611dfc57600080fdfe218adab1852f0bdeacb3305483cf296dbcf6abf496f646284463c8e6a43fa665fe7bb572d5723516ce4fe7a6a664f5adb38f5714efcd271411ed70a34d3ef2f7a264697066735822122093eb350d34eb64d19241b2f915150f572482fc10d04088653702b8a7d38d6d3564736f6c63430008070033fe7bb572d5723516ce4fe7a6a664f5adb38f5714efcd271411ed70a34d3ef2f7",
  "devdoc": {
    "kind": "dev",
    "methods": {
      "checkBalance(address)": {
        "details": "Get the total asset value held in the platform",
        "params": {
          "_asset": "Address of the asset"
        },
        "returns": {
          "balance": "   Total value of the asset in the platform"
        }
      },
      "claimGovernance()": {
        "details": "Claim Governance of the contract to a new account (`newGovernor`). Can only be called by the new Governor."
      },
      "collectRewardToken()": {
        "details": "Collect accumulated rewards and send to Vault."
      },
      "deposit(address,uint256)": {
        "details": "Deposit asset into the Curve Pool",
        "params": {
          "_amount": "Amount of asset to deposit",
          "_asset": "Address of asset to deposit"
        }
      },
      "depositAll()": {
        "details": "Deposit the entire balance of any supported asset into the Curve pool"
      },
      "governor()": {
        "details": "Returns the address of the current Governor."
      },
      "initialize(address,address,address,address[],address[])": {
        "details": "Internal initialize function, to set up initial internal state",
        "params": {
          "_assets": "Addresses of initial supported assets",
          "_pTokens": "Platform Token corresponding addresses",
          "_platformAddress": "Generic platform address",
          "_rewardTokenAddress": "Address of reward token for platform",
          "_vaultAddress": "Address of the Vault"
        }
      },
      "initialize(address,address,address,address[],address[],address)": {
        "params": {
          "_assets": "Addresses of supported assets. MUST be passed in the same                order as returned by coins on the pool contract, i.e.                USDC, USDCe",
          "_crvGaugeAddress": "Address of the Curve DAO gauge for this pool",
          "_pTokens": "Platform Token corresponding addresses",
          "_platformAddress": "Address of the Curve pool",
          "_rewardTokenAddress": "Address of reward",
          "_vaultAddress": "Address of the vault"
        }
      },
      "isGovernor()": {
        "details": "Returns true if the caller is the current Governor."
      },
      "removePToken(uint256)": {
        "details": "Remove a supported asset by passing its index.      This method can only be called by the system Governor",
        "params": {
          "_assetIndex": "Index of the asset to be removed"
        }
      },
      "safeApproveAllTokens()": {
        "details": "Approve the spending of all assets by their corresponding pool tokens,      if for some reason is it necessary."
      },
      "setPTokenAddress(address,address)": {
        "details": "Provide support for asset by passing its pToken address.      This method can only be called by the system Governor",
        "params": {
          "_asset": "Address for the asset",
          "_pToken": "Address for the corresponding platform token"
        }
      },
      "setRewardLiquidationThreshold(uint256)": {
        "details": "Set the reward token liquidation threshold.",
        "params": {
          "_threshold": "Threshold amount in decimals of reward token that will cause the Vault to claim and withdrawAll on allocate() calls."
        }
      },
      "setRewardTokenAddress(address)": {
        "details": "Set the reward token address.",
        "params": {
          "_rewardTokenAddress": "Address of the reward token"
        }
      },
      "supportsAsset(address)": {
        "details": "Retuns bool indicating whether asset is supported by strategy",
        "params": {
          "_asset": "Address of the asset"
        }
      },
      "transferGovernance(address)": {
        "details": "Transfers Governance of the contract to a new account (`newGovernor`). Can only be called by the current Governor. Must be claimed for this to complete",
        "params": {
          "_newGovernor": "Address of the new Governor"
        }
      },
      "transferToken(address,uint256)": {
        "details": "Transfer token to governor. Intended for recovering tokens stuck in      strategy contracts, i.e. mistaken sends.",
        "params": {
          "_amount": "Amount of the asset to transfer",
          "_asset": "Address for the asset"
        }
      },
      "withdraw(address,address,uint256)": {
        "details": "Withdraw asset from Curve Pool",
        "params": {
          "_amount": "Amount of asset to withdraw",
          "_asset": "Address of asset to withdraw",
          "_recipient": "Address to receive withdrawn asset"
        }
      },
      "withdrawAll()": {
        "details": "Remove all assets from platform and send them to Vault contract."
      }
    },
    "version": 1
  },
  "userdoc": {
    "kind": "user",
    "methods": {
      "initialize(address,address,address,address[],address[],address)": {
        "notice": "Initializer for setting up strategy internal state. This overrides the InitializableAbstractStrategy initializer as Curve strategies don't fit well within that abstraction."
      }
    },
    "version": 1
  },
  "storageLayout": {
    "storage": [
      {
        "astId": 12134,
        "contract": "contracts/strategies/CurvePoolStrategy.sol:CurveUsdcStrategy",
        "label": "initialized",
        "offset": 0,
        "slot": "0",
        "type": "t_bool"
      },
      {
        "astId": 12137,
        "contract": "contracts/strategies/CurvePoolStrategy.sol:CurveUsdcStrategy",
        "label": "initializing",
        "offset": 1,
        "slot": "0",
        "type": "t_bool"
      },
      {
        "astId": 12177,
        "contract": "contracts/strategies/CurvePoolStrategy.sol:CurveUsdcStrategy",
        "label": "______gap",
        "offset": 0,
        "slot": "1",
        "type": "t_array(t_uint256)50_storage"
      },
      {
        "astId": 12249,
        "contract": "contracts/strategies/CurvePoolStrategy.sol:CurveUsdcStrategy",
        "label": "platformAddress",
        "offset": 0,
        "slot": "51",
        "type": "t_address"
      },
      {
        "astId": 12251,
        "contract": "contracts/strategies/CurvePoolStrategy.sol:CurveUsdcStrategy",
        "label": "vaultAddress",
        "offset": 0,
        "slot": "52",
        "type": "t_address"
      },
      {
        "astId": 12255,
        "contract": "contracts/strategies/CurvePoolStrategy.sol:CurveUsdcStrategy",
        "label": "assetToPToken",
        "offset": 0,
        "slot": "53",
        "type": "t_mapping(t_address,t_address)"
      },
      {
        "astId": 12258,
        "contract": "contracts/strategies/CurvePoolStrategy.sol:CurveUsdcStrategy",
        "label": "assetsMapped",
        "offset": 0,
        "slot": "54",
        "type": "t_array(t_address)dyn_storage"
      },
      {
        "astId": 12260,
        "contract": "contracts/strategies/CurvePoolStrategy.sol:CurveUsdcStrategy",
        "label": "rewardTokenAddress",
        "offset": 0,
        "slot": "55",
        "type": "t_address"
      },
      {
        "astId": 12262,
        "contract": "contracts/strategies/CurvePoolStrategy.sol:CurveUsdcStrategy",
        "label": "rewardLiquidationThreshold",
        "offset": 0,
        "slot": "56",
        "type": "t_uint256"
      },
      {
        "astId": 12266,
        "contract": "contracts/strategies/CurvePoolStrategy.sol:CurveUsdcStrategy",
        "label": "_reserved",
        "offset": 0,
        "slot": "57",
        "type": "t_array(t_int256)100_storage"
      },
      {
        "astId": 9182,
        "contract": "contracts/strategies/CurvePoolStrategy.sol:CurveUsdcStrategy",
        "label": "pTokenAddress",
        "offset": 0,
        "slot": "157",
        "type": "t_address"
      },
      {
        "astId": 9891,
        "contract": "contracts/strategies/CurvePoolStrategy.sol:CurveUsdcStrategy",
        "label": "crvGaugeAddress",
        "offset": 0,
        "slot": "158",
        "type": "t_address"
      }
    ],
    "types": {
      "t_address": {
        "encoding": "inplace",
        "label": "address",
        "numberOfBytes": "20"
      },
      "t_array(t_address)dyn_storage": {
        "base": "t_address",
        "encoding": "dynamic_array",
        "label": "address[]",
        "numberOfBytes": "32"
      },
      "t_array(t_int256)100_storage": {
        "base": "t_int256",
        "encoding": "inplace",
        "label": "int256[100]",
        "numberOfBytes": "3200"
      },
      "t_array(t_uint256)50_storage": {
        "base": "t_uint256",
        "encoding": "inplace",
        "label": "uint256[50]",
        "numberOfBytes": "1600"
      },
      "t_bool": {
        "encoding": "inplace",
        "label": "bool",
        "numberOfBytes": "1"
      },
      "t_int256": {
        "encoding": "inplace",
        "label": "int256",
        "numberOfBytes": "32"
      },
      "t_mapping(t_address,t_address)": {
        "encoding": "mapping",
        "key": "t_address",
        "label": "mapping(address => address)",
        "numberOfBytes": "32",
        "value": "t_address"
      },
      "t_uint256": {
        "encoding": "inplace",
        "label": "uint256",
        "numberOfBytes": "32"
      }
    }
  }
}