{
  "address": "0xf6561cf3B2Ef18cE38352C173Ff55689D3060E9c",
  "abi": [
    {
      "anonymous": false,
      "inputs": [
        {
          "indexed": true,
          "internalType": "address",
          "name": "_asset",
          "type": "address"
        },
        {
          "indexed": false,
          "internalType": "address",
          "name": "_pToken",
          "type": "address"
        },
        {
          "indexed": false,
          "internalType": "uint256",
          "name": "_amount",
          "type": "uint256"
        }
      ],
      "name": "Deposit",
      "type": "event"
    },
    {
      "anonymous": false,
      "inputs": [
        {
          "indexed": true,
          "internalType": "address",
          "name": "previousGovernor",
          "type": "address"
        },
        {
          "indexed": true,
          "internalType": "address",
          "name": "newGovernor",
          "type": "address"
        }
      ],
      "name": "GovernorshipTransferred",
      "type": "event"
    },
    {
      "anonymous": false,
      "inputs": [
        {
          "indexed": true,
          "internalType": "address",
          "name": "_asset",
          "type": "address"
        },
        {
          "indexed": false,
          "internalType": "address",
          "name": "_pToken",
          "type": "address"
        }
      ],
      "name": "PTokenAdded",
      "type": "event"
    },
    {
      "anonymous": false,
      "inputs": [
        {
          "indexed": true,
          "internalType": "address",
          "name": "_asset",
          "type": "address"
        },
        {
          "indexed": false,
          "internalType": "address",
          "name": "_pToken",
          "type": "address"
        }
      ],
      "name": "PTokenRemoved",
      "type": "event"
    },
    {
      "anonymous": false,
      "inputs": [
        {
          "indexed": true,
          "internalType": "address",
          "name": "previousGovernor",
          "type": "address"
        },
        {
          "indexed": true,
          "internalType": "address",
          "name": "newGovernor",
          "type": "address"
        }
      ],
      "name": "PendingGovernorshipTransfer",
      "type": "event"
    },
    {
      "anonymous": false,
      "inputs": [
        {
          "indexed": false,
          "internalType": "uint256",
          "name": "_oldThreshold",
          "type": "uint256"
        },
        {
          "indexed": false,
          "internalType": "uint256",
          "name": "_newThreshold",
          "type": "uint256"
        }
      ],
      "name": "RewardLiquidationThresholdUpdated",
      "type": "event"
    },
    {
      "anonymous": false,
      "inputs": [
        {
          "indexed": false,
          "internalType": "address",
          "name": "_oldAddress",
          "type": "address"
        },
        {
          "indexed": false,
          "internalType": "address",
          "name": "_newAddress",
          "type": "address"
        }
      ],
      "name": "RewardTokenAddressUpdated",
      "type": "event"
    },
    {
      "anonymous": false,
      "inputs": [
        {
          "indexed": false,
          "internalType": "address[]",
          "name": "_oldAddresses",
          "type": "address[]"
        },
        {
          "indexed": false,
          "internalType": "address[]",
          "name": "_newAddresses",
          "type": "address[]"
        }
      ],
      "name": "RewardTokenAddressesUpdated",
      "type": "event"
    },
    {
      "anonymous": false,
      "inputs": [
        {
          "indexed": false,
          "internalType": "address",
          "name": "recipient",
          "type": "address"
        },
        {
          "indexed": false,
          "internalType": "address",
          "name": "rewardToken",
          "type": "address"
        },
        {
          "indexed": false,
          "internalType": "uint256",
          "name": "amount",
          "type": "uint256"
        }
      ],
      "name": "RewardTokenCollected",
      "type": "event"
    },
    {
      "anonymous": false,
      "inputs": [
        {
          "indexed": true,
          "internalType": "address",
          "name": "_asset",
          "type": "address"
        },
        {
          "indexed": false,
          "internalType": "address",
          "name": "_pToken",
          "type": "address"
        },
        {
          "indexed": false,
          "internalType": "uint256",
          "name": "_amount",
          "type": "uint256"
        }
      ],
      "name": "Withdrawal",
      "type": "event"
    },
    {
      "inputs": [],
      "name": "_deprecated_rewardTokenAddress",
      "outputs": [
        {
          "internalType": "address",
          "name": "",
          "type": "address"
        }
      ],
      "stateMutability": "view",
      "type": "function"
    },
    {
      "inputs": [
        {
          "internalType": "address",
          "name": "",
          "type": "address"
        }
      ],
      "name": "assetToPToken",
      "outputs": [
        {
          "internalType": "address",
          "name": "",
          "type": "address"
        }
      ],
      "stateMutability": "view",
      "type": "function"
    },
    {
      "inputs": [
        {
          "internalType": "address",
          "name": "_asset",
          "type": "address"
        }
      ],
      "name": "checkBalance",
      "outputs": [
        {
          "internalType": "uint256",
          "name": "balance",
          "type": "uint256"
        }
      ],
      "stateMutability": "view",
      "type": "function"
    },
    {
      "inputs": [],
      "name": "claimGovernance",
      "outputs": [],
      "stateMutability": "nonpayable",
      "type": "function"
    },
    {
      "inputs": [],
      "name": "collectRewardTokens",
      "outputs": [],
      "stateMutability": "nonpayable",
      "type": "function"
    },
    {
      "inputs": [
        {
          "internalType": "address",
          "name": "_asset",
          "type": "address"
        },
        {
          "internalType": "uint256",
          "name": "_amount",
          "type": "uint256"
        }
      ],
      "name": "deposit",
      "outputs": [],
      "stateMutability": "nonpayable",
      "type": "function"
    },
    {
      "inputs": [],
      "name": "depositAll",
      "outputs": [],
      "stateMutability": "nonpayable",
      "type": "function"
    },
    {
      "inputs": [],
      "name": "getRewardTokenAddresses",
      "outputs": [
        {
          "internalType": "address[]",
          "name": "",
          "type": "address[]"
        }
      ],
      "stateMutability": "view",
      "type": "function"
    },
    {
      "inputs": [],
      "name": "governor",
      "outputs": [
        {
          "internalType": "address",
          "name": "",
          "type": "address"
        }
      ],
      "stateMutability": "view",
      "type": "function"
    },
    {
      "inputs": [
        {
          "internalType": "address",
          "name": "_platformAddress",
          "type": "address"
        },
        {
          "internalType": "address",
          "name": "_vaultAddress",
          "type": "address"
        },
        {
          "internalType": "address[]",
          "name": "_rewardTokenAddresses",
          "type": "address[]"
        },
        {
          "internalType": "address[]",
          "name": "_assets",
          "type": "address[]"
        },
        {
          "internalType": "address[]",
          "name": "_pTokens",
          "type": "address[]"
        },
        {
          "internalType": "address",
          "name": "_crvGaugeAddress",
          "type": "address"
        }
      ],
      "name": "initialize",
      "outputs": [],
      "stateMutability": "nonpayable",
      "type": "function"
    },
    {
      "inputs": [
        {
          "internalType": "address",
          "name": "_platformAddress",
          "type": "address"
        },
        {
          "internalType": "address",
          "name": "_vaultAddress",
          "type": "address"
        },
        {
          "internalType": "address[]",
          "name": "_rewardTokenAddresses",
          "type": "address[]"
        },
        {
          "internalType": "address[]",
          "name": "_assets",
          "type": "address[]"
        },
        {
          "internalType": "address[]",
          "name": "_pTokens",
          "type": "address[]"
        }
      ],
      "name": "initialize",
      "outputs": [],
      "stateMutability": "nonpayable",
      "type": "function"
    },
    {
      "inputs": [],
      "name": "isGovernor",
      "outputs": [
        {
          "internalType": "bool",
          "name": "",
          "type": "bool"
        }
      ],
      "stateMutability": "view",
      "type": "function"
    },
    {
      "inputs": [],
      "name": "platformAddress",
      "outputs": [
        {
          "internalType": "address",
          "name": "",
          "type": "address"
        }
      ],
      "stateMutability": "view",
      "type": "function"
    },
    {
      "inputs": [
        {
          "internalType": "uint256",
          "name": "_assetIndex",
          "type": "uint256"
        }
      ],
      "name": "removePToken",
      "outputs": [],
      "stateMutability": "nonpayable",
      "type": "function"
    },
    {
      "inputs": [],
      "name": "rewardLiquidationThreshold",
      "outputs": [
        {
          "internalType": "uint256",
          "name": "",
          "type": "uint256"
        }
      ],
      "stateMutability": "view",
      "type": "function"
    },
    {
      "inputs": [
        {
          "internalType": "uint256",
          "name": "",
          "type": "uint256"
        }
      ],
      "name": "rewardTokenAddresses",
      "outputs": [
        {
          "internalType": "address",
          "name": "",
          "type": "address"
        }
      ],
      "stateMutability": "view",
      "type": "function"
    },
    {
      "inputs": [],
      "name": "safeApproveAllTokens",
      "outputs": [],
      "stateMutability": "nonpayable",
      "type": "function"
    },
    {
      "inputs": [
        {
          "internalType": "address",
          "name": "_asset",
          "type": "address"
        },
        {
          "internalType": "address",
          "name": "_pToken",
          "type": "address"
        }
      ],
      "name": "setPTokenAddress",
      "outputs": [],
      "stateMutability": "nonpayable",
      "type": "function"
    },
    {
      "inputs": [
        {
          "internalType": "uint256",
          "name": "_threshold",
          "type": "uint256"
        }
      ],
      "name": "setRewardLiquidationThreshold",
      "outputs": [],
      "stateMutability": "nonpayable",
      "type": "function"
    },
    {
      "inputs": [
        {
          "internalType": "address[]",
          "name": "_rewardTokenAddresses",
          "type": "address[]"
        }
      ],
      "name": "setRewardTokenAddresses",
      "outputs": [],
      "stateMutability": "nonpayable",
      "type": "function"
    },
    {
      "inputs": [
        {
          "internalType": "address",
          "name": "_asset",
          "type": "address"
        }
      ],
      "name": "supportsAsset",
      "outputs": [
        {
          "internalType": "bool",
          "name": "",
          "type": "bool"
        }
      ],
      "stateMutability": "view",
      "type": "function"
    },
    {
      "inputs": [
        {
          "internalType": "address",
          "name": "_newGovernor",
          "type": "address"
        }
      ],
      "name": "transferGovernance",
      "outputs": [],
      "stateMutability": "nonpayable",
      "type": "function"
    },
    {
      "inputs": [
        {
          "internalType": "address",
          "name": "_asset",
          "type": "address"
        },
        {
          "internalType": "uint256",
          "name": "_amount",
          "type": "uint256"
        }
      ],
      "name": "transferToken",
      "outputs": [],
      "stateMutability": "nonpayable",
      "type": "function"
    },
    {
      "inputs": [],
      "name": "vaultAddress",
      "outputs": [
        {
          "internalType": "address",
          "name": "",
          "type": "address"
        }
      ],
      "stateMutability": "view",
      "type": "function"
    },
    {
      "inputs": [
        {
          "internalType": "address",
          "name": "_recipient",
          "type": "address"
        },
        {
          "internalType": "address",
          "name": "_asset",
          "type": "address"
        },
        {
          "internalType": "uint256",
          "name": "_amount",
          "type": "uint256"
        }
      ],
      "name": "withdraw",
      "outputs": [],
      "stateMutability": "nonpayable",
      "type": "function"
    },
    {
      "inputs": [],
      "name": "withdrawAll",
      "outputs": [],
      "stateMutability": "nonpayable",
      "type": "function"
    }
  ],
  "transactionHash": "0xa853033c9eb2760288d1d83d8b933f883b53badc3b3d34de42de8c594916161a",
  "args": [],
  "numDeployments": 2,
  "solcInputHash": "ecea130246819fa0fc6e9ca85ae9023a",
  "bytecode": "0x608060405234801561001057600080fd5b506100283360008051602062002f0883398151915255565b60008051602062002f08833981519152546040516001600160a01b03909116906000907fc7c0c772add429241571afb3805861fb3cfa2af374534088b76cdb4325a87e9a908290a3612e8880620000806000396000f3fe608060405234801561001057600080fd5b506004361061018e5760003560e01c80639136616a116100de578063c7af335211610097578063d9caed1211610071578063d9caed1214610357578063dbe55e561461036a578063de5f62681461037d578063f6ca71b01461038557600080fd5b8063c7af335214610329578063cd3b021214610331578063d38bfff41461034457600080fd5b80639136616a1461029757806395bf49cc146102aa5780639688d2fc146102bd57806396d538bb146102d0578063aa388af6146102e3578063ad1728cb1461032157600080fd5b806347e7ef241161014b5780635d36b190116101255780635d36b190146102615780635f515226146102695780637b2d9b2c1461027c578063853828b61461028f57600080fd5b806347e7ef241461022f5780635653b414146102425780635a063f631461025957600080fd5b80630c340a24146101935780630ed57b3a146101b85780630fc3b4c4146101cd5780631072cbea146101f65780632e65520114610209578063430bf08a1461021c575b600080fd5b61019b61039a565b6040516001600160a01b0390911681526020015b60405180910390f35b6101cb6101c63660046126b9565b6103b7565b005b61019b6101db36600461267f565b6035602052600090815260409020546001600160a01b031681565b6101cb6102043660046128c4565b6103f2565b60375461019b906001600160a01b031681565b60345461019b906001600160a01b031681565b6101cb61023d3660046128c4565b610432565b61024b60385481565b6040519081526020016101af565b6101cb610695565b6101cb610764565b61024b61027736600461267f565b61080a565b61019b61028a366004612954565b610951565b6101cb61097b565b6101cb6102a5366004612954565b610c09565b6101cb6102b83660046127b1565b610dd4565b6101cb6102cb3660046126f2565b610f9d565b6101cb6102de3660046128f0565b6110a6565b6103116102f136600461267f565b6001600160a01b0390811660009081526035602052604090205416151590565b60405190151581526020016101af565b6101cb6111cc565b610311611285565b6101cb61033f366004612954565b6112b6565b6101cb61035236600461267f565b61131b565b6101cb610365366004612883565b6113bf565b60335461019b906001600160a01b031681565b6101cb611699565b61038d611982565b6040516101af91906129ee565b60006103b2600080516020612e338339815191525490565b905090565b6103bf611285565b6103e45760405162461bcd60e51b81526004016103db90612b58565b60405180910390fd5b6103ee82826119e4565b5050565b6103fa611285565b6104165760405162461bcd60e51b81526004016103db90612b58565b6103ee61042161039a565b6001600160a01b0384169083611b49565b6034546001600160a01b0316331461045c5760405162461bcd60e51b81526004016103db90612b21565b600080516020612e138339815191528054600281141561048e5760405162461bcd60e51b81526004016103db90612bdd565b60028255600083116104db5760405162461bcd60e51b81526020600482015260166024820152754d757374206465706f73697420736f6d657468696e6760501b60448201526064016103db565b603354604080516001600160a01b03928316815260208101869052918616917f5548c837ab068cf56a2c2479df0882a4922fd203edb7517321831d95078c5f62910160405180910390a261052d61259d565b600061053886611bac565b90508482826002811061054d5761054d612de7565b60200201526033546001600160a01b0316600061056988611c47565b905060006105f3836001600160a01b031663bb7b8b806040518163ffffffff1660e01b815260040160206040518083038186803b1580156105a957600080fd5b505afa1580156105bd573d6000803e3d6000fd5b505050506040513d601f19601f820116820180604052508101906105e1919061296d565b6105ed8a601286611d36565b90611d9a565b9050600061061a610613662386f26fc10000670de0b6b3a7640000612d5d565b8390611dc3565b604051630b4c7e4d60e01b81529091506001600160a01b03851690630b4c7e4d9061064b9089908590600401612ad3565b600060405180830381600087803b15801561066557600080fd5b505af1158015610679573d6000803e3d6000fd5b50505050610685611dd8565b5050505050506001825550505050565b6034546001600160a01b031633146106bf5760405162461bcd60e51b81526004016103db90612b21565b600080516020612e13833981519152805460028114156106f15760405162461bcd60e51b81526004016103db90612bdd565b60028255609e54603454604051639faceb1b60e01b81523060048201526001600160a01b039182166024820152911690639faceb1b90604401600060405180830381600087803b15801561074457600080fd5b505af1158015610758573d6000803e3d6000fd5b50505050600182555050565b7f1973cae3d8695cb4c31dce9679edb790944900898ecc70570ba365e7de143b0a546001600160a01b0316336001600160a01b0316146107ff5760405162461bcd60e51b815260206004820152603060248201527f4f6e6c79207468652070656e64696e6720476f7665726e6f722063616e20636f60448201526f6d706c6574652074686520636c61696d60801b60648201526084016103db565b61080833611ebd565b565b6001600160a01b038181166000908152603560205260408120549091166108675760405162461bcd60e51b8152602060048201526011602482015270155b9cdd5c1c1bdc9d195908185cdcd95d607a1b60448201526064016103db565b6000610871611f81565b6033549093506001600160a01b0316915050811561094a576000816001600160a01b031663bb7b8b806040518163ffffffff1660e01b815260040160206040518083038186803b1580156108c457600080fd5b505afa1580156108d8573d6000803e3d6000fd5b505050506040513d601f19601f820116820180604052508101906108fc919061296d565b90506000670de0b6b3a76400006109138386612d3e565b61091d9190612c31565b9050600061092a87611c47565b9050600261093a83836012611d36565b6109449190612c31565b95505050505b5050919050565b6039818154811061096157600080fd5b6000918252602090912001546001600160a01b0316905081565b6034546001600160a01b03163314806109ac575061099761039a565b6001600160a01b0316336001600160a01b0316145b610a045760405162461bcd60e51b815260206004820152602360248201527f43616c6c6572206973206e6f7420746865205661756c74206f7220476f7665726044820152623737b960e91b60648201526084016103db565b600080516020612e1383398151915280546002811415610a365760405162461bcd60e51b81526004016103db90612bdd565b60028255600080610a45611f81565b9250925050610a5382612093565b6040805180820182526000808252602082015260335491516316cd8e2760e21b815290916001600160a01b0316908190635b36389c90610a999086908690600401612c05565b600060405180830381600087803b158015610ab357600080fd5b505af1158015610ac7573d6000803e3d6000fd5b5050505060005b603654811015610bfc5760405163c661065760e01b8152600481018290526000906001600160a01b0384169063c66106579060240160206040518083038186803b158015610b1b57600080fd5b505afa158015610b2f573d6000803e3d6000fd5b505050506040513d601f19601f82011682018060405250810190610b53919061269c565b6034546040516370a0823160e01b8152306004820152919250610be9916001600160a01b03918216918416906370a082319060240160206040518083038186803b158015610ba057600080fd5b505afa158015610bb4573d6000803e3d6000fd5b505050506040513d601f19601f82011682018060405250810190610bd8919061296d565b6001600160a01b0384169190611b49565b5080610bf481612da0565b915050610ace565b5050505050600182555050565b610c11611285565b610c2d5760405162461bcd60e51b81526004016103db90612b58565b6036548110610c6e5760405162461bcd60e51b815260206004820152600d60248201526c092dcecc2d8d2c840d2dcc8caf609b1b60448201526064016103db565b600060368281548110610c8357610c83612de7565b60009182526020808320909101546001600160a01b03908116808452603590925260409092205460365491935090911690610cc090600190612d5d565b831015610d425760368054610cd790600190612d5d565b81548110610ce757610ce7612de7565b600091825260209091200154603680546001600160a01b039092169185908110610d1357610d13612de7565b9060005260206000200160006101000a8154816001600160a01b0302191690836001600160a01b031602179055505b6036805480610d5357610d53612dd1565b60008281526020808220600019908401810180546001600160a01b031990811690915593019093556001600160a01b038581168083526035855260409283902080549094169093559051908416815290917f16b7600acff27e39a8a96056b3d533045298de927507f5c1d97e4accde60488c910160405180910390a2505050565b610ddc611285565b610df85760405162461bcd60e51b81526004016103db90612b58565b600054610100900460ff1680610e11575060005460ff16155b610e2d5760405162461bcd60e51b81526004016103db90612b8f565b600054610100900460ff16158015610e4f576000805461ffff19166101011790555b60028514610e9f5760405162461bcd60e51b815260206004820152601c60248201527f4d75737420686176652065786163746c792074776f206173736574730000000060448201526064016103db565b609e80546001600160a01b0319166001600160a01b0384161790558383600081610ecb57610ecb612de7565b9050602002016020810190610ee0919061267f565b609d60006101000a8154816001600160a01b0302191690836001600160a01b03160217905550610f778a8a8a8a8a8a8080602002602001604051908101604052809392919081815260200183836020028082843760009201919091525050604080516020808e0282810182019093528d82529093508d92508c9182918501908490808284376000920191909152506120c492505050565b610f7f6121ad565b8015610f91576000805461ff00191690555b50505050505050505050565b610fa5611285565b610fc15760405162461bcd60e51b81526004016103db90612b58565b600054610100900460ff1680610fda575060005460ff16155b610ff65760405162461bcd60e51b81526004016103db90612b8f565b600054610100900460ff16158015611018576000805461ffff19166101011790555b6110898989898989898080602002602001604051908101604052809392919081815260200183836020028082843760009201919091525050604080516020808d0282810182019093528c82529093508c92508b9182918501908490808284376000920191909152506120c492505050565b801561109b576000805461ff00191690555b505050505050505050565b6110ae611285565b6110ca5760405162461bcd60e51b81526004016103db90612b58565b60005b8181101561117e5760008383838181106110e9576110e9612de7565b90506020020160208101906110fe919061267f565b6001600160a01b0316141561116c5760405162461bcd60e51b815260206004820152602e60248201527f43616e206e6f742073657420616e20656d70747920616464726573732061732060448201526d30903932bbb0b932103a37b5b2b760911b60648201526084016103db565b8061117681612da0565b9150506110cd565b507f04c0b9649497d316554306e53678d5f5f5dbc3a06f97dec13ff4cfe98b986bbc603983836040516111b393929190612a3b565b60405180910390a16111c7603983836125bb565b505050565b6111d4611285565b6111f05760405162461bcd60e51b81526004016103db90612b58565b600080516020612e13833981519152805460028114156112225760405162461bcd60e51b81526004016103db90612bdd565b6002825561122e6121ad565b60005b60365481101561127d5761126b6036828154811061125157611251612de7565b6000918252602090912001546001600160a01b0316612220565b8061127581612da0565b915050611231565b505060019055565b600061129d600080516020612e338339815191525490565b6001600160a01b0316336001600160a01b031614905090565b6112be611285565b6112da5760405162461bcd60e51b81526004016103db90612b58565b60385460408051918252602082018390527f01538952e8f491e3569a11bf3935ca2fa917ea85ec938dac52e696fbb76d8cc6910160405180910390a1603855565b611323611285565b61133f5760405162461bcd60e51b81526004016103db90612b58565b611367817f1973cae3d8695cb4c31dce9679edb790944900898ecc70570ba365e7de143b0a55565b806001600160a01b0316611387600080516020612e338339815191525490565b6001600160a01b03167fa39cc5eb22d0f34d8beaefee8a3f17cc229c1a1d1ef87a5ad47313487b1c4f0d60405160405180910390a350565b6034546001600160a01b031633146113e95760405162461bcd60e51b81526004016103db90612b21565b600080516020612e138339815191528054600281141561141b5760405162461bcd60e51b81526004016103db90612bdd565b60028255600083116114605760405162461bcd60e51b815260206004820152600e60248201526d125b9d985b1a5908185b5bdd5b9d60921b60448201526064016103db565b6001600160a01b0384811660008181526035602090815260409182902054825194168452830186905290917f2717ead6b9200dd235aad468c9809ea400fe33ac69b5bfaa6d3e90fc922b6398910160405180910390a26000806114c1611f81565b925050915060006114d187611bac565b60335460405163cc2b27d760e01b815260048101859052600f83900b602482015291925082916001600160a01b0390911690600090829063cc2b27d79060440160206040518083038186803b15801561152957600080fd5b505afa15801561153d573d6000803e3d6000fd5b505050506040513d601f19601f82011682018060405250810190611561919061296d565b90506000816115708b88612d3e565b61157a9190612c31565b90508086116115cb5760405162461bcd60e51b815260206004820152601f60248201527f496e73756666696369656e7420555344432d55534443652062616c616e63650060448201526064016103db565b808710156115e5576115e56115e08883612d5d565b612093565b60408051808201909152600080825260208201528a81876002811061160c5761160c612de7565b602002015260405163e310327360e01b81526001600160a01b0385169063e31032739061163f9084908690600401612ad3565b600060405180830381600087803b15801561165957600080fd5b505af115801561166d573d6000803e3d6000fd5b50611686925050506001600160a01b038d168e8d611b49565b5050505050505050600182555050505050565b6034546001600160a01b031633146116c35760405162461bcd60e51b81526004016103db90612b21565b600080516020612e13833981519152805460028114156116f55760405162461bcd60e51b81526004016103db90612bdd565b60028255604080518082018252600080825260208083018290526033548451630176f71760e71b81529451939492936001600160a01b03909116928492849263bb7b8b80926004808201939291829003018186803b15801561175657600080fd5b505afa15801561176a573d6000803e3d6000fd5b505050506040513d601f19601f8201168201806040525081019061178e919061296d565b905060005b6036548110156118f1576000603682815481106117b2576117b2612de7565b60009182526020822001546040516370a0823160e01b81523060048201526001600160a01b03909116925082906370a082319060240160206040518083038186803b15801561180057600080fd5b505afa158015611814573d6000803e3d6000fd5b505050506040513d601f19601f82011682018060405250810190611838919061296d565b905080156118dc57600061184b83611bac565b90508188826002811061186057611860612de7565b6020020152600061187084611c47565b9050611882866105ed85601285611d36565b61188c9089612c19565b603354604080516001600160a01b03928316815260208101879052929a50908616917f5548c837ab068cf56a2c2479df0882a4922fd203edb7517321831d95078c5f62910160405180910390a250505b505080806118e990612da0565b915050611793565b506000611917611910662386f26fc10000670de0b6b3a7640000612d5d565b8590611dc3565b604051630b4c7e4d60e01b81529091506001600160a01b03841690630b4c7e4d906119489088908590600401612ad3565b600060405180830381600087803b15801561196257600080fd5b505af1158015611976573d6000803e3d6000fd5b50505050610bfc611dd8565b606060398054806020026020016040519081016040528092919081815260200182805480156119da57602002820191906000526020600020905b81546001600160a01b031681526001909101906020018083116119bc575b5050505050905090565b6001600160a01b038281166000908152603560205260409020541615611a415760405162461bcd60e51b81526020600482015260126024820152711c151bdad95b88185b1c9958591e481cd95d60721b60448201526064016103db565b6001600160a01b03821615801590611a6157506001600160a01b03811615155b611aa15760405162461bcd60e51b8152602060048201526011602482015270496e76616c69642061646472657373657360781b60448201526064016103db565b6001600160a01b03828116600081815260356020908152604080832080549587166001600160a01b031996871681179091556036805460018101825594527f4a11f94e20a93c79f6ec743a1954ec4fc2c08429ae2122118bf234b2185c81b890930180549095168417909455925190815290917fef6485b84315f9b1483beffa32aae9a0596890395e3d7521f1c5fbb51790e765910160405180910390a26103ee8282612259565b6040516001600160a01b0383166024820152604481018290526111c790849063a9059cbb60e01b906064015b60408051601f198184030181529190526020810180516001600160e01b03166001600160e01b031990931692909217909152612262565b6000805b6002811015611c0957826001600160a01b031660368281548110611bd657611bd6612de7565b6000918252602090912001546001600160a01b03161415611bf75792915050565b80611c0181612da0565b915050611bb0565b5060405162461bcd60e51b8152602060048201526012602482015271125b9d985b1a59081c1bdbdb08185cdcd95d60721b60448201526064016103db565b600080826001600160a01b031663313ce5676040518163ffffffff1660e01b815260040160206040518083038186803b158015611c8357600080fd5b505afa158015611c97573d6000803e3d6000fd5b505050506040513d601f19601f82011682018060405250810190611cbb9190612986565b60ff16905060048110158015611cd2575060128111155b611d305760405162461bcd60e51b815260206004820152602960248201527f546f6b656e206d75737420686176652073756666696369656e7420646563696d604482015268616c20706c6163657360b81b60648201526084016103db565b92915050565b600081831115611d6657611d5f611d4d8385612d5d565b611d5890600a612c96565b8590612334565b9350611d90565b81831015611d9057611d8d611d7b8484612d5d565b611d8690600a612c96565b8590612340565b93505b50825b9392505050565b600080611daf84670de0b6b3a7640000612334565b9050611dbb8184612340565b949350505050565b6000611d938383670de0b6b3a764000061234c565b609d54609e546040516370a0823160e01b81523060048201526001600160a01b039283169290911690636e553f659083906370a082319060240160206040518083038186803b158015611e2a57600080fd5b505afa158015611e3e573d6000803e3d6000fd5b505050506040513d601f19601f82011682018060405250810190611e62919061296d565b6040516001600160e01b031960e084901b16815260048101919091523060248201526044015b600060405180830381600087803b158015611ea257600080fd5b505af1158015611eb6573d6000803e3d6000fd5b5050505050565b6001600160a01b038116611f135760405162461bcd60e51b815260206004820152601a60248201527f4e657720476f7665726e6f72206973206164647265737328302900000000000060448201526064016103db565b806001600160a01b0316611f33600080516020612e338339815191525490565b6001600160a01b03167fc7c0c772add429241571afb3805861fb3cfa2af374534088b76cdb4325a87e9a60405160405180910390a3611f7e81600080516020612e3383398151915255565b50565b609d546040516370a0823160e01b8152306004820152600091829182916001600160a01b0316906370a082319060240160206040518083038186803b158015611fc957600080fd5b505afa158015611fdd573d6000803e3d6000fd5b505050506040513d601f19601f82011682018060405250810190612001919061296d565b609e546040516370a0823160e01b81523060048201529194506001600160a01b03169081906370a082319060240160206040518083038186803b15801561204757600080fd5b505afa15801561205b573d6000803e3d6000fd5b505050506040513d601f19601f8201168201806040525081019061207f919061296d565b925061208b8385612c19565b915050909192565b609e54604051632e1a7d4d60e01b8152600481018390526001600160a01b0390911690632e1a7d4d90602401611e88565b603380546001600160a01b038089166001600160a01b0319928316179092556034805492881692909116919091179055612100603985856125bb565b5081518151811461214a5760405162461bcd60e51b8152602060048201526014602482015273496e76616c696420696e7075742061727261797360601b60448201526064016103db565b60005b818110156121a35761219184828151811061216a5761216a612de7565b602002602001015184838151811061218457612184612de7565b60200260200101516119e4565b8061219b81612da0565b91505061214d565b5050505050505050565b609d546033546001600160a01b03918216916121cd91839116600061236e565b6033546121e9906001600160a01b03838116911660001961236e565b609e54612204906001600160a01b038381169116600061236e565b609e54611f7e906001600160a01b03838116911660001961236e565b603354819061223d906001600160a01b038084169116600061236e565b6033546103ee906001600160a01b03838116911660001961236e565b6103ee82612220565b60006122b7826040518060400160405280602081526020017f5361666545524332303a206c6f772d6c6576656c2063616c6c206661696c6564815250856001600160a01b03166124929092919063ffffffff16565b8051909150156111c757808060200190518101906122d59190612932565b6111c75760405162461bcd60e51b815260206004820152602a60248201527f5361666545524332303a204552433230206f7065726174696f6e20646964206e6044820152691bdd081cdd58d8d9595960b21b60648201526084016103db565b6000611d938284612d3e565b6000611d938284612c31565b6000806123598585612334565b90506123658184612340565b95945050505050565b8015806123f75750604051636eb1769f60e11b81523060048201526001600160a01b03838116602483015284169063dd62ed3e9060440160206040518083038186803b1580156123bd57600080fd5b505afa1580156123d1573d6000803e3d6000fd5b505050506040513d601f19601f820116820180604052508101906123f5919061296d565b155b6124625760405162461bcd60e51b815260206004820152603660248201527f5361666545524332303a20617070726f76652066726f6d206e6f6e2d7a65726f60448201527520746f206e6f6e2d7a65726f20616c6c6f77616e636560501b60648201526084016103db565b6040516001600160a01b0383166024820152604481018290526111c790849063095ea7b360e01b90606401611b75565b6060611dbb848460008585843b6124eb5760405162461bcd60e51b815260206004820152601d60248201527f416464726573733a2063616c6c20746f206e6f6e2d636f6e747261637400000060448201526064016103db565b600080866001600160a01b0316858760405161250791906129d2565b60006040518083038185875af1925050503d8060008114612544576040519150601f19603f3d011682016040523d82523d6000602084013e612549565b606091505b5091509150612559828286612564565b979650505050505050565b60608315612573575081611d93565b8251156125835782518084602001fd5b8160405162461bcd60e51b81526004016103db9190612aee565b60405180604001604052806002906020820280368337509192915050565b82805482825590600052602060002090810192821561260e579160200282015b8281111561260e5781546001600160a01b0319166001600160a01b038435161782556020909201916001909101906125db565b5061261a92915061261e565b5090565b5b8082111561261a576000815560010161261f565b60008083601f84011261264557600080fd5b50813567ffffffffffffffff81111561265d57600080fd5b6020830191508360208260051b850101111561267857600080fd5b9250929050565b60006020828403121561269157600080fd5b8135611d9381612dfd565b6000602082840312156126ae57600080fd5b8151611d9381612dfd565b600080604083850312156126cc57600080fd5b82356126d781612dfd565b915060208301356126e781612dfd565b809150509250929050565b60008060008060008060008060a0898b03121561270e57600080fd5b883561271981612dfd565b9750602089013561272981612dfd565b9650604089013567ffffffffffffffff8082111561274657600080fd5b6127528c838d01612633565b909850965060608b013591508082111561276b57600080fd5b6127778c838d01612633565b909650945060808b013591508082111561279057600080fd5b5061279d8b828c01612633565b999c989b5096995094979396929594505050565b600080600080600080600080600060c08a8c0312156127cf57600080fd5b89356127da81612dfd565b985060208a01356127ea81612dfd565b975060408a013567ffffffffffffffff8082111561280757600080fd5b6128138d838e01612633565b909950975060608c013591508082111561282c57600080fd5b6128388d838e01612633565b909750955060808c013591508082111561285157600080fd5b5061285e8c828d01612633565b90945092505060a08a013561287281612dfd565b809150509295985092959850929598565b60008060006060848603121561289857600080fd5b83356128a381612dfd565b925060208401356128b381612dfd565b929592945050506040919091013590565b600080604083850312156128d757600080fd5b82356128e281612dfd565b946020939093013593505050565b6000806020838503121561290357600080fd5b823567ffffffffffffffff81111561291a57600080fd5b61292685828601612633565b90969095509350505050565b60006020828403121561294457600080fd5b81518015158114611d9357600080fd5b60006020828403121561296657600080fd5b5035919050565b60006020828403121561297f57600080fd5b5051919050565b60006020828403121561299857600080fd5b815160ff81168114611d9357600080fd5b8060005b60028110156129cc5781518452602093840193909101906001016129ad565b50505050565b600082516129e4818460208701612d74565b9190910192915050565b6020808252825182820181905260009190848201906040850190845b81811015612a2f5783516001600160a01b031683529284019291840191600101612a0a565b50909695505050505050565b6000604082016040835280865480835260608501915087600052602092508260002060005b82811015612a855781546001600160a01b031684529284019260019182019101612a60565b505050838103828501528481528590820160005b86811015612ac7578235612aac81612dfd565b6001600160a01b031682529183019190830190600101612a99565b50979650505050505050565b60608101612ae182856129a9565b8260408301529392505050565b6020815260008251806020840152612b0d816040850160208701612d74565b601f01601f19169190910160400192915050565b60208082526017908201527f43616c6c6572206973206e6f7420746865205661756c74000000000000000000604082015260600190565b6020808252601a908201527f43616c6c6572206973206e6f742074686520476f7665726e6f72000000000000604082015260600190565b6020808252602e908201527f496e697469616c697a61626c653a20636f6e747261637420697320616c72656160408201526d191e481a5b9a5d1a585b1a5e995960921b606082015260800190565b6020808252600e908201526d1499595b9d1c985b9d0818d85b1b60921b604082015260600190565b82815260608101611d9360208301846129a9565b60008219821115612c2c57612c2c612dbb565b500190565b600082612c4e57634e487b7160e01b600052601260045260246000fd5b500490565b600181815b80851115612c8e578160001904821115612c7457612c74612dbb565b80851615612c8157918102915b93841c9390800290612c58565b509250929050565b6000611d938383600082612cac57506001611d30565b81612cb957506000611d30565b8160018114612ccf5760028114612cd957612cf5565b6001915050611d30565b60ff841115612cea57612cea612dbb565b50506001821b611d30565b5060208310610133831016604e8410600b8410161715612d18575081810a611d30565b612d228383612c53565b8060001904821115612d3657612d36612dbb565b029392505050565b6000816000190483118215151615612d5857612d58612dbb565b500290565b600082821015612d6f57612d6f612dbb565b500390565b60005b83811015612d8f578181015183820152602001612d77565b838111156129cc5750506000910152565b6000600019821415612db457612db4612dbb565b5060010190565b634e487b7160e01b600052601160045260246000fd5b634e487b7160e01b600052603160045260246000fd5b634e487b7160e01b600052603260045260246000fd5b6001600160a01b0381168114611f7e57600080fdfe218adab1852f0bdeacb3305483cf296dbcf6abf496f646284463c8e6a43fa665fe7bb572d5723516ce4fe7a6a664f5adb38f5714efcd271411ed70a34d3ef2f7a26469706673582212208a2051a3f48680d3b7ddd4bcc006233e894d615be294ad1bbcc41ff5ea69bad464736f6c63430008070033fe7bb572d5723516ce4fe7a6a664f5adb38f5714efcd271411ed70a34d3ef2f7",
  "devdoc": {
    "kind": "dev",
    "methods": {
      "checkBalance(address)": {
        "details": "Get the total asset value held in the platform",
        "params": {
          "_asset": "Address of the asset"
        },
        "returns": {
          "balance": "   Total value of the asset in the platform"
        }
      },
      "claimGovernance()": {
        "details": "Claim Governance of the contract to a new account (`newGovernor`). Can only be called by the new Governor."
      },
      "collectRewardTokens()": {
        "details": "Collect accumulated rewards and send to Vault."
      },
      "deposit(address,uint256)": {
        "details": "Deposit asset into the Curve Pool",
        "params": {
          "_amount": "Amount of asset to deposit",
          "_asset": "Address of asset to deposit"
        }
      },
      "depositAll()": {
        "details": "Deposit the entire balance of any supported asset into the Curve pool"
      },
      "getRewardTokenAddresses()": {
        "details": "Get the reward token addresses.",
        "returns": {
          "_0": "address[] the reward token addresses."
        }
      },
      "governor()": {
        "details": "Returns the address of the current Governor."
      },
      "initialize(address,address,address[],address[],address[])": {
        "details": "Internal initialize function, to set up initial internal state",
        "params": {
          "_assets": "Addresses of initial supported assets",
          "_pTokens": "Platform Token corresponding addresses",
          "_platformAddress": "Generic platform address",
          "_rewardTokenAddresses": "Addresses of reward tokens for platform",
          "_vaultAddress": "Address of the Vault"
        }
      },
      "initialize(address,address,address[],address[],address[],address)": {
        "params": {
          "_assets": "Addresses of supported assets. MUST be passed in the same                order as returned by coins on the pool contract, i.e.                USDC, USDCe",
          "_crvGaugeAddress": "Address of the Curve DAO gauge for this pool",
          "_pTokens": "Platform Token corresponding addresses",
          "_platformAddress": "Address of the Curve pool",
          "_rewardTokenAddresses": "Address of reward",
          "_vaultAddress": "Address of the vault"
        }
      },
      "isGovernor()": {
        "details": "Returns true if the caller is the current Governor."
      },
      "removePToken(uint256)": {
        "details": "Remove a supported asset by passing its index.      This method can only be called by the system Governor",
        "params": {
          "_assetIndex": "Index of the asset to be removed"
        }
      },
      "safeApproveAllTokens()": {
        "details": "Approve the spending of all assets by their corresponding pool tokens,      if for some reason is it necessary."
      },
      "setPTokenAddress(address,address)": {
        "details": "Provide support for asset by passing its pToken address.      This method can only be called by the system Governor",
        "params": {
          "_asset": "Address for the asset",
          "_pToken": "Address for the corresponding platform token"
        }
      },
      "setRewardLiquidationThreshold(uint256)": {
        "details": "Set the reward token liquidation threshold.",
        "params": {
          "_threshold": "Threshold amount in decimals of reward token that will cause the Vault to claim and withdrawAll on allocate() calls."
        }
      },
      "setRewardTokenAddresses(address[])": {
        "details": "Set the reward token addresses.",
        "params": {
          "_rewardTokenAddresses": "Address array of the reward tokens"
        }
      },
      "supportsAsset(address)": {
        "details": "Retuns bool indicating whether asset is supported by strategy",
        "params": {
          "_asset": "Address of the asset"
        }
      },
      "transferGovernance(address)": {
        "details": "Transfers Governance of the contract to a new account (`newGovernor`). Can only be called by the current Governor. Must be claimed for this to complete",
        "params": {
          "_newGovernor": "Address of the new Governor"
        }
      },
      "transferToken(address,uint256)": {
        "details": "Transfer token to governor. Intended for recovering tokens stuck in      strategy contracts, i.e. mistaken sends.",
        "params": {
          "_amount": "Amount of the asset to transfer",
          "_asset": "Address for the asset"
        }
      },
      "withdraw(address,address,uint256)": {
        "details": "Withdraw asset from Curve Pool",
        "params": {
          "_amount": "Amount of asset to withdraw",
          "_asset": "Address of asset to withdraw",
          "_recipient": "Address to receive withdrawn asset"
        }
      },
      "withdrawAll()": {
        "details": "Remove all assets from platform and send them to Vault contract."
      }
    },
    "version": 1
  },
  "userdoc": {
    "kind": "user",
    "methods": {
      "initialize(address,address,address[],address[],address[],address)": {
        "notice": "Initializer for setting up strategy internal state. This overrides the InitializableAbstractStrategy initializer as Curve strategies don't fit well within that abstraction."
      }
    },
    "version": 1
  },
  "storageLayout": {
    "storage": [
      {
        "astId": 12147,
        "contract": "contracts/strategies/CurvePoolStrategy.sol:CurveUsdcStrategy",
        "label": "initialized",
        "offset": 0,
        "slot": "0",
        "type": "t_bool"
      },
      {
        "astId": 12150,
        "contract": "contracts/strategies/CurvePoolStrategy.sol:CurveUsdcStrategy",
        "label": "initializing",
        "offset": 1,
        "slot": "0",
        "type": "t_bool"
      },
      {
        "astId": 12190,
        "contract": "contracts/strategies/CurvePoolStrategy.sol:CurveUsdcStrategy",
        "label": "______gap",
        "offset": 0,
        "slot": "1",
        "type": "t_array(t_uint256)50_storage"
      },
      {
        "astId": 12272,
        "contract": "contracts/strategies/CurvePoolStrategy.sol:CurveUsdcStrategy",
        "label": "platformAddress",
        "offset": 0,
        "slot": "51",
        "type": "t_address"
      },
      {
        "astId": 12274,
        "contract": "contracts/strategies/CurvePoolStrategy.sol:CurveUsdcStrategy",
        "label": "vaultAddress",
        "offset": 0,
        "slot": "52",
        "type": "t_address"
      },
      {
        "astId": 12278,
        "contract": "contracts/strategies/CurvePoolStrategy.sol:CurveUsdcStrategy",
        "label": "assetToPToken",
        "offset": 0,
        "slot": "53",
        "type": "t_mapping(t_address,t_address)"
      },
      {
        "astId": 12281,
        "contract": "contracts/strategies/CurvePoolStrategy.sol:CurveUsdcStrategy",
        "label": "assetsMapped",
        "offset": 0,
        "slot": "54",
        "type": "t_array(t_address)dyn_storage"
      },
      {
        "astId": 12283,
        "contract": "contracts/strategies/CurvePoolStrategy.sol:CurveUsdcStrategy",
        "label": "_deprecated_rewardTokenAddress",
        "offset": 0,
        "slot": "55",
        "type": "t_address"
      },
      {
        "astId": 12285,
        "contract": "contracts/strategies/CurvePoolStrategy.sol:CurveUsdcStrategy",
        "label": "rewardLiquidationThreshold",
        "offset": 0,
        "slot": "56",
        "type": "t_uint256"
      },
      {
        "astId": 12288,
        "contract": "contracts/strategies/CurvePoolStrategy.sol:CurveUsdcStrategy",
        "label": "rewardTokenAddresses",
        "offset": 0,
        "slot": "57",
        "type": "t_array(t_address)dyn_storage"
      },
      {
        "astId": 12292,
        "contract": "contracts/strategies/CurvePoolStrategy.sol:CurveUsdcStrategy",
        "label": "_reserved",
        "offset": 0,
        "slot": "58",
        "type": "t_array(t_int256)99_storage"
      },
      {
        "astId": 9194,
        "contract": "contracts/strategies/CurvePoolStrategy.sol:CurveUsdcStrategy",
        "label": "pTokenAddress",
        "offset": 0,
        "slot": "157",
        "type": "t_address"
      },
      {
        "astId": 9903,
        "contract": "contracts/strategies/CurvePoolStrategy.sol:CurveUsdcStrategy",
        "label": "crvGaugeAddress",
        "offset": 0,
        "slot": "158",
        "type": "t_address"
      }
    ],
    "types": {
      "t_address": {
        "encoding": "inplace",
        "label": "address",
        "numberOfBytes": "20"
      },
      "t_array(t_address)dyn_storage": {
        "base": "t_address",
        "encoding": "dynamic_array",
        "label": "address[]",
        "numberOfBytes": "32"
      },
      "t_array(t_int256)99_storage": {
        "base": "t_int256",
        "encoding": "inplace",
        "label": "int256[99]",
        "numberOfBytes": "3168"
      },
      "t_array(t_uint256)50_storage": {
        "base": "t_uint256",
        "encoding": "inplace",
        "label": "uint256[50]",
        "numberOfBytes": "1600"
      },
      "t_bool": {
        "encoding": "inplace",
        "label": "bool",
        "numberOfBytes": "1"
      },
      "t_int256": {
        "encoding": "inplace",
        "label": "int256",
        "numberOfBytes": "32"
      },
      "t_mapping(t_address,t_address)": {
        "encoding": "mapping",
        "key": "t_address",
        "label": "mapping(address => address)",
        "numberOfBytes": "32",
        "value": "t_address"
      },
      "t_uint256": {
        "encoding": "inplace",
        "label": "uint256",
        "numberOfBytes": "32"
      }
    }
  }
}