{
  "address": "0xCc2b6810efAb9D720D663352808Bcfe5b61BCe27",
  "abi": [
    {
      "inputs": [
        {
          "internalType": "address",
          "name": "asset",
          "type": "address"
        }
      ],
      "name": "price",
      "outputs": [
        {
          "internalType": "uint256",
          "name": "",
          "type": "uint256"
        }
      ],
      "stateMutability": "view",
      "type": "function"
    }
  ],
  "transactionHash": "0xfca1d6ae22ab3e9eeec5c9c25e060a367e86860006103399ac90078b46051b3b",
  "args": [],
  "numDeployments": 2,
  "solcInputHash": "ddb3e332b8672aa6c6a47b2acd76301c",
  "bytecode": "0x608060405234801561001057600080fd5b5061071a806100206000396000f3fe608060405234801561001057600080fd5b506004361061002b5760003560e01c8063aea9107814610030575b600080fd5b61004361003e36600461055c565b610055565b60405190815260200160405180910390f35b600080610061836101f0565b90506001600160a01b0381166100b45760405162461bcd60e51b81526020600482015260136024820152724173736574206e6f7420617661696c61626c6560681b60448201526064015b60405180910390fd5b6000816001600160a01b031663feaf968c6040518163ffffffff1660e01b815260040160a06040518083038186803b1580156100ef57600080fd5b505afa158015610103573d6000803e3d6000fd5b505050506040513d601f19601f820116820180604052508101906101279190610632565b505050915050600081905061013b85610383565b156101e8576307bfa4808111156101945760405162461bcd60e51b815260206004820152601960248201527f4f7261636c653a2050726963652065786365656473206d61780000000000000060448201526064016100ab565b63042c1d808110156101e85760405162461bcd60e51b815260206004820152601760248201527f4f7261636c653a20507269636520756e646572206d696e00000000000000000060448201526064016100ab565b949350505050565b60006001600160a01b03821673d586e7f844cea2f87f50152665bcbc2c279d8d70141561023257507351d7180eda2260cc4f6e4eebb82fef5c3c2b8300919050565b6001600160a01b03821673a7d7079b0fead91f3e65f86e8915cb59c1a4c664148061027957506001600160a01b03821673b97ef9ef8734c71904d8002f8b6bc66dd9c48a6e145b15610299575073f096872672f44d6eba71458d74fe67f9a77a23b9919050565b6001600160a01b03821673c7198437980c041c805a1edcba50c1ce5db9511814806102e057506001600160a01b038216739702230a8ea53601f5cd2dc00fdbc13d4df4a8c7145b15610300575073ebe676ee90fe1112671f19b6b7459bc678b67e8a919050565b6001600160a01b03821673b31f66aa3c1e785363f0875a1b74e27b85fd66c714156103405750730a77230d17318075983913bc2145db16c7366156919050565b60405162461bcd60e51b81526020600482015260136024820152724173736574206e6f7420617661696c61626c6560681b60448201526064016100ab565b919050565b60008061038f836104c2565b90506000816040516020016103a49190610682565b6040516020818303038152906040528051906020012090506040516020016103d790644441492e6560d81b815260050190565b60405160208183030381529060405280519060200120811480610423575060405165555344432e6560d01b60208201526026016040516020818303038152906040528051906020012081145b806104555750604051635553444360e01b60208201526024016040516020818303038152906040528051906020012081145b80610489575060405165555344542e6560d01b60208201526026016040516020818303038152906040528051906020012081145b806101e85750604051631554d11560e21b6020820152602401604051602081830303815290604052805190602001208114949350505050565b60606000826001600160a01b03166395d89b416040518163ffffffff1660e01b815260040160006040518083038186803b1580156104ff57600080fd5b505afa158015610513573d6000803e3d6000fd5b505050506040513d6000823e601f3d908101601f1916820160405261053b9190810190610585565b9392505050565b805169ffffffffffffffffffff8116811461037e57600080fd5b60006020828403121561056e57600080fd5b81356001600160a01b038116811461053b57600080fd5b60006020828403121561059757600080fd5b815167ffffffffffffffff808211156105af57600080fd5b818401915084601f8301126105c357600080fd5b8151818111156105d5576105d56106ce565b604051601f8201601f19908116603f011681019083821181831017156105fd576105fd6106ce565b8160405282815287602084870101111561061657600080fd5b61062783602083016020880161069e565b979650505050505050565b600080600080600060a0868803121561064a57600080fd5b61065386610542565b945060208601519350604086015192506060860151915061067660808701610542565b90509295509295909350565b6000825161069481846020870161069e565b9190910192915050565b60005b838110156106b95781810151838201526020016106a1565b838111156106c8576000848401525b50505050565b634e487b7160e01b600052604160045260246000fdfea26469706673582212201230e1269a38607eee04f214ce2af1f02409a47b291d57d40bc18911488bec7f64736f6c63430008070033",
  "devdoc": {
    "kind": "dev",
    "methods": {
      "price(address)": {
        "params": {
          "asset": "address of the asset"
        },
        "returns": {
          "_0": "uint256 USD price of 1 of the asset, in 8 decimal fixed"
        }
      }
    },
    "version": 1
  },
  "userdoc": {
    "kind": "user",
    "methods": {
      "price(address)": {
        "notice": "Returns the total price in 8 digit USD for a given asset."
      }
    },
    "version": 1
  },
  "storageLayout": {
    "storage": [],
    "types": null
  }
}