{
  "address": "0x724e2233a8662324433d0c893BF944b08A78a689",
  "abi": [
    {
      "anonymous": false,
      "inputs": [
        {
          "indexed": false,
          "internalType": "uint256",
          "name": "_threshold",
          "type": "uint256"
        }
      ],
      "name": "AllocateThresholdUpdated",
      "type": "event"
    },
    {
      "anonymous": false,
      "inputs": [
        {
          "indexed": false,
          "internalType": "address",
          "name": "_asset",
          "type": "address"
        },
        {
          "indexed": false,
          "internalType": "address",
          "name": "_strategy",
          "type": "address"
        },
        {
          "indexed": false,
          "internalType": "uint256",
          "name": "_amount",
          "type": "uint256"
        }
      ],
      "name": "AssetAllocated",
      "type": "event"
    },
    {
      "anonymous": false,
      "inputs": [
        {
          "indexed": false,
          "internalType": "address",
          "name": "_asset",
          "type": "address"
        },
        {
          "indexed": false,
          "internalType": "address",
          "name": "_strategy",
          "type": "address"
        }
      ],
      "name": "AssetDefaultStrategyUpdated",
      "type": "event"
    },
    {
      "anonymous": false,
      "inputs": [
        {
          "indexed": false,
          "internalType": "address",
          "name": "_asset",
          "type": "address"
        }
      ],
      "name": "AssetSupported",
      "type": "event"
    },
    {
      "anonymous": false,
      "inputs": [],
      "name": "CapitalPaused",
      "type": "event"
    },
    {
      "anonymous": false,
      "inputs": [],
      "name": "CapitalUnpaused",
      "type": "event"
    },
    {
      "anonymous": false,
      "inputs": [
        {
          "indexed": true,
          "internalType": "address",
          "name": "previousGovernor",
          "type": "address"
        },
        {
          "indexed": true,
          "internalType": "address",
          "name": "newGovernor",
          "type": "address"
        }
      ],
      "name": "GovernorshipTransferred",
      "type": "event"
    },
    {
      "anonymous": false,
      "inputs": [
        {
          "indexed": false,
          "internalType": "uint256",
          "name": "maxSupplyDiff",
          "type": "uint256"
        }
      ],
      "name": "MaxSupplyDiffChanged",
      "type": "event"
    },
    {
      "anonymous": false,
      "inputs": [
        {
          "indexed": false,
          "internalType": "address",
          "name": "_addr",
          "type": "address"
        },
        {
          "indexed": false,
          "internalType": "uint256",
          "name": "_value",
          "type": "uint256"
        }
      ],
      "name": "Mint",
      "type": "event"
    },
    {
      "anonymous": false,
      "inputs": [
        {
          "indexed": true,
          "internalType": "address",
          "name": "previousGovernor",
          "type": "address"
        },
        {
          "indexed": true,
          "internalType": "address",
          "name": "newGovernor",
          "type": "address"
        }
      ],
      "name": "PendingGovernorshipTransfer",
      "type": "event"
    },
    {
      "anonymous": false,
      "inputs": [
        {
          "indexed": false,
          "internalType": "address",
          "name": "_priceProvider",
          "type": "address"
        }
      ],
      "name": "PriceProviderUpdated",
      "type": "event"
    },
    {
      "anonymous": false,
      "inputs": [],
      "name": "RebasePaused",
      "type": "event"
    },
    {
      "anonymous": false,
      "inputs": [
        {
          "indexed": false,
          "internalType": "uint256",
          "name": "_threshold",
          "type": "uint256"
        }
      ],
      "name": "RebaseThresholdUpdated",
      "type": "event"
    },
    {
      "anonymous": false,
      "inputs": [],
      "name": "RebaseUnpaused",
      "type": "event"
    },
    {
      "anonymous": false,
      "inputs": [
        {
          "indexed": false,
          "internalType": "address",
          "name": "_addr",
          "type": "address"
        },
        {
          "indexed": false,
          "internalType": "uint256",
          "name": "_value",
          "type": "uint256"
        }
      ],
      "name": "Redeem",
      "type": "event"
    },
    {
      "anonymous": false,
      "inputs": [
        {
          "indexed": false,
          "internalType": "uint256",
          "name": "_redeemFeeBps",
          "type": "uint256"
        }
      ],
      "name": "RedeemFeeUpdated",
      "type": "event"
    },
    {
      "anonymous": false,
      "inputs": [
        {
          "indexed": false,
          "internalType": "address",
          "name": "_address",
          "type": "address"
        }
      ],
      "name": "StrategistUpdated",
      "type": "event"
    },
    {
      "anonymous": false,
      "inputs": [
        {
          "indexed": false,
          "internalType": "address",
          "name": "_addr",
          "type": "address"
        }
      ],
      "name": "StrategyApproved",
      "type": "event"
    },
    {
      "anonymous": false,
      "inputs": [
        {
          "indexed": false,
          "internalType": "address",
          "name": "_addr",
          "type": "address"
        }
      ],
      "name": "StrategyRemoved",
      "type": "event"
    },
    {
      "anonymous": false,
      "inputs": [
        {
          "indexed": false,
          "internalType": "address",
          "name": "_address",
          "type": "address"
        }
      ],
      "name": "SwapTokenAdded",
      "type": "event"
    },
    {
      "anonymous": false,
      "inputs": [
        {
          "indexed": false,
          "internalType": "address",
          "name": "_address",
          "type": "address"
        }
      ],
      "name": "SwapTokenRemoved",
      "type": "event"
    },
    {
      "anonymous": false,
      "inputs": [
        {
          "indexed": false,
          "internalType": "address",
          "name": "_address",
          "type": "address"
        }
      ],
      "name": "TrusteeAddressChanged",
      "type": "event"
    },
    {
      "anonymous": false,
      "inputs": [
        {
          "indexed": false,
          "internalType": "uint256",
          "name": "_basis",
          "type": "uint256"
        }
      ],
      "name": "TrusteeFeeBpsChanged",
      "type": "event"
    },
    {
      "anonymous": false,
      "inputs": [
        {
          "indexed": false,
          "internalType": "address",
          "name": "_address",
          "type": "address"
        }
      ],
      "name": "UniswapUpdated",
      "type": "event"
    },
    {
      "anonymous": false,
      "inputs": [
        {
          "indexed": false,
          "internalType": "uint256",
          "name": "_vaultBuffer",
          "type": "uint256"
        }
      ],
      "name": "VaultBufferUpdated",
      "type": "event"
    },
    {
      "anonymous": false,
      "inputs": [
        {
          "indexed": false,
          "internalType": "address",
          "name": "_to",
          "type": "address"
        },
        {
          "indexed": false,
          "internalType": "uint256",
          "name": "_yield",
          "type": "uint256"
        },
        {
          "indexed": false,
          "internalType": "uint256",
          "name": "_fee",
          "type": "uint256"
        }
      ],
      "name": "YieldDistribution",
      "type": "event"
    },
    {
      "stateMutability": "payable",
      "type": "fallback"
    },
    {
      "inputs": [],
      "name": "allocate",
      "outputs": [],
      "stateMutability": "nonpayable",
      "type": "function"
    },
    {
      "inputs": [
        {
          "internalType": "address",
          "name": "",
          "type": "address"
        }
      ],
      "name": "assetDefaultStrategies",
      "outputs": [
        {
          "internalType": "address",
          "name": "",
          "type": "address"
        }
      ],
      "stateMutability": "view",
      "type": "function"
    },
    {
      "inputs": [],
      "name": "autoAllocateThreshold",
      "outputs": [
        {
          "internalType": "uint256",
          "name": "",
          "type": "uint256"
        }
      ],
      "stateMutability": "view",
      "type": "function"
    },
    {
      "inputs": [
        {
          "internalType": "uint256",
          "name": "_amount",
          "type": "uint256"
        }
      ],
      "name": "calculateRedeemOutputs",
      "outputs": [
        {
          "internalType": "uint256[]",
          "name": "",
          "type": "uint256[]"
        }
      ],
      "stateMutability": "view",
      "type": "function"
    },
    {
      "inputs": [],
      "name": "capitalPaused",
      "outputs": [
        {
          "internalType": "bool",
          "name": "",
          "type": "bool"
        }
      ],
      "stateMutability": "view",
      "type": "function"
    },
    {
      "inputs": [
        {
          "internalType": "address",
          "name": "_asset",
          "type": "address"
        }
      ],
      "name": "checkBalance",
      "outputs": [
        {
          "internalType": "uint256",
          "name": "",
          "type": "uint256"
        }
      ],
      "stateMutability": "view",
      "type": "function"
    },
    {
      "inputs": [],
      "name": "claimGovernance",
      "outputs": [],
      "stateMutability": "nonpayable",
      "type": "function"
    },
    {
      "inputs": [],
      "name": "getAllAssets",
      "outputs": [
        {
          "internalType": "address[]",
          "name": "",
          "type": "address[]"
        }
      ],
      "stateMutability": "view",
      "type": "function"
    },
    {
      "inputs": [],
      "name": "getAssetCount",
      "outputs": [
        {
          "internalType": "uint256",
          "name": "",
          "type": "uint256"
        }
      ],
      "stateMutability": "view",
      "type": "function"
    },
    {
      "inputs": [],
      "name": "getStrategyCount",
      "outputs": [
        {
          "internalType": "uint256",
          "name": "",
          "type": "uint256"
        }
      ],
      "stateMutability": "view",
      "type": "function"
    },
    {
      "inputs": [],
      "name": "governor",
      "outputs": [
        {
          "internalType": "address",
          "name": "",
          "type": "address"
        }
      ],
      "stateMutability": "view",
      "type": "function"
    },
    {
      "inputs": [],
      "name": "isGovernor",
      "outputs": [
        {
          "internalType": "bool",
          "name": "",
          "type": "bool"
        }
      ],
      "stateMutability": "view",
      "type": "function"
    },
    {
      "inputs": [
        {
          "internalType": "address",
          "name": "_asset",
          "type": "address"
        }
      ],
      "name": "isSupportedAsset",
      "outputs": [
        {
          "internalType": "bool",
          "name": "",
          "type": "bool"
        }
      ],
      "stateMutability": "view",
      "type": "function"
    },
    {
      "inputs": [],
      "name": "maxSupplyDiff",
      "outputs": [
        {
          "internalType": "uint256",
          "name": "",
          "type": "uint256"
        }
      ],
      "stateMutability": "view",
      "type": "function"
    },
    {
      "inputs": [
        {
          "internalType": "address",
          "name": "_asset",
          "type": "address"
        },
        {
          "internalType": "uint256",
          "name": "_amount",
          "type": "uint256"
        },
        {
          "internalType": "uint256",
          "name": "_minimumXusdAmount",
          "type": "uint256"
        }
      ],
      "name": "mint",
      "outputs": [],
      "stateMutability": "nonpayable",
      "type": "function"
    },
    {
      "inputs": [],
      "name": "priceProvider",
      "outputs": [
        {
          "internalType": "address",
          "name": "",
          "type": "address"
        }
      ],
      "stateMutability": "view",
      "type": "function"
    },
    {
      "inputs": [],
      "name": "rebase",
      "outputs": [],
      "stateMutability": "nonpayable",
      "type": "function"
    },
    {
      "inputs": [],
      "name": "rebasePaused",
      "outputs": [
        {
          "internalType": "bool",
          "name": "",
          "type": "bool"
        }
      ],
      "stateMutability": "view",
      "type": "function"
    },
    {
      "inputs": [],
      "name": "rebaseThreshold",
      "outputs": [
        {
          "internalType": "uint256",
          "name": "",
          "type": "uint256"
        }
      ],
      "stateMutability": "view",
      "type": "function"
    },
    {
      "inputs": [
        {
          "internalType": "uint256",
          "name": "_amount",
          "type": "uint256"
        },
        {
          "internalType": "uint256",
          "name": "_minimumUnitAmount",
          "type": "uint256"
        }
      ],
      "name": "redeem",
      "outputs": [],
      "stateMutability": "nonpayable",
      "type": "function"
    },
    {
      "inputs": [
        {
          "internalType": "uint256",
          "name": "_minimumUnitAmount",
          "type": "uint256"
        }
      ],
      "name": "redeemAll",
      "outputs": [],
      "stateMutability": "nonpayable",
      "type": "function"
    },
    {
      "inputs": [],
      "name": "redeemFeeBps",
      "outputs": [
        {
          "internalType": "uint256",
          "name": "",
          "type": "uint256"
        }
      ],
      "stateMutability": "view",
      "type": "function"
    },
    {
      "inputs": [
        {
          "internalType": "address",
          "name": "newImpl",
          "type": "address"
        }
      ],
      "name": "setAdminImpl",
      "outputs": [],
      "stateMutability": "nonpayable",
      "type": "function"
    },
    {
      "inputs": [],
      "name": "strategistAddr",
      "outputs": [
        {
          "internalType": "address",
          "name": "",
          "type": "address"
        }
      ],
      "stateMutability": "view",
      "type": "function"
    },
    {
      "inputs": [
        {
          "internalType": "uint256",
          "name": "",
          "type": "uint256"
        }
      ],
      "name": "swapTokens",
      "outputs": [
        {
          "internalType": "address",
          "name": "",
          "type": "address"
        }
      ],
      "stateMutability": "view",
      "type": "function"
    },
    {
      "inputs": [],
      "name": "totalValue",
      "outputs": [
        {
          "internalType": "uint256",
          "name": "value",
          "type": "uint256"
        }
      ],
      "stateMutability": "view",
      "type": "function"
    },
    {
      "inputs": [
        {
          "internalType": "address",
          "name": "_newGovernor",
          "type": "address"
        }
      ],
      "name": "transferGovernance",
      "outputs": [],
      "stateMutability": "nonpayable",
      "type": "function"
    },
    {
      "inputs": [],
      "name": "trusteeAddress",
      "outputs": [
        {
          "internalType": "address",
          "name": "",
          "type": "address"
        }
      ],
      "stateMutability": "view",
      "type": "function"
    },
    {
      "inputs": [],
      "name": "trusteeFeeBps",
      "outputs": [
        {
          "internalType": "uint256",
          "name": "",
          "type": "uint256"
        }
      ],
      "stateMutability": "view",
      "type": "function"
    },
    {
      "inputs": [],
      "name": "uniswapAddr",
      "outputs": [
        {
          "internalType": "address",
          "name": "",
          "type": "address"
        }
      ],
      "stateMutability": "view",
      "type": "function"
    },
    {
      "inputs": [],
      "name": "vaultBuffer",
      "outputs": [
        {
          "internalType": "uint256",
          "name": "",
          "type": "uint256"
        }
      ],
      "stateMutability": "view",
      "type": "function"
    }
  ],
  "transactionHash": "0xdbf68b22d39986427889eb49cf8f17191820b109926bef94f0fac39077a0b875",
  "args": [],
  "numDeployments": 1,
  "solcInputHash": "8376f040d7d2c6a4f125c51586a93880",
  "bytecode": "0x60806040526037805461ffff60a01b1916600160a81b179055603d80546001600160a01b0319908116909155603e805482169055603f8054909116905534801561004857600080fd5b5061006033600080516020620031eb83398151915255565b600080516020620031eb833981519152546040516001600160a01b03909116906000907fc7c0c772add429241571afb3805861fb3cfa2af374534088b76cdb4325a87e9a908290a361313380620000b86000396000f3fe6080604052600436106101d85760003560e01c80637136a7a611610102578063af14052c11610095578063d4c3eea011610064578063d4c3eea014610571578063e6cc543214610586578063fc0cfeee146105a7578063fe784eaa146105c7576101d8565b8063af14052c14610507578063b888879e1461051c578063c7af33521461053c578063d38bfff414610551576101d8565b80639fa1826e116100d15780639fa1826e14610491578063a0aead4d146104a7578063a403e4d5146104bc578063abaa9916146104f2576101d8565b80637136a7a6146104025780637cbc2373146104225780638e510b52146104425780639be918e614610458576101d8565b806331e19cfa1161017a578063570d8e1d11610149578063570d8e1d146103805780635d36b190146103a05780635f515226146103b557806367bd7ba3146103d5576101d8565b806331e19cfa1461030457806349c1d54d1461031957806352d38e5d1461033957806353ca9f241461034f576101d8565b8063156e29f6116101b6578063156e29f6146102945780631edfe3da146102b6578063207134b0146102cc5780632acada4d146102e2576101d8565b806309f6442c1461021e5780630c340a2414610247578063128a8b0514610274575b7f10465603890dc6628fbe448d5030103026f8b8fd67cf4837783af8b8dde720a3366000803760008036600084545af43d6000803e808015610219573d6000f35b3d6000fd5b34801561022a57600080fd5b5061023460385481565b6040519081526020015b60405180910390f35b34801561025357600080fd5b5061025c6105e7565b6040516001600160a01b03909116815260200161023e565b34801561028057600080fd5b50603e5461025c906001600160a01b031681565b3480156102a057600080fd5b506102b46102af366004612cd2565b610604565b005b3480156102c257600080fd5b5061023460395481565b3480156102d857600080fd5b5061023460435481565b3480156102ee57600080fd5b506102f761094a565b60405161023e9190612dbc565b34801561031057600080fd5b50603654610234565b34801561032557600080fd5b5060425461025c906001600160a01b031681565b34801561034557600080fd5b50610234603b5481565b34801561035b57600080fd5b5060375461037090600160a01b900460ff1681565b604051901515815260200161023e565b34801561038c57600080fd5b50603f5461025c906001600160a01b031681565b3480156103ac57600080fd5b506102b46109ac565b3480156103c157600080fd5b506102346103d0366004612c98565b610a52565b3480156103e157600080fd5b506103f56103f0366004612d29565b610a63565b60405161023e9190612e09565b34801561040e57600080fd5b506102b461041d366004612d29565b610a78565b34801561042e57600080fd5b506102b461043d366004612d5b565b610b63565b34801561044e57600080fd5b5061023460415481565b34801561046457600080fd5b50610370610473366004612c98565b6001600160a01b031660009081526033602052604090205460ff1690565b34801561049d57600080fd5b50610234603a5481565b3480156104b357600080fd5b50603454610234565b3480156104c857600080fd5b5061025c6104d7366004612c98565b6040602081905260009182529020546001600160a01b031681565b3480156104fe57600080fd5b506102b4610bd6565b34801561051357600080fd5b506102b4610c45565b34801561052857600080fd5b5060375461025c906001600160a01b031681565b34801561054857600080fd5b50610370610c83565b34801561055d57600080fd5b506102b461056c366004612c98565b610cb4565b34801561057d57600080fd5b50610234610d88565b34801561059257600080fd5b5060375461037090600160a81b900460ff1681565b3480156105b357600080fd5b506102b46105c2366004612c98565b610d92565b3480156105d357600080fd5b5061025c6105e2366004612d29565b610e64565b60006105ff6000805160206130de8339815191525490565b905090565b603754600160a81b900460ff16156106375760405162461bcd60e51b815260040161062e90612e74565b60405180910390fd5b6000805160206130be833981519152805460028114156106695760405162461bcd60e51b815260040161062e90612e9c565b600282556001600160a01b03851660009081526033602052604090205460ff166106ce5760405162461bcd60e51b8152602060048201526016602482015275105cdcd95d081a5cc81b9bdd081cdd5c1c1bdc9d195960521b604482015260640161062e565b6000841161071e5760405162461bcd60e51b815260206004820152601d60248201527f416d6f756e74206d7573742062652067726561746572207468616e2030000000604482015260640161062e565b6037546040516315d5220f60e31b81526001600160a01b038781166004830152600092169063aea910789060240160206040518083038186803b15801561076457600080fd5b505afa158015610778573d6000803e3d6000fd5b505050506040513d601f19601f8201168201806040525081019061079c9190612d42565b90506305f5e1008111156107b157506305f5e1005b60006107bc87610e8e565b905060006107cc87601284610f77565b905060006107f36107e08560126008610f77565b6107eb85600a612f41565b8a9190610fdb565b9050861561084b578681101561084b5760405162461bcd60e51b815260206004820152601e60248201527f4d696e7420616d6f756e74206c6f776572207468616e206d696e696d756d0000604482015260640161062e565b60408051338152602081018390527f0f6798a560793a54c3bcfe86a93cde1e73087d944c0ea20544137d4121396885910160405180910390a1603b5482101580156108a05750603754600160a01b900460ff16155b156108ad576108ad610ffd565b603c546040516340c10f1960e01b8152336004820152602481018390526001600160a01b03909116906340c10f1990604401600060405180830381600087803b1580156108f957600080fd5b505af115801561090d573d6000803e3d6000fd5b508b92506109299150506001600160a01b03821633308c611337565b603a54831061093a5761093a6113a8565b5050505050600182555050505050565b606060348054806020026020016040519081016040528092919081815260200182805480156109a257602002820191906000526020600020905b81546001600160a01b03168152600190910190602001808311610984575b5050505050905090565b7f1973cae3d8695cb4c31dce9679edb790944900898ecc70570ba365e7de143b0a546001600160a01b0316336001600160a01b031614610a475760405162461bcd60e51b815260206004820152603060248201527f4f6e6c79207468652070656e64696e6720476f7665726e6f722063616e20636f60448201526f6d706c6574652074686520636c61696d60801b606482015260840161062e565b610a50336119ab565b565b6000610a5d82611a6f565b92915050565b60606000610a7083611c3f565b509392505050565b603754600160a81b900460ff1615610aa25760405162461bcd60e51b815260040161062e90612e74565b6000805160206130be83398151915280546002811415610ad45760405162461bcd60e51b815260040161062e90612e9c565b60028255603c546040516370a0823160e01b8152336004820152610b5b916001600160a01b0316906370a082319060240160206040518083038186803b158015610b1d57600080fd5b505afa158015610b31573d6000803e3d6000fd5b505050506040513d601f19601f82011682018060405250810190610b559190612d42565b84611f8e565b506001905550565b603754600160a81b900460ff1615610b8d5760405162461bcd60e51b815260040161062e90612e74565b6000805160206130be83398151915280546002811415610bbf5760405162461bcd60e51b815260040161062e90612e9c565b60028255610bcd8484611f8e565b50600190555050565b603754600160a81b900460ff1615610c005760405162461bcd60e51b815260040161062e90612e74565b6000805160206130be83398151915280546002811415610c325760405162461bcd60e51b815260040161062e90612e9c565b60028255610c3e6113a8565b5060019055565b6000805160206130be83398151915280546002811415610c775760405162461bcd60e51b815260040161062e90612e9c565b60028255610c3e610ffd565b6000610c9b6000805160206130de8339815191525490565b6001600160a01b0316336001600160a01b031614905090565b610cbc610c83565b610d085760405162461bcd60e51b815260206004820152601a60248201527f43616c6c6572206973206e6f742074686520476f7665726e6f72000000000000604482015260640161062e565b610d30817f1973cae3d8695cb4c31dce9679edb790944900898ecc70570ba365e7de143b0a55565b806001600160a01b0316610d506000805160206130de8339815191525490565b6001600160a01b03167fa39cc5eb22d0f34d8beaefee8a3f17cc229c1a1d1ef87a5ad47313487b1c4f0d60405160405180910390a350565b60006105ff61253d565b610d9a610c83565b610de65760405162461bcd60e51b815260206004820152601a60248201527f43616c6c6572206973206e6f742074686520476f7665726e6f72000000000000604482015260640161062e565b803b610e405760405162461bcd60e51b8152602060048201526024808201527f6e657720696d706c656d656e746174696f6e206973206e6f74206120636f6e746044820152631c9858dd60e21b606482015260840161062e565b7f10465603890dc6628fbe448d5030103026f8b8fd67cf4837783af8b8dde720a355565b60448181548110610e7457600080fd5b6000918252602090912001546001600160a01b0316905081565b600080826001600160a01b031663313ce5676040518163ffffffff1660e01b815260040160206040518083038186803b158015610eca57600080fd5b505afa158015610ede573d6000803e3d6000fd5b505050506040513d601f19601f82011682018060405250810190610f029190612d7d565b60ff16905060048110158015610f19575060128111155b610a5d5760405162461bcd60e51b815260206004820152602960248201527f546f6b656e206d75737420686176652073756666696369656e7420646563696d604482015268616c20706c6163657360b81b606482015260840161062e565b600081831115610fa757610fa0610f8e8385613008565b610f9990600a612f41565b8590612558565b9350610fd1565b81831015610fd157610fce610fbc8484613008565b610fc790600a612f41565b8590612564565b93505b50825b9392505050565b600080610fe88585612558565b9050610ff48184612564565b95945050505050565b603754600160a01b900460ff16156110495760405162461bcd60e51b815260206004820152600f60248201526e149958985cda5b99c81c185d5cd959608a1b604482015260640161062e565b603c54604080516318160ddd60e01b815290516000926001600160a01b0316916318160ddd916004808301926020929190829003018186803b15801561108e57600080fd5b505afa1580156110a2573d6000803e3d6000fd5b505050506040513d601f19601f820116820180604052508101906110c69190612d42565b9050806110d05750565b60006110da61253d565b6042549091506001600160a01b031680158015906110f757508282115b156112435760006111088385612570565b9050600061112d6127106111276043548561255890919063ffffffff16565b90612564565b90508082116111895760405162461bcd60e51b815260206004820152602260248201527f466565206d757374206e6f742062652067726561746572207468616e207969656044820152611b1960f21b606482015260840161062e565b80156111f657603c546040516340c10f1960e01b81526001600160a01b03858116600483015260248201849052909116906340c10f1990604401600060405180830381600087803b1580156111dd57600080fd5b505af11580156111f1573d6000803e3d6000fd5b505050505b604080516001600160a01b0385168152602081018490529081018290527f09516ecf4a8a86e59780a9befc6dee948bc9e60a36e3be68d31ea817ee8d2c809060600160405180910390a150505b603c60009054906101000a90046001600160a01b03166001600160a01b03166318160ddd6040518163ffffffff1660e01b815260040160206040518083038186803b15801561129157600080fd5b505afa1580156112a5573d6000803e3d6000fd5b505050506040513d601f19601f820116820180604052508101906112c99190612d42565b92508282111561133257603c546040516339a7919f60e01b8152600481018490526001600160a01b03909116906339a7919f90602401600060405180830381600087803b15801561131957600080fd5b505af115801561132d573d6000803e3d6000fd5b505050505b505050565b6040516001600160a01b03808516602483015283166044820152606481018290526113a29085906323b872dd60e01b906084015b60408051601f198184030181529190526020810180516001600160e01b03166001600160e01b03199093169290921790915261257c565b50505050565b60005b6036548110156116bd576000603682815481106113ca576113ca61307c565b60009182526020808320909101546040805163125f9e3360e01b815290516001600160a01b039092169450849263125f9e3392600480840193829003018186803b15801561141757600080fd5b505afa15801561142b573d6000803e3d6000fd5b505050506040513d601f19601f8201168201806040525081019061144f9190612cb5565b90506001600160a01b038116156116a8576000826001600160a01b0316635653b4146040518163ffffffff1660e01b815260040160206040518083038186803b15801561149b57600080fd5b505afa1580156114af573d6000803e3d6000fd5b505050506040513d601f19601f820116820180604052508101906114d39190612d42565b90508061156657306001600160a01b031663548f5ae5603686815481106114fc576114fc61307c565b60009182526020909120015460405160e083901b6001600160e01b03191681526001600160a01b039091166004820152602401600060405180830381600087803b15801561154957600080fd5b505af115801561155d573d6000803e3d6000fd5b505050506116a6565b60008290506000816001600160a01b03166370a082316036888154811061158f5761158f61307c565b60009182526020909120015460405160e083901b6001600160e01b03191681526001600160a01b03909116600482015260240160206040518083038186803b1580156115da57600080fd5b505afa1580156115ee573d6000803e3d6000fd5b505050506040513d601f19601f820116820180604052508101906116129190612d42565b90508281106116a357306001600160a01b031663548f5ae56036888154811061163d5761163d61307c565b60009182526020909120015460405160e083901b6001600160e01b03191681526001600160a01b039091166004820152602401600060405180830381600087803b15801561168a57600080fd5b505af115801561169e573d6000803e3d6000fd5b505050505b50505b505b505080806116b59061304b565b9150506113ab565b5060006116c861264e565b9050806116d25750565b60006116dc612759565b905060006116ea83836127b5565b90506000826117105760395461170990670de0b6b3a764000090612570565b905061174d565b611729846111278460395461255890919063ffffffff16565b905080670de0b6b3a764000011156113a257611709670de0b6b3a764000082612570565b806117585750505050565b60005b6034548110156119285760006034828154811061177a5761177a61307c565b60009182526020822001546040516370a0823160e01b81523060048201526001600160a01b03909116925082906370a082319060240160206040518083038186803b1580156117c857600080fd5b505afa1580156117dc573d6000803e3d6000fd5b505050506040513d601f19601f820116820180604052508101906118009190612d42565b90508061180e575050611916565b600061181a82866127c1565b6001600160a01b038085166000908152604060208190529020549192501680158015906118475750600082115b1561191157806118616001600160a01b03861682856127d6565b6040516311f9fbc960e21b81526001600160a01b038681166004830152602482018590528216906347e7ef2490604401600060405180830381600087803b1580156118ab57600080fd5b505af11580156118bf573d6000803e3d6000fd5b5050604080516001600160a01b03808a168252861660208201529081018690527f41b99659f6ba0803f444aff29e5bf6e26dd86a3219aff92119d69710a956ba8d9250606001905060405180910390a1505b505050505b806119208161304b565b91505061175b565b506042546001600160a01b031680156119a457604260009054906101000a90046001600160a01b03166001600160a01b0316638119c0656040518163ffffffff1660e01b8152600401600060405180830381600087803b15801561198b57600080fd5b505af115801561199f573d6000803e3d6000fd5b505050505b5050505050565b6001600160a01b038116611a015760405162461bcd60e51b815260206004820152601a60248201527f4e657720476f7665726e6f722069732061646472657373283029000000000000604482015260640161062e565b806001600160a01b0316611a216000805160206130de8339815191525490565b6001600160a01b03167fc7c0c772add429241571afb3805861fb3cfa2af374534088b76cdb4325a87e9a60405160405180910390a3611a6c816000805160206130de83398151915255565b50565b6040516370a0823160e01b815230600482015260009082906001600160a01b038216906370a082319060240160206040518083038186803b158015611ab357600080fd5b505afa158015611ac7573d6000803e3d6000fd5b505050506040513d601f19601f82011682018060405250810190611aeb9190612d42565b915060005b603654811015611c3857600060368281548110611b0f57611b0f61307c565b60009182526020909120015460405163551c457b60e11b81526001600160a01b0387811660048301529091169150819063aa388af69060240160206040518083038186803b158015611b6057600080fd5b505afa158015611b74573d6000803e3d6000fd5b505050506040513d601f19601f82011682018060405250810190611b989190612d07565b15611c2557604051632fa8a91360e11b81526001600160a01b038681166004830152611c229190831690635f5152269060240160206040518083038186803b158015611be357600080fd5b505afa158015611bf7573d6000803e3d6000fd5b505050506040513d601f19601f82011682018060405250810190611c1b9190612d42565b85906127b5565b93505b5080611c308161304b565b915050611af0565b5050919050565b6060600080611c4d60345490565b90506000611c59612806565b905060008267ffffffffffffffff811115611c7657611c76613092565b604051908082528060200260200182016040528015611c9f578160200160208202803683370190505b50905060008367ffffffffffffffff811115611cbd57611cbd613092565b604051908082528060200260200182016040528015611ce6578160200160208202803683370190505b50905060008467ffffffffffffffff811115611d0457611d04613092565b604051908082528060200260200182016040528015611d2d578160200160208202803683370190505b5060385490975015611d66576000611d566127106111276038548c61255890919063ffffffff16565b9050611d628982612570565b9850505b60005b603454811015611e45576000611da560348381548110611d8b57611d8b61307c565b6000918252602090912001546001600160a01b0316611a6f565b90506000611dd960348481548110611dbf57611dbf61307c565b6000918252602090912001546001600160a01b0316610e8e565b905081868481518110611dee57611dee61307c565b60200260200101818152505080858481518110611e0d57611e0d61307c565b6020908102919091010152611e2e611e2783601284610f77565b8a906127b5565b985050508080611e3d9061304b565b915050611d69565b5060005b603454811015611f07576000858281518110611e6757611e6761307c565b60200260200101519050670de0b6b3a7640000811015611e8c5750670de0b6b3a76400005b6000611ee48961112784611ede60128a8981518110611ead57611ead61307c565b60200260200101518c8a81518110611ec757611ec761307c565b6020026020010151610f779092919063ffffffff16565b90612558565b9050611ef084826127b5565b935050508080611eff9061304b565b915050611e49565b506000611f148983612956565b905060005b603454811015611f8257611f538861112784888581518110611f3d57611f3d61307c565b602002602001015161255890919063ffffffff16565b898281518110611f6557611f6561307c565b602090810291909101015280611f7a8161304b565b915050611f19565b50505050505050915091565b60008211611fde5760405162461bcd60e51b815260206004820152601d60248201527f416d6f756e74206d7573742062652067726561746572207468616e2030000000604482015260640161062e565b600080611fea84611c3f565b915091506000603c60009054906101000a90046001600160a01b03166001600160a01b03166318160ddd6040518163ffffffff1660e01b815260040160206040518083038186803b15801561203e57600080fd5b505afa158015612052573d6000803e3d6000fd5b505050506040513d601f19601f820116820180604052508101906120769190612d42565b6041549091501561211a57600061208d8284612956565b9050604154670de0b6b3a764000082116120b8576120b3670de0b6b3a764000083612570565b6120ca565b6120ca82670de0b6b3a7640000612570565b11156121185760405162461bcd60e51b815260206004820152601e60248201527f4261636b696e6720737570706c79206c6971756964697479206572726f720000604482015260640161062e565b505b60408051338152602081018790527f222838db2794d11532d940e8dec38ae307ed0b63cd97c233322e221f998767a6910160405180910390a160005b6034548110156123f8578381815181106121725761217261307c565b602002602001015160001415612187576123e6565b60006034828154811061219c5761219c61307c565b60009182526020909120015485516001600160a01b0390911691508590839081106121c9576121c961307c565b60209081029190910101516040516370a0823160e01b81523060048201526001600160a01b038316906370a082319060240160206040518083038186803b15801561221357600080fd5b505afa158015612227573d6000803e3d6000fd5b505050506040513d601f19601f8201168201806040525081019061224b9190612d42565b1061228c57612287338684815181106122665761226661307c565b6020026020010151836001600160a01b03166127d69092919063ffffffff16565b6123e4565b600060406000603485815481106122a5576122a561307c565b60009182526020808320909101546001600160a01b03908116845290830193909352604090910190205416905080156123a8576000819050806001600160a01b031663d9caed1233603487815481106123005761230061307c565b9060005260206000200160009054906101000a90046001600160a01b03168a88815181106123305761233061307c565b60209081029190910101516040516001600160e01b031960e086901b1681526001600160a01b0393841660048201529290911660248301526044820152606401600060405180830381600087803b15801561238a57600080fd5b505af115801561239e573d6000803e3d6000fd5b50505050506123e2565b60405162461bcd60e51b815260206004820152600f60248201526e2634b8bab4b234ba3c9032b93937b960891b604482015260640161062e565b505b505b806123f08161304b565b915050612156565b5083156124b1576000805b845181101561245e57600061242460348381548110611dbf57611dbf61307c565b9050612448612441601283898681518110611ec757611ec761307c565b84906127b5565b92505080806124569061304b565b915050612403565b50848110156124af5760405162461bcd60e51b815260206004820181905260248201527f52656465656d20616d6f756e74206c6f776572207468616e206d696e696d756d604482015260640161062e565b505b603c54604051632770a7eb60e21b8152336004820152602481018790526001600160a01b0390911690639dc29fac90604401600060405180830381600087803b1580156124fd57600080fd5b505af1158015612511573d6000803e3d6000fd5b50505050603b54851180156125305750603754600160a01b900460ff16155b156119a4576119a4610ffd565b60006105ff61254a612759565b61255261264e565b906127b5565b6000610fd48284612fe9565b6000610fd48284612edc565b6000610fd48284613008565b60006125d1826040518060400160405280602081526020017f5361666545524332303a206c6f772d6c6576656c2063616c6c206661696c6564815250856001600160a01b031661297f9092919063ffffffff16565b80519091501561133257808060200190518101906125ef9190612d07565b6113325760405162461bcd60e51b815260206004820152602a60248201527f5361666545524332303a204552433230206f7065726174696f6e20646964206e6044820152691bdd081cdd58d8d9595960b21b606482015260840161062e565b6000805b603454811015612755576000603482815481106126715761267161307c565b6000918252602082200154603480546001600160a01b0390921693506126a19185908110611dbf57611dbf61307c565b6040516370a0823160e01b81523060048201529091506000906001600160a01b038416906370a082319060240160206040518083038186803b1580156126e657600080fd5b505afa1580156126fa573d6000803e3d6000fd5b505050506040513d601f19601f8201168201806040525081019061271e9190612d42565b9050801561273f5761273c61273582601285610f77565b86906127b5565b94505b505050808061274d9061304b565b915050612652565b5090565b6000805b603654811015612755576127a161279a603683815481106127805761278061307c565b6000918252602090912001546001600160a01b031661298e565b83906127b5565b9150806127ad8161304b565b91505061275d565b6000610fd48284612ec4565b6000610fd48383670de0b6b3a7640000610fdb565b6040516001600160a01b03831660248201526044810182905261133290849063a9059cbb60e01b9060640161136b565b606061281160345490565b67ffffffffffffffff81111561282957612829613092565b604051908082528060200260200182016040528015612852578160200160208202803683370190505b506037549091506001600160a01b031660005b6034548110156129515761292260126008846001600160a01b031663aea91078603486815481106128985761289861307c565b60009182526020909120015460405160e083901b6001600160e01b03191681526001600160a01b03909116600482015260240160206040518083038186803b1580156128e357600080fd5b505afa1580156128f7573d6000803e3d6000fd5b505050506040513d601f19601f8201168201806040525081019061291b9190612d42565b9190610f77565b8382815181106129345761293461307c565b6020908102919091010152806129498161304b565b915050612865565b505090565b60008061296b84670de0b6b3a7640000612558565b90506129778184612564565b949350505050565b60606129778484600085612b37565b600081815b603454811015611c385760006129b560348381548110611dbf57611dbf61307c565b9050826001600160a01b031663aa388af6603484815481106129d9576129d961307c565b60009182526020909120015460405160e083901b6001600160e01b03191681526001600160a01b03909116600482015260240160206040518083038186803b158015612a2457600080fd5b505afa158015612a38573d6000803e3d6000fd5b505050506040513d601f19601f82011682018060405250810190612a5c9190612d07565b15612b24576000836001600160a01b0316635f51522660348581548110612a8557612a8561307c565b60009182526020909120015460405160e083901b6001600160e01b03191681526001600160a01b03909116600482015260240160206040518083038186803b158015612ad057600080fd5b505afa158015612ae4573d6000803e3d6000fd5b505050506040513d601f19601f82011682018060405250810190612b089190612d42565b90508015612b2257612b1f61273582601285610f77565b94505b505b5080612b2f8161304b565b915050612993565b606082471015612b985760405162461bcd60e51b815260206004820152602660248201527f416464726573733a20696e73756666696369656e742062616c616e636520666f6044820152651c8818d85b1b60d21b606482015260840161062e565b843b612be65760405162461bcd60e51b815260206004820152601d60248201527f416464726573733a2063616c6c20746f206e6f6e2d636f6e7472616374000000604482015260640161062e565b600080866001600160a01b03168587604051612c029190612da0565b60006040518083038185875af1925050503d8060008114612c3f576040519150601f19603f3d011682016040523d82523d6000602084013e612c44565b606091505b5091509150612c54828286612c5f565b979650505050505050565b60608315612c6e575081610fd4565b825115612c7e5782518084602001fd5b8160405162461bcd60e51b815260040161062e9190612e41565b600060208284031215612caa57600080fd5b8135610fd4816130a8565b600060208284031215612cc757600080fd5b8151610fd4816130a8565b600080600060608486031215612ce757600080fd5b8335612cf2816130a8565b95602085013595506040909401359392505050565b600060208284031215612d1957600080fd5b81518015158114610fd457600080fd5b600060208284031215612d3b57600080fd5b5035919050565b600060208284031215612d5457600080fd5b5051919050565b60008060408385031215612d6e57600080fd5b50508035926020909101359150565b600060208284031215612d8f57600080fd5b815160ff81168114610fd457600080fd5b60008251612db281846020870161301f565b9190910192915050565b6020808252825182820181905260009190848201906040850190845b81811015612dfd5783516001600160a01b031683529284019291840191600101612dd8565b50909695505050505050565b6020808252825182820181905260009190848201906040850190845b81811015612dfd57835183529284019291840191600101612e25565b6020815260008251806020840152612e6081604085016020870161301f565b601f01601f19169190910160400192915050565b6020808252600e908201526d10d85c1a5d185b081c185d5cd95960921b604082015260600190565b6020808252600e908201526d1499595b9d1c985b9d0818d85b1b60921b604082015260600190565b60008219821115612ed757612ed7613066565b500190565b600082612ef957634e487b7160e01b600052601260045260246000fd5b500490565b600181815b80851115612f39578160001904821115612f1f57612f1f613066565b80851615612f2c57918102915b93841c9390800290612f03565b509250929050565b6000610fd48383600082612f5757506001610a5d565b81612f6457506000610a5d565b8160018114612f7a5760028114612f8457612fa0565b6001915050610a5d565b60ff841115612f9557612f95613066565b50506001821b610a5d565b5060208310610133831016604e8410600b8410161715612fc3575081810a610a5d565b612fcd8383612efe565b8060001904821115612fe157612fe1613066565b029392505050565b600081600019048311821515161561300357613003613066565b500290565b60008282101561301a5761301a613066565b500390565b60005b8381101561303a578181015183820152602001613022565b838111156113a25750506000910152565b600060001982141561305f5761305f613066565b5060010190565b634e487b7160e01b600052601160045260246000fd5b634e487b7160e01b600052603260045260246000fd5b634e487b7160e01b600052604160045260246000fd5b6001600160a01b0381168114611a6c57600080fdfe218adab1852f0bdeacb3305483cf296dbcf6abf496f646284463c8e6a43fa665fe7bb572d5723516ce4fe7a6a664f5adb38f5714efcd271411ed70a34d3ef2f7a26469706673582212203fb4a3f32216d7a390730dca992d0cb0bde9dd00318e52ba1b174d0e8003312f64736f6c63430008070033fe7bb572d5723516ce4fe7a6a664f5adb38f5714efcd271411ed70a34d3ef2f7",
  "devdoc": {
    "kind": "dev",
    "methods": {
      "allocate()": {
        "details": "Allocate unallocated funds on Vault to strategies.*"
      },
      "checkBalance(address)": {
        "params": {
          "_asset": "Address of asset"
        },
        "returns": {
          "_0": "uint256 Balance of asset in decimals of asset"
        }
      },
      "claimGovernance()": {
        "details": "Claim Governance of the contract to a new account (`newGovernor`). Can only be called by the new Governor."
      },
      "getAllAssets()": {
        "details": "Return all asset addresses in order"
      },
      "getAssetCount()": {
        "details": "Return the number of assets supported by the Vault."
      },
      "getStrategyCount()": {
        "details": "Return the number of strategies active on the Vault."
      },
      "governor()": {
        "details": "Returns the address of the current Governor."
      },
      "isGovernor()": {
        "details": "Returns true if the caller is the current Governor."
      },
      "mint(address,uint256,uint256)": {
        "details": "Deposit a supported asset and mint XUSD.",
        "params": {
          "_amount": "Amount of the asset being deposited",
          "_asset": "Address of the asset being deposited",
          "_minimumXusdAmount": "Minimum XUSD to mint"
        }
      },
      "rebase()": {
        "details": "Calculate the total value of assets held by the Vault and all      strategies and update the supply of XUSD."
      },
      "redeem(uint256,uint256)": {
        "details": "Withdraw a supported asset and burn XUSD.",
        "params": {
          "_amount": "Amount of XUSD to burn",
          "_minimumUnitAmount": "Minimum stablecoin units to receive in return"
        }
      },
      "redeemAll(uint256)": {
        "params": {
          "_minimumUnitAmount": "Minimum stablecoin units to receive in return"
        }
      },
      "setAdminImpl(address)": {
        "details": "set the implementation for the admin, this needs to be in a base class else we cannot set it",
        "params": {
          "newImpl": "address of the implementation"
        }
      },
      "totalValue()": {
        "details": "Determine the total value of assets held by the vault and its         strategies.",
        "returns": {
          "value": "Total value in USD (1e18)"
        }
      },
      "transferGovernance(address)": {
        "details": "Transfers Governance of the contract to a new account (`newGovernor`). Can only be called by the current Governor. Must be claimed for this to complete",
        "params": {
          "_newGovernor": "Address of the new Governor"
        }
      }
    },
    "version": 1
  },
  "userdoc": {
    "kind": "user",
    "methods": {
      "allocate()": {
        "notice": "Allocate unallocated funds on Vault to strategies."
      },
      "calculateRedeemOutputs(uint256)": {
        "notice": "Calculate the outputs for a redeem function, i.e. the mix of coins that will be returned"
      },
      "checkBalance(address)": {
        "notice": "Get the balance of an asset held in Vault and all strategies."
      },
      "redeemAll(uint256)": {
        "notice": "Withdraw a supported asset and burn all XUSD."
      }
    },
    "version": 1
  },
  "storageLayout": {
    "storage": [
      {
        "astId": 9971,
        "contract": "contracts/vault/VaultCore.sol:VaultCore",
        "label": "initialized",
        "offset": 0,
        "slot": "0",
        "type": "t_bool"
      },
      {
        "astId": 9974,
        "contract": "contracts/vault/VaultCore.sol:VaultCore",
        "label": "initializing",
        "offset": 1,
        "slot": "0",
        "type": "t_bool"
      },
      {
        "astId": 10014,
        "contract": "contracts/vault/VaultCore.sol:VaultCore",
        "label": "______gap",
        "offset": 0,
        "slot": "1",
        "type": "t_array(t_uint256)50_storage"
      },
      {
        "astId": 13843,
        "contract": "contracts/vault/VaultCore.sol:VaultCore",
        "label": "assets",
        "offset": 0,
        "slot": "51",
        "type": "t_mapping(t_address,t_struct(Asset)13838_storage)"
      },
      {
        "astId": 13846,
        "contract": "contracts/vault/VaultCore.sol:VaultCore",
        "label": "allAssets",
        "offset": 0,
        "slot": "52",
        "type": "t_array(t_address)dyn_storage"
      },
      {
        "astId": 13856,
        "contract": "contracts/vault/VaultCore.sol:VaultCore",
        "label": "strategies",
        "offset": 0,
        "slot": "53",
        "type": "t_mapping(t_address,t_struct(Strategy)13851_storage)"
      },
      {
        "astId": 13859,
        "contract": "contracts/vault/VaultCore.sol:VaultCore",
        "label": "allStrategies",
        "offset": 0,
        "slot": "54",
        "type": "t_array(t_address)dyn_storage"
      },
      {
        "astId": 13861,
        "contract": "contracts/vault/VaultCore.sol:VaultCore",
        "label": "priceProvider",
        "offset": 0,
        "slot": "55",
        "type": "t_address"
      },
      {
        "astId": 13864,
        "contract": "contracts/vault/VaultCore.sol:VaultCore",
        "label": "rebasePaused",
        "offset": 20,
        "slot": "55",
        "type": "t_bool"
      },
      {
        "astId": 13867,
        "contract": "contracts/vault/VaultCore.sol:VaultCore",
        "label": "capitalPaused",
        "offset": 21,
        "slot": "55",
        "type": "t_bool"
      },
      {
        "astId": 13869,
        "contract": "contracts/vault/VaultCore.sol:VaultCore",
        "label": "redeemFeeBps",
        "offset": 0,
        "slot": "56",
        "type": "t_uint256"
      },
      {
        "astId": 13871,
        "contract": "contracts/vault/VaultCore.sol:VaultCore",
        "label": "vaultBuffer",
        "offset": 0,
        "slot": "57",
        "type": "t_uint256"
      },
      {
        "astId": 13873,
        "contract": "contracts/vault/VaultCore.sol:VaultCore",
        "label": "autoAllocateThreshold",
        "offset": 0,
        "slot": "58",
        "type": "t_uint256"
      },
      {
        "astId": 13875,
        "contract": "contracts/vault/VaultCore.sol:VaultCore",
        "label": "rebaseThreshold",
        "offset": 0,
        "slot": "59",
        "type": "t_uint256"
      },
      {
        "astId": 13878,
        "contract": "contracts/vault/VaultCore.sol:VaultCore",
        "label": "xUSD",
        "offset": 0,
        "slot": "60",
        "type": "t_contract(XUSD)9912"
      },
      {
        "astId": 13887,
        "contract": "contracts/vault/VaultCore.sol:VaultCore",
        "label": "_deprecated_rebaseHooksAddr",
        "offset": 0,
        "slot": "61",
        "type": "t_address"
      },
      {
        "astId": 13893,
        "contract": "contracts/vault/VaultCore.sol:VaultCore",
        "label": "uniswapAddr",
        "offset": 0,
        "slot": "62",
        "type": "t_address"
      },
      {
        "astId": 13899,
        "contract": "contracts/vault/VaultCore.sol:VaultCore",
        "label": "strategistAddr",
        "offset": 0,
        "slot": "63",
        "type": "t_address"
      },
      {
        "astId": 13903,
        "contract": "contracts/vault/VaultCore.sol:VaultCore",
        "label": "assetDefaultStrategies",
        "offset": 0,
        "slot": "64",
        "type": "t_mapping(t_address,t_address)"
      },
      {
        "astId": 13905,
        "contract": "contracts/vault/VaultCore.sol:VaultCore",
        "label": "maxSupplyDiff",
        "offset": 0,
        "slot": "65",
        "type": "t_uint256"
      },
      {
        "astId": 13907,
        "contract": "contracts/vault/VaultCore.sol:VaultCore",
        "label": "trusteeAddress",
        "offset": 0,
        "slot": "66",
        "type": "t_address"
      },
      {
        "astId": 13909,
        "contract": "contracts/vault/VaultCore.sol:VaultCore",
        "label": "trusteeFeeBps",
        "offset": 0,
        "slot": "67",
        "type": "t_uint256"
      },
      {
        "astId": 13912,
        "contract": "contracts/vault/VaultCore.sol:VaultCore",
        "label": "swapTokens",
        "offset": 0,
        "slot": "68",
        "type": "t_array(t_address)dyn_storage"
      }
    ],
    "types": {
      "t_address": {
        "encoding": "inplace",
        "label": "address",
        "numberOfBytes": "20"
      },
      "t_array(t_address)dyn_storage": {
        "base": "t_address",
        "encoding": "dynamic_array",
        "label": "address[]",
        "numberOfBytes": "32"
      },
      "t_array(t_uint256)50_storage": {
        "base": "t_uint256",
        "encoding": "inplace",
        "label": "uint256[50]",
        "numberOfBytes": "1600"
      },
      "t_bool": {
        "encoding": "inplace",
        "label": "bool",
        "numberOfBytes": "1"
      },
      "t_contract(XUSD)9912": {
        "encoding": "inplace",
        "label": "contract XUSD",
        "numberOfBytes": "20"
      },
      "t_mapping(t_address,t_address)": {
        "encoding": "mapping",
        "key": "t_address",
        "label": "mapping(address => address)",
        "numberOfBytes": "32",
        "value": "t_address"
      },
      "t_mapping(t_address,t_struct(Asset)13838_storage)": {
        "encoding": "mapping",
        "key": "t_address",
        "label": "mapping(address => struct VaultStorage.Asset)",
        "numberOfBytes": "32",
        "value": "t_struct(Asset)13838_storage"
      },
      "t_mapping(t_address,t_struct(Strategy)13851_storage)": {
        "encoding": "mapping",
        "key": "t_address",
        "label": "mapping(address => struct VaultStorage.Strategy)",
        "numberOfBytes": "32",
        "value": "t_struct(Strategy)13851_storage"
      },
      "t_struct(Asset)13838_storage": {
        "encoding": "inplace",
        "label": "struct VaultStorage.Asset",
        "members": [
          {
            "astId": 13837,
            "contract": "contracts/vault/VaultCore.sol:VaultCore",
            "label": "isSupported",
            "offset": 0,
            "slot": "0",
            "type": "t_bool"
          }
        ],
        "numberOfBytes": "32"
      },
      "t_struct(Strategy)13851_storage": {
        "encoding": "inplace",
        "label": "struct VaultStorage.Strategy",
        "members": [
          {
            "astId": 13848,
            "contract": "contracts/vault/VaultCore.sol:VaultCore",
            "label": "isSupported",
            "offset": 0,
            "slot": "0",
            "type": "t_bool"
          },
          {
            "astId": 13850,
            "contract": "contracts/vault/VaultCore.sol:VaultCore",
            "label": "_deprecated",
            "offset": 0,
            "slot": "1",
            "type": "t_uint256"
          }
        ],
        "numberOfBytes": "64"
      },
      "t_uint256": {
        "encoding": "inplace",
        "label": "uint256",
        "numberOfBytes": "32"
      }
    }
  }
}