{
  "address": "0x47A88d20fEa8aC11c5cAa97859b72b058d9420db",
  "abi": [
    {
      "anonymous": false,
      "inputs": [
        {
          "indexed": false,
          "internalType": "uint256",
          "name": "_threshold",
          "type": "uint256"
        }
      ],
      "name": "AllocateThresholdUpdated",
      "type": "event"
    },
    {
      "anonymous": false,
      "inputs": [
        {
          "indexed": false,
          "internalType": "address",
          "name": "_asset",
          "type": "address"
        },
        {
          "indexed": false,
          "internalType": "address",
          "name": "_strategy",
          "type": "address"
        },
        {
          "indexed": false,
          "internalType": "uint256",
          "name": "_amount",
          "type": "uint256"
        }
      ],
      "name": "AssetAllocated",
      "type": "event"
    },
    {
      "anonymous": false,
      "inputs": [
        {
          "indexed": false,
          "internalType": "address",
          "name": "_asset",
          "type": "address"
        },
        {
          "indexed": false,
          "internalType": "address",
          "name": "_strategy",
          "type": "address"
        }
      ],
      "name": "AssetDefaultStrategyUpdated",
      "type": "event"
    },
    {
      "anonymous": false,
      "inputs": [
        {
          "indexed": false,
          "internalType": "address",
          "name": "_asset",
          "type": "address"
        }
      ],
      "name": "AssetSupported",
      "type": "event"
    },
    {
      "anonymous": false,
      "inputs": [],
      "name": "CapitalPaused",
      "type": "event"
    },
    {
      "anonymous": false,
      "inputs": [],
      "name": "CapitalUnpaused",
      "type": "event"
    },
    {
      "anonymous": false,
      "inputs": [
        {
          "indexed": true,
          "internalType": "address",
          "name": "previousGovernor",
          "type": "address"
        },
        {
          "indexed": true,
          "internalType": "address",
          "name": "newGovernor",
          "type": "address"
        }
      ],
      "name": "GovernorshipTransferred",
      "type": "event"
    },
    {
      "anonymous": false,
      "inputs": [
        {
          "indexed": false,
          "internalType": "uint256",
          "name": "maxSupplyDiff",
          "type": "uint256"
        }
      ],
      "name": "MaxSupplyDiffChanged",
      "type": "event"
    },
    {
      "anonymous": false,
      "inputs": [
        {
          "indexed": false,
          "internalType": "address",
          "name": "_addr",
          "type": "address"
        },
        {
          "indexed": false,
          "internalType": "uint256",
          "name": "_value",
          "type": "uint256"
        }
      ],
      "name": "Mint",
      "type": "event"
    },
    {
      "anonymous": false,
      "inputs": [
        {
          "indexed": true,
          "internalType": "address",
          "name": "previousGovernor",
          "type": "address"
        },
        {
          "indexed": true,
          "internalType": "address",
          "name": "newGovernor",
          "type": "address"
        }
      ],
      "name": "PendingGovernorshipTransfer",
      "type": "event"
    },
    {
      "anonymous": false,
      "inputs": [
        {
          "indexed": false,
          "internalType": "address",
          "name": "_priceProvider",
          "type": "address"
        }
      ],
      "name": "PriceProviderUpdated",
      "type": "event"
    },
    {
      "anonymous": false,
      "inputs": [],
      "name": "RebasePaused",
      "type": "event"
    },
    {
      "anonymous": false,
      "inputs": [
        {
          "indexed": false,
          "internalType": "uint256",
          "name": "_threshold",
          "type": "uint256"
        }
      ],
      "name": "RebaseThresholdUpdated",
      "type": "event"
    },
    {
      "anonymous": false,
      "inputs": [],
      "name": "RebaseUnpaused",
      "type": "event"
    },
    {
      "anonymous": false,
      "inputs": [
        {
          "indexed": false,
          "internalType": "address",
          "name": "_addr",
          "type": "address"
        },
        {
          "indexed": false,
          "internalType": "uint256",
          "name": "_value",
          "type": "uint256"
        }
      ],
      "name": "Redeem",
      "type": "event"
    },
    {
      "anonymous": false,
      "inputs": [
        {
          "indexed": false,
          "internalType": "uint256",
          "name": "_redeemFeeBps",
          "type": "uint256"
        }
      ],
      "name": "RedeemFeeUpdated",
      "type": "event"
    },
    {
      "anonymous": false,
      "inputs": [
        {
          "indexed": false,
          "internalType": "address",
          "name": "_address",
          "type": "address"
        }
      ],
      "name": "StrategistUpdated",
      "type": "event"
    },
    {
      "anonymous": false,
      "inputs": [
        {
          "indexed": false,
          "internalType": "address",
          "name": "_addr",
          "type": "address"
        }
      ],
      "name": "StrategyApproved",
      "type": "event"
    },
    {
      "anonymous": false,
      "inputs": [
        {
          "indexed": false,
          "internalType": "address",
          "name": "_addr",
          "type": "address"
        }
      ],
      "name": "StrategyRemoved",
      "type": "event"
    },
    {
      "anonymous": false,
      "inputs": [
        {
          "indexed": false,
          "internalType": "address",
          "name": "_address",
          "type": "address"
        }
      ],
      "name": "SwapTokenAdded",
      "type": "event"
    },
    {
      "anonymous": false,
      "inputs": [
        {
          "indexed": false,
          "internalType": "address",
          "name": "_address",
          "type": "address"
        }
      ],
      "name": "SwapTokenRemoved",
      "type": "event"
    },
    {
      "anonymous": false,
      "inputs": [
        {
          "indexed": false,
          "internalType": "address",
          "name": "_address",
          "type": "address"
        }
      ],
      "name": "TrusteeAddressChanged",
      "type": "event"
    },
    {
      "anonymous": false,
      "inputs": [
        {
          "indexed": false,
          "internalType": "uint256",
          "name": "_basis",
          "type": "uint256"
        }
      ],
      "name": "TrusteeFeeBpsChanged",
      "type": "event"
    },
    {
      "anonymous": false,
      "inputs": [
        {
          "indexed": false,
          "internalType": "address",
          "name": "_address",
          "type": "address"
        }
      ],
      "name": "UniswapUpdated",
      "type": "event"
    },
    {
      "anonymous": false,
      "inputs": [
        {
          "indexed": false,
          "internalType": "uint256",
          "name": "_vaultBuffer",
          "type": "uint256"
        }
      ],
      "name": "VaultBufferUpdated",
      "type": "event"
    },
    {
      "anonymous": false,
      "inputs": [
        {
          "indexed": false,
          "internalType": "address",
          "name": "_to",
          "type": "address"
        },
        {
          "indexed": false,
          "internalType": "uint256",
          "name": "_yield",
          "type": "uint256"
        },
        {
          "indexed": false,
          "internalType": "uint256",
          "name": "_fee",
          "type": "uint256"
        }
      ],
      "name": "YieldDistribution",
      "type": "event"
    },
    {
      "stateMutability": "payable",
      "type": "fallback"
    },
    {
      "inputs": [],
      "name": "allocate",
      "outputs": [],
      "stateMutability": "nonpayable",
      "type": "function"
    },
    {
      "inputs": [
        {
          "internalType": "address",
          "name": "",
          "type": "address"
        }
      ],
      "name": "assetDefaultStrategies",
      "outputs": [
        {
          "internalType": "address",
          "name": "",
          "type": "address"
        }
      ],
      "stateMutability": "view",
      "type": "function"
    },
    {
      "inputs": [],
      "name": "autoAllocateThreshold",
      "outputs": [
        {
          "internalType": "uint256",
          "name": "",
          "type": "uint256"
        }
      ],
      "stateMutability": "view",
      "type": "function"
    },
    {
      "inputs": [
        {
          "internalType": "uint256",
          "name": "_amount",
          "type": "uint256"
        }
      ],
      "name": "calculateRedeemOutputs",
      "outputs": [
        {
          "internalType": "uint256[]",
          "name": "",
          "type": "uint256[]"
        }
      ],
      "stateMutability": "view",
      "type": "function"
    },
    {
      "inputs": [],
      "name": "capitalPaused",
      "outputs": [
        {
          "internalType": "bool",
          "name": "",
          "type": "bool"
        }
      ],
      "stateMutability": "view",
      "type": "function"
    },
    {
      "inputs": [
        {
          "internalType": "address",
          "name": "_asset",
          "type": "address"
        }
      ],
      "name": "checkBalance",
      "outputs": [
        {
          "internalType": "uint256",
          "name": "",
          "type": "uint256"
        }
      ],
      "stateMutability": "view",
      "type": "function"
    },
    {
      "inputs": [],
      "name": "claimGovernance",
      "outputs": [],
      "stateMutability": "nonpayable",
      "type": "function"
    },
    {
      "inputs": [],
      "name": "getAllAssets",
      "outputs": [
        {
          "internalType": "address[]",
          "name": "",
          "type": "address[]"
        }
      ],
      "stateMutability": "view",
      "type": "function"
    },
    {
      "inputs": [],
      "name": "getAssetCount",
      "outputs": [
        {
          "internalType": "uint256",
          "name": "",
          "type": "uint256"
        }
      ],
      "stateMutability": "view",
      "type": "function"
    },
    {
      "inputs": [],
      "name": "getStrategyCount",
      "outputs": [
        {
          "internalType": "uint256",
          "name": "",
          "type": "uint256"
        }
      ],
      "stateMutability": "view",
      "type": "function"
    },
    {
      "inputs": [],
      "name": "governor",
      "outputs": [
        {
          "internalType": "address",
          "name": "",
          "type": "address"
        }
      ],
      "stateMutability": "view",
      "type": "function"
    },
    {
      "inputs": [],
      "name": "isGovernor",
      "outputs": [
        {
          "internalType": "bool",
          "name": "",
          "type": "bool"
        }
      ],
      "stateMutability": "view",
      "type": "function"
    },
    {
      "inputs": [
        {
          "internalType": "address",
          "name": "_asset",
          "type": "address"
        }
      ],
      "name": "isSupportedAsset",
      "outputs": [
        {
          "internalType": "bool",
          "name": "",
          "type": "bool"
        }
      ],
      "stateMutability": "view",
      "type": "function"
    },
    {
      "inputs": [],
      "name": "maxSupplyDiff",
      "outputs": [
        {
          "internalType": "uint256",
          "name": "",
          "type": "uint256"
        }
      ],
      "stateMutability": "view",
      "type": "function"
    },
    {
      "inputs": [
        {
          "internalType": "address",
          "name": "_asset",
          "type": "address"
        },
        {
          "internalType": "uint256",
          "name": "_amount",
          "type": "uint256"
        },
        {
          "internalType": "uint256",
          "name": "_minimumXusdAmount",
          "type": "uint256"
        }
      ],
      "name": "mint",
      "outputs": [],
      "stateMutability": "nonpayable",
      "type": "function"
    },
    {
      "inputs": [],
      "name": "priceProvider",
      "outputs": [
        {
          "internalType": "address",
          "name": "",
          "type": "address"
        }
      ],
      "stateMutability": "view",
      "type": "function"
    },
    {
      "inputs": [],
      "name": "rebase",
      "outputs": [],
      "stateMutability": "nonpayable",
      "type": "function"
    },
    {
      "inputs": [],
      "name": "rebasePaused",
      "outputs": [
        {
          "internalType": "bool",
          "name": "",
          "type": "bool"
        }
      ],
      "stateMutability": "view",
      "type": "function"
    },
    {
      "inputs": [],
      "name": "rebaseThreshold",
      "outputs": [
        {
          "internalType": "uint256",
          "name": "",
          "type": "uint256"
        }
      ],
      "stateMutability": "view",
      "type": "function"
    },
    {
      "inputs": [
        {
          "internalType": "uint256",
          "name": "_amount",
          "type": "uint256"
        },
        {
          "internalType": "uint256",
          "name": "_minimumUnitAmount",
          "type": "uint256"
        }
      ],
      "name": "redeem",
      "outputs": [],
      "stateMutability": "nonpayable",
      "type": "function"
    },
    {
      "inputs": [
        {
          "internalType": "uint256",
          "name": "_minimumUnitAmount",
          "type": "uint256"
        }
      ],
      "name": "redeemAll",
      "outputs": [],
      "stateMutability": "nonpayable",
      "type": "function"
    },
    {
      "inputs": [],
      "name": "redeemFeeBps",
      "outputs": [
        {
          "internalType": "uint256",
          "name": "",
          "type": "uint256"
        }
      ],
      "stateMutability": "view",
      "type": "function"
    },
    {
      "inputs": [
        {
          "internalType": "address",
          "name": "newImpl",
          "type": "address"
        }
      ],
      "name": "setAdminImpl",
      "outputs": [],
      "stateMutability": "nonpayable",
      "type": "function"
    },
    {
      "inputs": [],
      "name": "strategistAddr",
      "outputs": [
        {
          "internalType": "address",
          "name": "",
          "type": "address"
        }
      ],
      "stateMutability": "view",
      "type": "function"
    },
    {
      "inputs": [
        {
          "internalType": "uint256",
          "name": "",
          "type": "uint256"
        }
      ],
      "name": "swapTokens",
      "outputs": [
        {
          "internalType": "address",
          "name": "",
          "type": "address"
        }
      ],
      "stateMutability": "view",
      "type": "function"
    },
    {
      "inputs": [],
      "name": "totalValue",
      "outputs": [
        {
          "internalType": "uint256",
          "name": "value",
          "type": "uint256"
        }
      ],
      "stateMutability": "view",
      "type": "function"
    },
    {
      "inputs": [
        {
          "internalType": "address",
          "name": "_newGovernor",
          "type": "address"
        }
      ],
      "name": "transferGovernance",
      "outputs": [],
      "stateMutability": "nonpayable",
      "type": "function"
    },
    {
      "inputs": [],
      "name": "trusteeAddress",
      "outputs": [
        {
          "internalType": "address",
          "name": "",
          "type": "address"
        }
      ],
      "stateMutability": "view",
      "type": "function"
    },
    {
      "inputs": [],
      "name": "trusteeFeeBps",
      "outputs": [
        {
          "internalType": "uint256",
          "name": "",
          "type": "uint256"
        }
      ],
      "stateMutability": "view",
      "type": "function"
    },
    {
      "inputs": [],
      "name": "uniswapAddr",
      "outputs": [
        {
          "internalType": "address",
          "name": "",
          "type": "address"
        }
      ],
      "stateMutability": "view",
      "type": "function"
    },
    {
      "inputs": [],
      "name": "vaultBuffer",
      "outputs": [
        {
          "internalType": "uint256",
          "name": "",
          "type": "uint256"
        }
      ],
      "stateMutability": "view",
      "type": "function"
    }
  ],
  "transactionHash": "0xe414f8d1a79948e72b0c7b4922e1b852e22115b6c931aaf8b2a1580072c126d7",
  "args": [],
  "numDeployments": 2,
  "solcInputHash": "ecea130246819fa0fc6e9ca85ae9023a",
  "bytecode": "0x60806040526037805461ffff60a01b1916600160a81b179055603d80546001600160a01b0319908116909155603e805482169055603f8054909116905534801561004857600080fd5b50610060336000805160206200331883398151915255565b60008051602062003318833981519152546040516001600160a01b03909116906000907fc7c0c772add429241571afb3805861fb3cfa2af374534088b76cdb4325a87e9a908290a361326080620000b86000396000f3fe6080604052600436106101d85760003560e01c80637136a7a611610102578063af14052c11610095578063d4c3eea011610064578063d4c3eea014610571578063e6cc543214610586578063fc0cfeee146105a7578063fe784eaa146105c7576101d8565b8063af14052c14610507578063b888879e1461051c578063c7af33521461053c578063d38bfff414610551576101d8565b80639fa1826e116100d15780639fa1826e14610491578063a0aead4d146104a7578063a403e4d5146104bc578063abaa9916146104f2576101d8565b80637136a7a6146104025780637cbc2373146104225780638e510b52146104425780639be918e614610458576101d8565b806331e19cfa1161017a578063570d8e1d11610149578063570d8e1d146103805780635d36b190146103a05780635f515226146103b557806367bd7ba3146103d5576101d8565b806331e19cfa1461030457806349c1d54d1461031957806352d38e5d1461033957806353ca9f241461034f576101d8565b8063156e29f6116101b6578063156e29f6146102945780631edfe3da146102b6578063207134b0146102cc5780632acada4d146102e2576101d8565b806309f6442c1461021e5780630c340a2414610247578063128a8b0514610274575b7f10465603890dc6628fbe448d5030103026f8b8fd67cf4837783af8b8dde720a3366000803760008036600084545af43d6000803e808015610219573d6000f35b3d6000fd5b34801561022a57600080fd5b5061023460385481565b6040519081526020015b60405180910390f35b34801561025357600080fd5b5061025c6105e7565b6040516001600160a01b03909116815260200161023e565b34801561028057600080fd5b50603e5461025c906001600160a01b031681565b3480156102a057600080fd5b506102b46102af366004612d33565b610604565b005b3480156102c257600080fd5b5061023460395481565b3480156102d857600080fd5b5061023460435481565b3480156102ee57600080fd5b506102f761094a565b60405161023e9190612ee9565b34801561031057600080fd5b50603654610234565b34801561032557600080fd5b5060425461025c906001600160a01b031681565b34801561034557600080fd5b50610234603b5481565b34801561035b57600080fd5b5060375461037090600160a01b900460ff1681565b604051901515815260200161023e565b34801561038c57600080fd5b50603f5461025c906001600160a01b031681565b3480156103ac57600080fd5b506102b46109ac565b3480156103c157600080fd5b506102346103d0366004612d16565b610a52565b3480156103e157600080fd5b506103f56103f0366004612e56565b610a63565b60405161023e9190612f36565b34801561040e57600080fd5b506102b461041d366004612e56565b610a78565b34801561042e57600080fd5b506102b461043d366004612e88565b610b63565b34801561044e57600080fd5b5061023460415481565b34801561046457600080fd5b50610370610473366004612d16565b6001600160a01b031660009081526033602052604090205460ff1690565b34801561049d57600080fd5b50610234603a5481565b3480156104b357600080fd5b50603454610234565b3480156104c857600080fd5b5061025c6104d7366004612d16565b6040602081905260009182529020546001600160a01b031681565b3480156104fe57600080fd5b506102b4610bd6565b34801561051357600080fd5b506102b4610c45565b34801561052857600080fd5b5060375461025c906001600160a01b031681565b34801561054857600080fd5b50610370610c83565b34801561055d57600080fd5b506102b461056c366004612d16565b610cb4565b34801561057d57600080fd5b50610234610d88565b34801561059257600080fd5b5060375461037090600160a81b900460ff1681565b3480156105b357600080fd5b506102b46105c2366004612d16565b610d92565b3480156105d357600080fd5b5061025c6105e2366004612e56565b610e64565b60006105ff60008051602061320b8339815191525490565b905090565b603754600160a81b900460ff16156106375760405162461bcd60e51b815260040161062e90612fa1565b60405180910390fd5b6000805160206131eb833981519152805460028114156106695760405162461bcd60e51b815260040161062e90612fc9565b600282556001600160a01b03851660009081526033602052604090205460ff166106ce5760405162461bcd60e51b8152602060048201526016602482015275105cdcd95d081a5cc81b9bdd081cdd5c1c1bdc9d195960521b604482015260640161062e565b6000841161071e5760405162461bcd60e51b815260206004820152601d60248201527f416d6f756e74206d7573742062652067726561746572207468616e2030000000604482015260640161062e565b6037546040516315d5220f60e31b81526001600160a01b038781166004830152600092169063aea910789060240160206040518083038186803b15801561076457600080fd5b505afa158015610778573d6000803e3d6000fd5b505050506040513d601f19601f8201168201806040525081019061079c9190612e6f565b90506305f5e1008111156107b157506305f5e1005b60006107bc87610e8e565b905060006107cc87601284610f77565b905060006107f36107e08560126008610f77565b6107eb85600a61306e565b8a9190610fdb565b9050861561084b578681101561084b5760405162461bcd60e51b815260206004820152601e60248201527f4d696e7420616d6f756e74206c6f776572207468616e206d696e696d756d0000604482015260640161062e565b60408051338152602081018390527f0f6798a560793a54c3bcfe86a93cde1e73087d944c0ea20544137d4121396885910160405180910390a1603b5482101580156108a05750603754600160a01b900460ff16155b156108ad576108ad610ffd565b603c546040516340c10f1960e01b8152336004820152602481018390526001600160a01b03909116906340c10f1990604401600060405180830381600087803b1580156108f957600080fd5b505af115801561090d573d6000803e3d6000fd5b508b92506109299150506001600160a01b03821633308c611337565b603a54831061093a5761093a6113a8565b5050505050600182555050505050565b606060348054806020026020016040519081016040528092919081815260200182805480156109a257602002820191906000526020600020905b81546001600160a01b03168152600190910190602001808311610984575b5050505050905090565b7f1973cae3d8695cb4c31dce9679edb790944900898ecc70570ba365e7de143b0a546001600160a01b0316336001600160a01b031614610a475760405162461bcd60e51b815260206004820152603060248201527f4f6e6c79207468652070656e64696e6720476f7665726e6f722063616e20636f60448201526f6d706c6574652074686520636c61696d60801b606482015260840161062e565b610a5033611a19565b565b6000610a5d82611add565b92915050565b60606000610a7083611cad565b509392505050565b603754600160a81b900460ff1615610aa25760405162461bcd60e51b815260040161062e90612fa1565b6000805160206131eb83398151915280546002811415610ad45760405162461bcd60e51b815260040161062e90612fc9565b60028255603c546040516370a0823160e01b8152336004820152610b5b916001600160a01b0316906370a082319060240160206040518083038186803b158015610b1d57600080fd5b505afa158015610b31573d6000803e3d6000fd5b505050506040513d601f19601f82011682018060405250810190610b559190612e6f565b84611ffc565b506001905550565b603754600160a81b900460ff1615610b8d5760405162461bcd60e51b815260040161062e90612fa1565b6000805160206131eb83398151915280546002811415610bbf5760405162461bcd60e51b815260040161062e90612fc9565b60028255610bcd8484611ffc565b50600190555050565b603754600160a81b900460ff1615610c005760405162461bcd60e51b815260040161062e90612fa1565b6000805160206131eb83398151915280546002811415610c325760405162461bcd60e51b815260040161062e90612fc9565b60028255610c3e6113a8565b5060019055565b6000805160206131eb83398151915280546002811415610c775760405162461bcd60e51b815260040161062e90612fc9565b60028255610c3e610ffd565b6000610c9b60008051602061320b8339815191525490565b6001600160a01b0316336001600160a01b031614905090565b610cbc610c83565b610d085760405162461bcd60e51b815260206004820152601a60248201527f43616c6c6572206973206e6f742074686520476f7665726e6f72000000000000604482015260640161062e565b610d30817f1973cae3d8695cb4c31dce9679edb790944900898ecc70570ba365e7de143b0a55565b806001600160a01b0316610d5060008051602061320b8339815191525490565b6001600160a01b03167fa39cc5eb22d0f34d8beaefee8a3f17cc229c1a1d1ef87a5ad47313487b1c4f0d60405160405180910390a350565b60006105ff6125ab565b610d9a610c83565b610de65760405162461bcd60e51b815260206004820152601a60248201527f43616c6c6572206973206e6f742074686520476f7665726e6f72000000000000604482015260640161062e565b803b610e405760405162461bcd60e51b8152602060048201526024808201527f6e657720696d706c656d656e746174696f6e206973206e6f74206120636f6e746044820152631c9858dd60e21b606482015260840161062e565b7f10465603890dc6628fbe448d5030103026f8b8fd67cf4837783af8b8dde720a355565b60448181548110610e7457600080fd5b6000918252602090912001546001600160a01b0316905081565b600080826001600160a01b031663313ce5676040518163ffffffff1660e01b815260040160206040518083038186803b158015610eca57600080fd5b505afa158015610ede573d6000803e3d6000fd5b505050506040513d601f19601f82011682018060405250810190610f029190612eaa565b60ff16905060048110158015610f19575060128111155b610a5d5760405162461bcd60e51b815260206004820152602960248201527f546f6b656e206d75737420686176652073756666696369656e7420646563696d604482015268616c20706c6163657360b81b606482015260840161062e565b600081831115610fa757610fa0610f8e8385613135565b610f9990600a61306e565b85906125c6565b9350610fd1565b81831015610fd157610fce610fbc8484613135565b610fc790600a61306e565b85906125d2565b93505b50825b9392505050565b600080610fe885856125c6565b9050610ff481846125d2565b95945050505050565b603754600160a01b900460ff16156110495760405162461bcd60e51b815260206004820152600f60248201526e149958985cda5b99c81c185d5cd959608a1b604482015260640161062e565b603c54604080516318160ddd60e01b815290516000926001600160a01b0316916318160ddd916004808301926020929190829003018186803b15801561108e57600080fd5b505afa1580156110a2573d6000803e3d6000fd5b505050506040513d601f19601f820116820180604052508101906110c69190612e6f565b9050806110d05750565b60006110da6125ab565b6042549091506001600160a01b031680158015906110f757508282115b1561124357600061110883856125de565b9050600061112d612710611127604354856125c690919063ffffffff16565b906125d2565b90508082116111895760405162461bcd60e51b815260206004820152602260248201527f466565206d757374206e6f742062652067726561746572207468616e207969656044820152611b1960f21b606482015260840161062e565b80156111f657603c546040516340c10f1960e01b81526001600160a01b03858116600483015260248201849052909116906340c10f1990604401600060405180830381600087803b1580156111dd57600080fd5b505af11580156111f1573d6000803e3d6000fd5b505050505b604080516001600160a01b0385168152602081018490529081018290527f09516ecf4a8a86e59780a9befc6dee948bc9e60a36e3be68d31ea817ee8d2c809060600160405180910390a150505b603c60009054906101000a90046001600160a01b03166001600160a01b03166318160ddd6040518163ffffffff1660e01b815260040160206040518083038186803b15801561129157600080fd5b505afa1580156112a5573d6000803e3d6000fd5b505050506040513d601f19601f820116820180604052508101906112c99190612e6f565b92508282111561133257603c546040516339a7919f60e01b8152600481018490526001600160a01b03909116906339a7919f90602401600060405180830381600087803b15801561131957600080fd5b505af115801561132d573d6000803e3d6000fd5b505050505b505050565b6040516001600160a01b03808516602483015283166044820152606481018290526113a29085906323b872dd60e01b906084015b60408051601f198184030181529190526020810180516001600160e01b03166001600160e01b0319909316929092179091526125ea565b50505050565b60005b60365481101561172b576000603682815481106113ca576113ca6131a9565b9060005260206000200160009054906101000a90046001600160a01b031690506000816001600160a01b031663f6ca71b06040518163ffffffff1660e01b815260040160006040518083038186803b15801561142557600080fd5b505afa158015611439573d6000803e3d6000fd5b505050506040513d6000823e601f3d908101601f191682016040526114619190810190612d68565b905060005b81518110156117155760006001600160a01b031682828151811061148c5761148c6131a9565b60200260200101516001600160a01b031614611703576000836001600160a01b0316635653b4146040518163ffffffff1660e01b815260040160206040518083038186803b1580156114dd57600080fd5b505afa1580156114f1573d6000803e3d6000fd5b505050506040513d601f19601f820116820180604052508101906115159190612e6f565b9050806115a857306001600160a01b031663548f5ae56036878154811061153e5761153e6131a9565b60009182526020909120015460405160e083901b6001600160e01b03191681526001600160a01b039091166004820152602401600060405180830381600087803b15801561158b57600080fd5b505af115801561159f573d6000803e3d6000fd5b50505050611701565b60008383815181106115bc576115bc6131a9565b602002602001015190506000816001600160a01b03166370a08231603689815481106115ea576115ea6131a9565b60009182526020909120015460405160e083901b6001600160e01b03191681526001600160a01b03909116600482015260240160206040518083038186803b15801561163557600080fd5b505afa158015611649573d6000803e3d6000fd5b505050506040513d601f19601f8201168201806040525081019061166d9190612e6f565b90508281106116fe57306001600160a01b031663548f5ae560368981548110611698576116986131a9565b60009182526020909120015460405160e083901b6001600160e01b03191681526001600160a01b039091166004820152602401600060405180830381600087803b1580156116e557600080fd5b505af11580156116f9573d6000803e3d6000fd5b505050505b50505b505b8061170d81613178565b915050611466565b505050808061172390613178565b9150506113ab565b5060006117366126bc565b9050806117405750565b600061174a6127c7565b905060006117588383612823565b905060008261177e5760395461177790670de0b6b3a7640000906125de565b90506117bb565b61179784611127846039546125c690919063ffffffff16565b905080670de0b6b3a764000011156113a257611777670de0b6b3a7640000826125de565b806117c65750505050565b60005b603454811015611996576000603482815481106117e8576117e86131a9565b60009182526020822001546040516370a0823160e01b81523060048201526001600160a01b03909116925082906370a082319060240160206040518083038186803b15801561183657600080fd5b505afa15801561184a573d6000803e3d6000fd5b505050506040513d601f19601f8201168201806040525081019061186e9190612e6f565b90508061187c575050611984565b6000611888828661282f565b6001600160a01b038085166000908152604060208190529020549192501680158015906118b55750600082115b1561197f57806118cf6001600160a01b0386168285612844565b6040516311f9fbc960e21b81526001600160a01b038681166004830152602482018590528216906347e7ef2490604401600060405180830381600087803b15801561191957600080fd5b505af115801561192d573d6000803e3d6000fd5b5050604080516001600160a01b03808a168252861660208201529081018690527f41b99659f6ba0803f444aff29e5bf6e26dd86a3219aff92119d69710a956ba8d9250606001905060405180910390a1505b505050505b8061198e81613178565b9150506117c9565b506042546001600160a01b03168015611a1257604260009054906101000a90046001600160a01b03166001600160a01b0316638119c0656040518163ffffffff1660e01b8152600401600060405180830381600087803b1580156119f957600080fd5b505af1158015611a0d573d6000803e3d6000fd5b505050505b5050505050565b6001600160a01b038116611a6f5760405162461bcd60e51b815260206004820152601a60248201527f4e657720476f7665726e6f722069732061646472657373283029000000000000604482015260640161062e565b806001600160a01b0316611a8f60008051602061320b8339815191525490565b6001600160a01b03167fc7c0c772add429241571afb3805861fb3cfa2af374534088b76cdb4325a87e9a60405160405180910390a3611ada8160008051602061320b83398151915255565b50565b6040516370a0823160e01b815230600482015260009082906001600160a01b038216906370a082319060240160206040518083038186803b158015611b2157600080fd5b505afa158015611b35573d6000803e3d6000fd5b505050506040513d601f19601f82011682018060405250810190611b599190612e6f565b915060005b603654811015611ca657600060368281548110611b7d57611b7d6131a9565b60009182526020909120015460405163551c457b60e11b81526001600160a01b0387811660048301529091169150819063aa388af69060240160206040518083038186803b158015611bce57600080fd5b505afa158015611be2573d6000803e3d6000fd5b505050506040513d601f19601f82011682018060405250810190611c069190612e34565b15611c9357604051632fa8a91360e11b81526001600160a01b038681166004830152611c909190831690635f5152269060240160206040518083038186803b158015611c5157600080fd5b505afa158015611c65573d6000803e3d6000fd5b505050506040513d601f19601f82011682018060405250810190611c899190612e6f565b8590612823565b93505b5080611c9e81613178565b915050611b5e565b5050919050565b6060600080611cbb60345490565b90506000611cc7612874565b905060008267ffffffffffffffff811115611ce457611ce46131bf565b604051908082528060200260200182016040528015611d0d578160200160208202803683370190505b50905060008367ffffffffffffffff811115611d2b57611d2b6131bf565b604051908082528060200260200182016040528015611d54578160200160208202803683370190505b50905060008467ffffffffffffffff811115611d7257611d726131bf565b604051908082528060200260200182016040528015611d9b578160200160208202803683370190505b5060385490975015611dd4576000611dc46127106111276038548c6125c690919063ffffffff16565b9050611dd089826125de565b9850505b60005b603454811015611eb3576000611e1360348381548110611df957611df96131a9565b6000918252602090912001546001600160a01b0316611add565b90506000611e4760348481548110611e2d57611e2d6131a9565b6000918252602090912001546001600160a01b0316610e8e565b905081868481518110611e5c57611e5c6131a9565b60200260200101818152505080858481518110611e7b57611e7b6131a9565b6020908102919091010152611e9c611e9583601284610f77565b8a90612823565b985050508080611eab90613178565b915050611dd7565b5060005b603454811015611f75576000858281518110611ed557611ed56131a9565b60200260200101519050670de0b6b3a7640000811015611efa5750670de0b6b3a76400005b6000611f528961112784611f4c60128a8981518110611f1b57611f1b6131a9565b60200260200101518c8a81518110611f3557611f356131a9565b6020026020010151610f779092919063ffffffff16565b906125c6565b9050611f5e8482612823565b935050508080611f6d90613178565b915050611eb7565b506000611f8289836129c4565b905060005b603454811015611ff057611fc18861112784888581518110611fab57611fab6131a9565b60200260200101516125c690919063ffffffff16565b898281518110611fd357611fd36131a9565b602090810291909101015280611fe881613178565b915050611f87565b50505050505050915091565b6000821161204c5760405162461bcd60e51b815260206004820152601d60248201527f416d6f756e74206d7573742062652067726561746572207468616e2030000000604482015260640161062e565b60008061205884611cad565b915091506000603c60009054906101000a90046001600160a01b03166001600160a01b03166318160ddd6040518163ffffffff1660e01b815260040160206040518083038186803b1580156120ac57600080fd5b505afa1580156120c0573d6000803e3d6000fd5b505050506040513d601f19601f820116820180604052508101906120e49190612e6f565b604154909150156121885760006120fb82846129c4565b9050604154670de0b6b3a7640000821161212657612121670de0b6b3a7640000836125de565b612138565b61213882670de0b6b3a76400006125de565b11156121865760405162461bcd60e51b815260206004820152601e60248201527f4261636b696e6720737570706c79206c6971756964697479206572726f720000604482015260640161062e565b505b60408051338152602081018790527f222838db2794d11532d940e8dec38ae307ed0b63cd97c233322e221f998767a6910160405180910390a160005b603454811015612466578381815181106121e0576121e06131a9565b6020026020010151600014156121f557612454565b60006034828154811061220a5761220a6131a9565b60009182526020909120015485516001600160a01b039091169150859083908110612237576122376131a9565b60209081029190910101516040516370a0823160e01b81523060048201526001600160a01b038316906370a082319060240160206040518083038186803b15801561228157600080fd5b505afa158015612295573d6000803e3d6000fd5b505050506040513d601f19601f820116820180604052508101906122b99190612e6f565b106122fa576122f5338684815181106122d4576122d46131a9565b6020026020010151836001600160a01b03166128449092919063ffffffff16565b612452565b60006040600060348581548110612313576123136131a9565b60009182526020808320909101546001600160a01b0390811684529083019390935260409091019020541690508015612416576000819050806001600160a01b031663d9caed12336034878154811061236e5761236e6131a9565b9060005260206000200160009054906101000a90046001600160a01b03168a888151811061239e5761239e6131a9565b60209081029190910101516040516001600160e01b031960e086901b1681526001600160a01b0393841660048201529290911660248301526044820152606401600060405180830381600087803b1580156123f857600080fd5b505af115801561240c573d6000803e3d6000fd5b5050505050612450565b60405162461bcd60e51b815260206004820152600f60248201526e2634b8bab4b234ba3c9032b93937b960891b604482015260640161062e565b505b505b8061245e81613178565b9150506121c4565b50831561251f576000805b84518110156124cc57600061249260348381548110611e2d57611e2d6131a9565b90506124b66124af601283898681518110611f3557611f356131a9565b8490612823565b92505080806124c490613178565b915050612471565b508481101561251d5760405162461bcd60e51b815260206004820181905260248201527f52656465656d20616d6f756e74206c6f776572207468616e206d696e696d756d604482015260640161062e565b505b603c54604051632770a7eb60e21b8152336004820152602481018790526001600160a01b0390911690639dc29fac90604401600060405180830381600087803b15801561256b57600080fd5b505af115801561257f573d6000803e3d6000fd5b50505050603b548511801561259e5750603754600160a01b900460ff16155b15611a1257611a12610ffd565b60006105ff6125b86127c7565b6125c06126bc565b90612823565b6000610fd48284613116565b6000610fd48284613009565b6000610fd48284613135565b600061263f826040518060400160405280602081526020017f5361666545524332303a206c6f772d6c6576656c2063616c6c206661696c6564815250856001600160a01b03166129ed9092919063ffffffff16565b805190915015611332578080602001905181019061265d9190612e34565b6113325760405162461bcd60e51b815260206004820152602a60248201527f5361666545524332303a204552433230206f7065726174696f6e20646964206e6044820152691bdd081cdd58d8d9595960b21b606482015260840161062e565b6000805b6034548110156127c3576000603482815481106126df576126df6131a9565b6000918252602082200154603480546001600160a01b03909216935061270f9185908110611e2d57611e2d6131a9565b6040516370a0823160e01b81523060048201529091506000906001600160a01b038416906370a082319060240160206040518083038186803b15801561275457600080fd5b505afa158015612768573d6000803e3d6000fd5b505050506040513d601f19601f8201168201806040525081019061278c9190612e6f565b905080156127ad576127aa6127a382601285610f77565b8690612823565b94505b50505080806127bb90613178565b9150506126c0565b5090565b6000805b6036548110156127c35761280f612808603683815481106127ee576127ee6131a9565b6000918252602090912001546001600160a01b03166129fc565b8390612823565b91508061281b81613178565b9150506127cb565b6000610fd48284612ff1565b6000610fd48383670de0b6b3a7640000610fdb565b6040516001600160a01b03831660248201526044810182905261133290849063a9059cbb60e01b9060640161136b565b606061287f60345490565b67ffffffffffffffff811115612897576128976131bf565b6040519080825280602002602001820160405280156128c0578160200160208202803683370190505b506037549091506001600160a01b031660005b6034548110156129bf5761299060126008846001600160a01b031663aea9107860348681548110612906576129066131a9565b60009182526020909120015460405160e083901b6001600160e01b03191681526001600160a01b03909116600482015260240160206040518083038186803b15801561295157600080fd5b505afa158015612965573d6000803e3d6000fd5b505050506040513d601f19601f820116820180604052508101906129899190612e6f565b9190610f77565b8382815181106129a2576129a26131a9565b6020908102919091010152806129b781613178565b9150506128d3565b505090565b6000806129d984670de0b6b3a76400006125c6565b90506129e581846125d2565b949350505050565b60606129e58484600085612ba5565b600081815b603454811015611ca6576000612a2360348381548110611e2d57611e2d6131a9565b9050826001600160a01b031663aa388af660348481548110612a4757612a476131a9565b60009182526020909120015460405160e083901b6001600160e01b03191681526001600160a01b03909116600482015260240160206040518083038186803b158015612a9257600080fd5b505afa158015612aa6573d6000803e3d6000fd5b505050506040513d601f19601f82011682018060405250810190612aca9190612e34565b15612b92576000836001600160a01b0316635f51522660348581548110612af357612af36131a9565b60009182526020909120015460405160e083901b6001600160e01b03191681526001600160a01b03909116600482015260240160206040518083038186803b158015612b3e57600080fd5b505afa158015612b52573d6000803e3d6000fd5b505050506040513d601f19601f82011682018060405250810190612b769190612e6f565b90508015612b9057612b8d6127a382601285610f77565b94505b505b5080612b9d81613178565b915050612a01565b606082471015612c065760405162461bcd60e51b815260206004820152602660248201527f416464726573733a20696e73756666696369656e742062616c616e636520666f6044820152651c8818d85b1b60d21b606482015260840161062e565b843b612c545760405162461bcd60e51b815260206004820152601d60248201527f416464726573733a2063616c6c20746f206e6f6e2d636f6e7472616374000000604482015260640161062e565b600080866001600160a01b03168587604051612c709190612ecd565b60006040518083038185875af1925050503d8060008114612cad576040519150601f19603f3d011682016040523d82523d6000602084013e612cb2565b606091505b5091509150612cc2828286612ccd565b979650505050505050565b60608315612cdc575081610fd4565b825115612cec5782518084602001fd5b8160405162461bcd60e51b815260040161062e9190612f6e565b8051612d11816131d5565b919050565b600060208284031215612d2857600080fd5b8135610fd4816131d5565b600080600060608486031215612d4857600080fd5b8335612d53816131d5565b95602085013595506040909401359392505050565b60006020808385031215612d7b57600080fd5b825167ffffffffffffffff80821115612d9357600080fd5b818501915085601f830112612da757600080fd5b815181811115612db957612db96131bf565b8060051b604051601f19603f83011681018181108582111715612dde57612dde6131bf565b604052828152858101935084860182860187018a1015612dfd57600080fd5b600095505b83861015612e2757612e1381612d06565b855260019590950194938601938601612e02565b5098975050505050505050565b600060208284031215612e4657600080fd5b81518015158114610fd457600080fd5b600060208284031215612e6857600080fd5b5035919050565b600060208284031215612e8157600080fd5b5051919050565b60008060408385031215612e9b57600080fd5b50508035926020909101359150565b600060208284031215612ebc57600080fd5b815160ff81168114610fd457600080fd5b60008251612edf81846020870161314c565b9190910192915050565b6020808252825182820181905260009190848201906040850190845b81811015612f2a5783516001600160a01b031683529284019291840191600101612f05565b50909695505050505050565b6020808252825182820181905260009190848201906040850190845b81811015612f2a57835183529284019291840191600101612f52565b6020815260008251806020840152612f8d81604085016020870161314c565b601f01601f19169190910160400192915050565b6020808252600e908201526d10d85c1a5d185b081c185d5cd95960921b604082015260600190565b6020808252600e908201526d1499595b9d1c985b9d0818d85b1b60921b604082015260600190565b6000821982111561300457613004613193565b500190565b60008261302657634e487b7160e01b600052601260045260246000fd5b500490565b600181815b8085111561306657816000190482111561304c5761304c613193565b8085161561305957918102915b93841c9390800290613030565b509250929050565b6000610fd4838360008261308457506001610a5d565b8161309157506000610a5d565b81600181146130a757600281146130b1576130cd565b6001915050610a5d565b60ff8411156130c2576130c2613193565b50506001821b610a5d565b5060208310610133831016604e8410600b84101617156130f0575081810a610a5d565b6130fa838361302b565b806000190482111561310e5761310e613193565b029392505050565b600081600019048311821515161561313057613130613193565b500290565b60008282101561314757613147613193565b500390565b60005b8381101561316757818101518382015260200161314f565b838111156113a25750506000910152565b600060001982141561318c5761318c613193565b5060010190565b634e487b7160e01b600052601160045260246000fd5b634e487b7160e01b600052603260045260246000fd5b634e487b7160e01b600052604160045260246000fd5b6001600160a01b0381168114611ada57600080fdfe218adab1852f0bdeacb3305483cf296dbcf6abf496f646284463c8e6a43fa665fe7bb572d5723516ce4fe7a6a664f5adb38f5714efcd271411ed70a34d3ef2f7a2646970667358221220523c2361f14b1fb07cec3832cbde9ec26afe78774e383a294feff1374193e8b164736f6c63430008070033fe7bb572d5723516ce4fe7a6a664f5adb38f5714efcd271411ed70a34d3ef2f7",
  "devdoc": {
    "kind": "dev",
    "methods": {
      "allocate()": {
        "details": "Allocate unallocated funds on Vault to strategies.*"
      },
      "checkBalance(address)": {
        "params": {
          "_asset": "Address of asset"
        },
        "returns": {
          "_0": "uint256 Balance of asset in decimals of asset"
        }
      },
      "claimGovernance()": {
        "details": "Claim Governance of the contract to a new account (`newGovernor`). Can only be called by the new Governor."
      },
      "getAllAssets()": {
        "details": "Return all asset addresses in order"
      },
      "getAssetCount()": {
        "details": "Return the number of assets supported by the Vault."
      },
      "getStrategyCount()": {
        "details": "Return the number of strategies active on the Vault."
      },
      "governor()": {
        "details": "Returns the address of the current Governor."
      },
      "isGovernor()": {
        "details": "Returns true if the caller is the current Governor."
      },
      "mint(address,uint256,uint256)": {
        "details": "Deposit a supported asset and mint XUSD.",
        "params": {
          "_amount": "Amount of the asset being deposited",
          "_asset": "Address of the asset being deposited",
          "_minimumXusdAmount": "Minimum XUSD to mint"
        }
      },
      "rebase()": {
        "details": "Calculate the total value of assets held by the Vault and all      strategies and update the supply of XUSD."
      },
      "redeem(uint256,uint256)": {
        "details": "Withdraw a supported asset and burn XUSD.",
        "params": {
          "_amount": "Amount of XUSD to burn",
          "_minimumUnitAmount": "Minimum stablecoin units to receive in return"
        }
      },
      "redeemAll(uint256)": {
        "params": {
          "_minimumUnitAmount": "Minimum stablecoin units to receive in return"
        }
      },
      "setAdminImpl(address)": {
        "details": "set the implementation for the admin, this needs to be in a base class else we cannot set it",
        "params": {
          "newImpl": "address of the implementation"
        }
      },
      "totalValue()": {
        "details": "Determine the total value of assets held by the vault and its         strategies.",
        "returns": {
          "value": "Total value in USD (1e18)"
        }
      },
      "transferGovernance(address)": {
        "details": "Transfers Governance of the contract to a new account (`newGovernor`). Can only be called by the current Governor. Must be claimed for this to complete",
        "params": {
          "_newGovernor": "Address of the new Governor"
        }
      }
    },
    "version": 1
  },
  "userdoc": {
    "kind": "user",
    "methods": {
      "allocate()": {
        "notice": "Allocate unallocated funds on Vault to strategies."
      },
      "calculateRedeemOutputs(uint256)": {
        "notice": "Calculate the outputs for a redeem function, i.e. the mix of coins that will be returned"
      },
      "checkBalance(address)": {
        "notice": "Get the balance of an asset held in Vault and all strategies."
      },
      "redeemAll(uint256)": {
        "notice": "Withdraw a supported asset and burn all XUSD."
      }
    },
    "version": 1
  },
  "storageLayout": {
    "storage": [
      {
        "astId": 12147,
        "contract": "contracts/vault/VaultCore.sol:VaultCore",
        "label": "initialized",
        "offset": 0,
        "slot": "0",
        "type": "t_bool"
      },
      {
        "astId": 12150,
        "contract": "contracts/vault/VaultCore.sol:VaultCore",
        "label": "initializing",
        "offset": 1,
        "slot": "0",
        "type": "t_bool"
      },
      {
        "astId": 12190,
        "contract": "contracts/vault/VaultCore.sol:VaultCore",
        "label": "______gap",
        "offset": 0,
        "slot": "1",
        "type": "t_array(t_uint256)50_storage"
      },
      {
        "astId": 16173,
        "contract": "contracts/vault/VaultCore.sol:VaultCore",
        "label": "assets",
        "offset": 0,
        "slot": "51",
        "type": "t_mapping(t_address,t_struct(Asset)16168_storage)"
      },
      {
        "astId": 16176,
        "contract": "contracts/vault/VaultCore.sol:VaultCore",
        "label": "allAssets",
        "offset": 0,
        "slot": "52",
        "type": "t_array(t_address)dyn_storage"
      },
      {
        "astId": 16186,
        "contract": "contracts/vault/VaultCore.sol:VaultCore",
        "label": "strategies",
        "offset": 0,
        "slot": "53",
        "type": "t_mapping(t_address,t_struct(Strategy)16181_storage)"
      },
      {
        "astId": 16189,
        "contract": "contracts/vault/VaultCore.sol:VaultCore",
        "label": "allStrategies",
        "offset": 0,
        "slot": "54",
        "type": "t_array(t_address)dyn_storage"
      },
      {
        "astId": 16191,
        "contract": "contracts/vault/VaultCore.sol:VaultCore",
        "label": "priceProvider",
        "offset": 0,
        "slot": "55",
        "type": "t_address"
      },
      {
        "astId": 16194,
        "contract": "contracts/vault/VaultCore.sol:VaultCore",
        "label": "rebasePaused",
        "offset": 20,
        "slot": "55",
        "type": "t_bool"
      },
      {
        "astId": 16197,
        "contract": "contracts/vault/VaultCore.sol:VaultCore",
        "label": "capitalPaused",
        "offset": 21,
        "slot": "55",
        "type": "t_bool"
      },
      {
        "astId": 16199,
        "contract": "contracts/vault/VaultCore.sol:VaultCore",
        "label": "redeemFeeBps",
        "offset": 0,
        "slot": "56",
        "type": "t_uint256"
      },
      {
        "astId": 16201,
        "contract": "contracts/vault/VaultCore.sol:VaultCore",
        "label": "vaultBuffer",
        "offset": 0,
        "slot": "57",
        "type": "t_uint256"
      },
      {
        "astId": 16203,
        "contract": "contracts/vault/VaultCore.sol:VaultCore",
        "label": "autoAllocateThreshold",
        "offset": 0,
        "slot": "58",
        "type": "t_uint256"
      },
      {
        "astId": 16205,
        "contract": "contracts/vault/VaultCore.sol:VaultCore",
        "label": "rebaseThreshold",
        "offset": 0,
        "slot": "59",
        "type": "t_uint256"
      },
      {
        "astId": 16208,
        "contract": "contracts/vault/VaultCore.sol:VaultCore",
        "label": "xUSD",
        "offset": 0,
        "slot": "60",
        "type": "t_contract(XUSD)12088"
      },
      {
        "astId": 16217,
        "contract": "contracts/vault/VaultCore.sol:VaultCore",
        "label": "_deprecated_rebaseHooksAddr",
        "offset": 0,
        "slot": "61",
        "type": "t_address"
      },
      {
        "astId": 16223,
        "contract": "contracts/vault/VaultCore.sol:VaultCore",
        "label": "uniswapAddr",
        "offset": 0,
        "slot": "62",
        "type": "t_address"
      },
      {
        "astId": 16229,
        "contract": "contracts/vault/VaultCore.sol:VaultCore",
        "label": "strategistAddr",
        "offset": 0,
        "slot": "63",
        "type": "t_address"
      },
      {
        "astId": 16233,
        "contract": "contracts/vault/VaultCore.sol:VaultCore",
        "label": "assetDefaultStrategies",
        "offset": 0,
        "slot": "64",
        "type": "t_mapping(t_address,t_address)"
      },
      {
        "astId": 16235,
        "contract": "contracts/vault/VaultCore.sol:VaultCore",
        "label": "maxSupplyDiff",
        "offset": 0,
        "slot": "65",
        "type": "t_uint256"
      },
      {
        "astId": 16237,
        "contract": "contracts/vault/VaultCore.sol:VaultCore",
        "label": "trusteeAddress",
        "offset": 0,
        "slot": "66",
        "type": "t_address"
      },
      {
        "astId": 16239,
        "contract": "contracts/vault/VaultCore.sol:VaultCore",
        "label": "trusteeFeeBps",
        "offset": 0,
        "slot": "67",
        "type": "t_uint256"
      },
      {
        "astId": 16242,
        "contract": "contracts/vault/VaultCore.sol:VaultCore",
        "label": "swapTokens",
        "offset": 0,
        "slot": "68",
        "type": "t_array(t_address)dyn_storage"
      }
    ],
    "types": {
      "t_address": {
        "encoding": "inplace",
        "label": "address",
        "numberOfBytes": "20"
      },
      "t_array(t_address)dyn_storage": {
        "base": "t_address",
        "encoding": "dynamic_array",
        "label": "address[]",
        "numberOfBytes": "32"
      },
      "t_array(t_uint256)50_storage": {
        "base": "t_uint256",
        "encoding": "inplace",
        "label": "uint256[50]",
        "numberOfBytes": "1600"
      },
      "t_bool": {
        "encoding": "inplace",
        "label": "bool",
        "numberOfBytes": "1"
      },
      "t_contract(XUSD)12088": {
        "encoding": "inplace",
        "label": "contract XUSD",
        "numberOfBytes": "20"
      },
      "t_mapping(t_address,t_address)": {
        "encoding": "mapping",
        "key": "t_address",
        "label": "mapping(address => address)",
        "numberOfBytes": "32",
        "value": "t_address"
      },
      "t_mapping(t_address,t_struct(Asset)16168_storage)": {
        "encoding": "mapping",
        "key": "t_address",
        "label": "mapping(address => struct VaultStorage.Asset)",
        "numberOfBytes": "32",
        "value": "t_struct(Asset)16168_storage"
      },
      "t_mapping(t_address,t_struct(Strategy)16181_storage)": {
        "encoding": "mapping",
        "key": "t_address",
        "label": "mapping(address => struct VaultStorage.Strategy)",
        "numberOfBytes": "32",
        "value": "t_struct(Strategy)16181_storage"
      },
      "t_struct(Asset)16168_storage": {
        "encoding": "inplace",
        "label": "struct VaultStorage.Asset",
        "members": [
          {
            "astId": 16167,
            "contract": "contracts/vault/VaultCore.sol:VaultCore",
            "label": "isSupported",
            "offset": 0,
            "slot": "0",
            "type": "t_bool"
          }
        ],
        "numberOfBytes": "32"
      },
      "t_struct(Strategy)16181_storage": {
        "encoding": "inplace",
        "label": "struct VaultStorage.Strategy",
        "members": [
          {
            "astId": 16178,
            "contract": "contracts/vault/VaultCore.sol:VaultCore",
            "label": "isSupported",
            "offset": 0,
            "slot": "0",
            "type": "t_bool"
          },
          {
            "astId": 16180,
            "contract": "contracts/vault/VaultCore.sol:VaultCore",
            "label": "_deprecated",
            "offset": 0,
            "slot": "1",
            "type": "t_uint256"
          }
        ],
        "numberOfBytes": "64"
      },
      "t_uint256": {
        "encoding": "inplace",
        "label": "uint256",
        "numberOfBytes": "32"
      }
    }
  }
}