{
  "address": "0x72B988aF05FcFA7cf1c0352eDaFF201caB638E98",
  "abi": [
    {
      "anonymous": false,
      "inputs": [
        {
          "indexed": true,
          "internalType": "address",
          "name": "owner",
          "type": "address"
        },
        {
          "indexed": true,
          "internalType": "address",
          "name": "spender",
          "type": "address"
        },
        {
          "indexed": false,
          "internalType": "uint256",
          "name": "value",
          "type": "uint256"
        }
      ],
      "name": "Approval",
      "type": "event"
    },
    {
      "anonymous": false,
      "inputs": [
        {
          "indexed": true,
          "internalType": "address",
          "name": "previousGovernor",
          "type": "address"
        },
        {
          "indexed": true,
          "internalType": "address",
          "name": "newGovernor",
          "type": "address"
        }
      ],
      "name": "GovernorshipTransferred",
      "type": "event"
    },
    {
      "anonymous": false,
      "inputs": [
        {
          "indexed": true,
          "internalType": "address",
          "name": "previousGovernor",
          "type": "address"
        },
        {
          "indexed": true,
          "internalType": "address",
          "name": "newGovernor",
          "type": "address"
        }
      ],
      "name": "PendingGovernorshipTransfer",
      "type": "event"
    },
    {
      "anonymous": false,
      "inputs": [
        {
          "indexed": false,
          "internalType": "uint256",
          "name": "totalSupply",
          "type": "uint256"
        },
        {
          "indexed": false,
          "internalType": "uint256",
          "name": "rebasingCredits",
          "type": "uint256"
        },
        {
          "indexed": false,
          "internalType": "uint256",
          "name": "rebasingCreditsPerToken",
          "type": "uint256"
        }
      ],
      "name": "TotalSupplyUpdated",
      "type": "event"
    },
    {
      "anonymous": false,
      "inputs": [
        {
          "indexed": true,
          "internalType": "address",
          "name": "from",
          "type": "address"
        },
        {
          "indexed": true,
          "internalType": "address",
          "name": "to",
          "type": "address"
        },
        {
          "indexed": false,
          "internalType": "uint256",
          "name": "value",
          "type": "uint256"
        }
      ],
      "name": "Transfer",
      "type": "event"
    },
    {
      "inputs": [],
      "name": "_totalSupply",
      "outputs": [
        {
          "internalType": "uint256",
          "name": "",
          "type": "uint256"
        }
      ],
      "stateMutability": "view",
      "type": "function"
    },
    {
      "inputs": [
        {
          "internalType": "address",
          "name": "_owner",
          "type": "address"
        },
        {
          "internalType": "address",
          "name": "_spender",
          "type": "address"
        }
      ],
      "name": "allowance",
      "outputs": [
        {
          "internalType": "uint256",
          "name": "",
          "type": "uint256"
        }
      ],
      "stateMutability": "view",
      "type": "function"
    },
    {
      "inputs": [
        {
          "internalType": "address",
          "name": "_spender",
          "type": "address"
        },
        {
          "internalType": "uint256",
          "name": "_value",
          "type": "uint256"
        }
      ],
      "name": "approve",
      "outputs": [
        {
          "internalType": "bool",
          "name": "",
          "type": "bool"
        }
      ],
      "stateMutability": "nonpayable",
      "type": "function"
    },
    {
      "inputs": [
        {
          "internalType": "address",
          "name": "_account",
          "type": "address"
        }
      ],
      "name": "balanceOf",
      "outputs": [
        {
          "internalType": "uint256",
          "name": "",
          "type": "uint256"
        }
      ],
      "stateMutability": "view",
      "type": "function"
    },
    {
      "inputs": [
        {
          "internalType": "address",
          "name": "account",
          "type": "address"
        },
        {
          "internalType": "uint256",
          "name": "amount",
          "type": "uint256"
        }
      ],
      "name": "burn",
      "outputs": [],
      "stateMutability": "nonpayable",
      "type": "function"
    },
    {
      "inputs": [
        {
          "internalType": "uint256",
          "name": "_newTotalSupply",
          "type": "uint256"
        }
      ],
      "name": "changeSupply",
      "outputs": [],
      "stateMutability": "nonpayable",
      "type": "function"
    },
    {
      "inputs": [],
      "name": "claimGovernance",
      "outputs": [],
      "stateMutability": "nonpayable",
      "type": "function"
    },
    {
      "inputs": [
        {
          "internalType": "address",
          "name": "_account",
          "type": "address"
        }
      ],
      "name": "creditsBalanceOf",
      "outputs": [
        {
          "internalType": "uint256",
          "name": "",
          "type": "uint256"
        },
        {
          "internalType": "uint256",
          "name": "",
          "type": "uint256"
        }
      ],
      "stateMutability": "view",
      "type": "function"
    },
    {
      "inputs": [],
      "name": "decimals",
      "outputs": [
        {
          "internalType": "uint8",
          "name": "",
          "type": "uint8"
        }
      ],
      "stateMutability": "view",
      "type": "function"
    },
    {
      "inputs": [
        {
          "internalType": "address",
          "name": "_spender",
          "type": "address"
        },
        {
          "internalType": "uint256",
          "name": "_subtractedValue",
          "type": "uint256"
        }
      ],
      "name": "decreaseAllowance",
      "outputs": [
        {
          "internalType": "bool",
          "name": "",
          "type": "bool"
        }
      ],
      "stateMutability": "nonpayable",
      "type": "function"
    },
    {
      "inputs": [],
      "name": "governor",
      "outputs": [
        {
          "internalType": "address",
          "name": "",
          "type": "address"
        }
      ],
      "stateMutability": "view",
      "type": "function"
    },
    {
      "inputs": [
        {
          "internalType": "address",
          "name": "_spender",
          "type": "address"
        },
        {
          "internalType": "uint256",
          "name": "_addedValue",
          "type": "uint256"
        }
      ],
      "name": "increaseAllowance",
      "outputs": [
        {
          "internalType": "bool",
          "name": "",
          "type": "bool"
        }
      ],
      "stateMutability": "nonpayable",
      "type": "function"
    },
    {
      "inputs": [
        {
          "internalType": "string",
          "name": "_nameArg",
          "type": "string"
        },
        {
          "internalType": "string",
          "name": "_symbolArg",
          "type": "string"
        },
        {
          "internalType": "address",
          "name": "_vaultAddress",
          "type": "address"
        }
      ],
      "name": "initialize",
      "outputs": [],
      "stateMutability": "nonpayable",
      "type": "function"
    },
    {
      "inputs": [],
      "name": "isGovernor",
      "outputs": [
        {
          "internalType": "bool",
          "name": "",
          "type": "bool"
        }
      ],
      "stateMutability": "view",
      "type": "function"
    },
    {
      "inputs": [
        {
          "internalType": "address",
          "name": "",
          "type": "address"
        }
      ],
      "name": "isUpgraded",
      "outputs": [
        {
          "internalType": "uint256",
          "name": "",
          "type": "uint256"
        }
      ],
      "stateMutability": "view",
      "type": "function"
    },
    {
      "inputs": [
        {
          "internalType": "address",
          "name": "_account",
          "type": "address"
        },
        {
          "internalType": "uint256",
          "name": "_amount",
          "type": "uint256"
        }
      ],
      "name": "mint",
      "outputs": [],
      "stateMutability": "nonpayable",
      "type": "function"
    },
    {
      "inputs": [],
      "name": "name",
      "outputs": [
        {
          "internalType": "string",
          "name": "",
          "type": "string"
        }
      ],
      "stateMutability": "view",
      "type": "function"
    },
    {
      "inputs": [
        {
          "internalType": "address",
          "name": "",
          "type": "address"
        }
      ],
      "name": "nonRebasingCreditsPerToken",
      "outputs": [
        {
          "internalType": "uint256",
          "name": "",
          "type": "uint256"
        }
      ],
      "stateMutability": "view",
      "type": "function"
    },
    {
      "inputs": [],
      "name": "nonRebasingSupply",
      "outputs": [
        {
          "internalType": "uint256",
          "name": "",
          "type": "uint256"
        }
      ],
      "stateMutability": "view",
      "type": "function"
    },
    {
      "inputs": [],
      "name": "rebaseOptIn",
      "outputs": [],
      "stateMutability": "nonpayable",
      "type": "function"
    },
    {
      "inputs": [],
      "name": "rebaseOptOut",
      "outputs": [],
      "stateMutability": "nonpayable",
      "type": "function"
    },
    {
      "inputs": [
        {
          "internalType": "address",
          "name": "",
          "type": "address"
        }
      ],
      "name": "rebaseState",
      "outputs": [
        {
          "internalType": "enum XUSD.RebaseOptions",
          "name": "",
          "type": "uint8"
        }
      ],
      "stateMutability": "view",
      "type": "function"
    },
    {
      "inputs": [],
      "name": "rebasingCredits",
      "outputs": [
        {
          "internalType": "uint256",
          "name": "",
          "type": "uint256"
        }
      ],
      "stateMutability": "view",
      "type": "function"
    },
    {
      "inputs": [],
      "name": "rebasingCreditsPerToken",
      "outputs": [
        {
          "internalType": "uint256",
          "name": "",
          "type": "uint256"
        }
      ],
      "stateMutability": "view",
      "type": "function"
    },
    {
      "inputs": [],
      "name": "symbol",
      "outputs": [
        {
          "internalType": "string",
          "name": "",
          "type": "string"
        }
      ],
      "stateMutability": "view",
      "type": "function"
    },
    {
      "inputs": [],
      "name": "totalSupply",
      "outputs": [
        {
          "internalType": "uint256",
          "name": "",
          "type": "uint256"
        }
      ],
      "stateMutability": "view",
      "type": "function"
    },
    {
      "inputs": [
        {
          "internalType": "address",
          "name": "_to",
          "type": "address"
        },
        {
          "internalType": "uint256",
          "name": "_value",
          "type": "uint256"
        }
      ],
      "name": "transfer",
      "outputs": [
        {
          "internalType": "bool",
          "name": "",
          "type": "bool"
        }
      ],
      "stateMutability": "nonpayable",
      "type": "function"
    },
    {
      "inputs": [
        {
          "internalType": "address",
          "name": "_from",
          "type": "address"
        },
        {
          "internalType": "address",
          "name": "_to",
          "type": "address"
        },
        {
          "internalType": "uint256",
          "name": "_value",
          "type": "uint256"
        }
      ],
      "name": "transferFrom",
      "outputs": [
        {
          "internalType": "bool",
          "name": "",
          "type": "bool"
        }
      ],
      "stateMutability": "nonpayable",
      "type": "function"
    },
    {
      "inputs": [
        {
          "internalType": "address",
          "name": "_newGovernor",
          "type": "address"
        }
      ],
      "name": "transferGovernance",
      "outputs": [],
      "stateMutability": "nonpayable",
      "type": "function"
    },
    {
      "inputs": [],
      "name": "vaultAddress",
      "outputs": [
        {
          "internalType": "address",
          "name": "",
          "type": "address"
        }
      ],
      "stateMutability": "view",
      "type": "function"
    }
  ],
  "transactionHash": "0xb184b3434b0325e5636ce662c4258fd6715d7ecfc647eebaa599537345e5141f",
  "args": [],
  "numDeployments": 1,
  "solcInputHash": "8376f040d7d2c6a4f125c51586a93880",
  "bytecode": "0x6080604052609c80546001600160a01b031916905534801561002057600080fd5b5061003733600080516020611ee883398151915255565b600080516020611ee8833981519152546040516001600160a01b03909116906000907fc7c0c772add429241571afb3805861fb3cfa2af374534088b76cdb4325a87e9a908290a3611e5b8061008d6000396000f3fe608060405234801561001057600080fd5b50600436106101da5760003560e01c8063609350cd11610104578063a9059cbb116100a2578063dd62ed3e11610071578063dd62ed3e146103e3578063e696393a1461041c578063f51b0fd414610425578063f9854bfc1461042d57600080fd5b8063a9059cbb146103ad578063c2376dff146103c0578063c7af3352146103c8578063d38bfff4146103d057600080fd5b806395d89b41116100de57806395d89b411461035f57806395ef84b9146103675780639dc29fac14610387578063a457c2d71461039a57600080fd5b8063609350cd146103245780636691cb3d1461034457806370a082311461034c57600080fd5b8063313ce5671161017c57806340c10f191161014b57806340c10f19146102c6578063430bf08a146102d9578063456ee286146102ec5780635d36b1901461031c57600080fd5b8063313ce56714610282578063395093511461029757806339a7919f146102aa5780633eaaf86b146102bd57600080fd5b8063095ea7b3116101b8578063095ea7b3146102245780630c340a241461024757806318160ddd1461026757806323b872dd1461026f57600080fd5b806306fdde03146101df578063077f224a146101fd578063077f22b714610212575b600080fd5b6101e7610455565b6040516101f49190611c3a565b60405180910390f35b61021061020b366004611b78565b6104e7565b005b609e545b6040519081526020016101f4565b610237610232366004611b4e565b610695565b60405190151581526020016101f4565b61024f610701565b6040516001600160a01b0390911681526020016101f4565b609a54610216565b61023761027d366004611b12565b61071e565b60995460405160ff90911681526020016101f4565b6102376102a5366004611b4e565b61086b565b6102106102b8366004611bf9565b6108f0565b610216609a5481565b6102106102d4366004611b4e565b610af9565b609c5461024f906001600160a01b031681565b61030f6102fa366004611ac4565b60a26020526000908152604090205460ff1681565b6040516101f49190611c12565b610210610b31565b610216610332366004611ac4565b60a16020526000908152604090205481565b609f54610216565b61021661035a366004611ac4565b610bd7565b6101e7610c2d565b610216610375366004611ac4565b60a36020526000908152604090205481565b610210610395366004611b4e565b610c3c565b6102376103a8366004611b4e565b610c70565b6102376103bb366004611b4e565b610d57565b610210610e38565b610237610f2c565b6102106103de366004611ac4565b610f5d565b6102166103f1366004611adf565b6001600160a01b039182166000908152609b6020908152604080832093909416825291909152205490565b61021660a05481565b610210611031565b61044061043b366004611ac4565b611155565b604080519283526020830191909152016101f4565b60606097805461046490611d5e565b80601f016020809104026020016040519081016040528092919081815260200182805461049090611d5e565b80156104dd5780601f106104b2576101008083540402835291602001916104dd565b820191906000526020600020905b8154815290600101906020018083116104c057829003601f168201915b5050505050905090565b6104ef610f2c565b6105405760405162461bcd60e51b815260206004820152601a60248201527f43616c6c6572206973206e6f742074686520476f7665726e6f7200000000000060448201526064015b60405180910390fd5b600054610100900460ff1680610559575060005460ff16155b6105bc5760405162461bcd60e51b815260206004820152602e60248201527f496e697469616c697a61626c653a20636f6e747261637420697320616c72656160448201526d191e481a5b9a5d1a585b1a5e995960921b6064820152608401610537565b600054610100900460ff161580156105de576000805461ffff19166101011790555b61065486868080601f01602080910402602001604051908101604052809392919081815260200183838082843760009201919091525050604080516020601f8a01819004810282018101909252888152925088915087908190840183828082843760009201919091525060129250611182915050565b670de0b6b3a7640000609f55609c80546001600160a01b0319166001600160a01b038416179055801561068d576000805461ff00191690555b505050505050565b336000818152609b602090815260408083206001600160a01b038716808552925280832085905551919290917f8c5be1e5ebec7d5bd14f71427d1e84f3dd0314c0f7b2291e5b200ac8c7c3b925906106f09086815260200190565b60405180910390a350600192915050565b6000610719600080516020611e068339815191525490565b905090565b60006001600160a01b0383166107715760405162461bcd60e51b81526020600482015260186024820152775472616e7366657220746f207a65726f206164647265737360401b6044820152606401610537565b61077a84610bd7565b8211156107c95760405162461bcd60e51b815260206004820152601d60248201527f5472616e736665722067726561746572207468616e2062616c616e63650000006044820152606401610537565b6001600160a01b0384166000908152609b602090815260408083203384529091529020546107f790836111c2565b6001600160a01b0385166000908152609b602090815260408083203384529091529020556108268484846111d5565b826001600160a01b0316846001600160a01b0316600080516020611de68339815191528460405161085991815260200190565b60405180910390a35060019392505050565b336000908152609b602090815260408083206001600160a01b03861684529091528120546108999083611343565b336000818152609b602090815260408083206001600160a01b038916808552908352928190208590555193845290927f8c5be1e5ebec7d5bd14f71427d1e84f3dd0314c0f7b2291e5b200ac8c7c3b92591016106f0565b609c546001600160a01b0316331461091a5760405162461bcd60e51b815260040161053790611c8f565b600080516020611dc68339815191528054600281141561094c5760405162461bcd60e51b815260040161053790611cc6565b600282556000609a54116109a25760405162461bcd60e51b815260206004820152601860248201527f43616e6e6f7420696e637265617365203020737570706c7900000000000000006044820152606401610537565b82609a5414156109f857609a54609e54609f5460408051938452602084019290925282820152517f99e56f783b536ffacf422d59183ea321dd80dcd6d23daa13023e8afea38c3df19181900360600190a1610af1565b6001600160801b038311610a0c5782610a15565b6001600160801b035b609a81905560a054610a3391610a2a916111c2565b609e549061134f565b609f819055610a845760405162461bcd60e51b815260206004820152601860248201527f496e76616c6964206368616e676520696e20737570706c7900000000000000006044820152606401610537565b610aa760a054610aa1609f54609e5461134f90919063ffffffff16565b90611343565b609a819055609e54609f5460408051938452602084019290925282820152517f99e56f783b536ffacf422d59183ea321dd80dcd6d23daa13023e8afea38c3df19181900360600190a15b506001905550565b609c546001600160a01b03163314610b235760405162461bcd60e51b815260040161053790611c8f565b610b2d8282611378565b5050565b7f1973cae3d8695cb4c31dce9679edb790944900898ecc70570ba365e7de143b0a546001600160a01b0316336001600160a01b031614610bcc5760405162461bcd60e51b815260206004820152603060248201527f4f6e6c79207468652070656e64696e6720476f7665726e6f722063616e20636f60448201526f6d706c6574652074686520636c61696d60801b6064820152608401610537565b610bd533611519565b565b6001600160a01b0381166000908152609d6020526040812054610bfc57506000919050565b610c27610c08836115dd565b6001600160a01b0384166000908152609d60205260409020549061134f565b92915050565b60606098805461046490611d5e565b609c546001600160a01b03163314610c665760405162461bcd60e51b815260040161053790611c8f565b610b2d8282611624565b336000908152609b602090815260408083206001600160a01b0386168452909152812054808310610cc457336000908152609b602090815260408083206001600160a01b0388168452909152812055610cf3565b610cce81846111c2565b336000908152609b602090815260408083206001600160a01b03891684529091529020555b336000818152609b602090815260408083206001600160a01b038916808552908352928190205490519081529192917f8c5be1e5ebec7d5bd14f71427d1e84f3dd0314c0f7b2291e5b200ac8c7c3b925910160405180910390a35060019392505050565b60006001600160a01b038316610daa5760405162461bcd60e51b81526020600482015260186024820152775472616e7366657220746f207a65726f206164647265737360401b6044820152606401610537565b610db333610bd7565b821115610e025760405162461bcd60e51b815260206004820152601d60248201527f5472616e736665722067726561746572207468616e2062616c616e63650000006044820152606401610537565b610e0d3384846111d5565b6040518281526001600160a01b038416903390600080516020611de6833981519152906020016106f0565b600080516020611dc683398151915280546002811415610e6a5760405162461bcd60e51b815260040161053790611cc6565b60028255610e773361182d565b15610ec45760405162461bcd60e51b815260206004820152601860248201527f4163636f756e7420686173206e6f74206f7074656420696e00000000000000006044820152606401610537565b610ed9610ed033610bd7565b60a05490611343565b60a055609f5433600090815260a16020908152604080832093909355609d90522054609e54610f07916111c2565b609e555033600090815260a260205260409020805460ff191660019081179091559055565b6000610f44600080516020611e068339815191525490565b6001600160a01b0316336001600160a01b031614905090565b610f65610f2c565b610fb15760405162461bcd60e51b815260206004820152601a60248201527f43616c6c6572206973206e6f742074686520476f7665726e6f720000000000006044820152606401610537565b610fd9817f1973cae3d8695cb4c31dce9679edb790944900898ecc70570ba365e7de143b0a55565b806001600160a01b0316610ff9600080516020611e068339815191525490565b6001600160a01b03167fa39cc5eb22d0f34d8beaefee8a3f17cc229c1a1d1ef87a5ad47313487b1c4f0d60405160405180910390a350565b600080516020611dc6833981519152805460028114156110635760405162461bcd60e51b815260040161053790611cc6565b600282556110703361182d565b6110bc5760405162461bcd60e51b815260206004820152601960248201527f4163636f756e7420686173206e6f74206f70746564206f7574000000000000006044820152606401610537565b60006110ec6110ca336115dd565b609f54336000908152609d60205260409020546110e691611898565b906118a4565b90506111036110fa33610bd7565b60a054906111c2565b60a055336000908152609d60205260409020819055609e546111259082611343565b609e55505033600090815260a260209081526040808320805460ff1916600217905560a190915281205560019055565b6001600160a01b0381166000908152609d60205260408120548190611179846115dd565b91509150915091565b82516111959060979060208601906119cb565b5081516111a99060989060208501906119cb565b506099805460ff191660ff929092169190911790555050565b60006111ce8284611d47565b9392505050565b60006111e08361182d565b905060006111ed8561182d565b905060006112046111fd866115dd565b85906118b0565b9050600061121b611214886115dd565b86906118b0565b905061128c816040518060400160405280601f81526020017f5472616e7366657220616d6f756e7420657863656564732062616c616e636500815250609d60008b6001600160a01b03166001600160a01b03168152602001908152602001600020546118c59092919063ffffffff16565b6001600160a01b038089166000908152609d602052604080822093909355908816815220546112bb9083611343565b6001600160a01b0387166000908152609d60205260409020558380156112df575082155b156113095760a0546112f19086611343565b60a055609e5461130190826111c2565b609e5561133a565b831580156113145750825b1561133a5760a05461132690866111c2565b60a055609e546113369083611343565b609e555b50505050505050565b60006111ce8284611cee565b60008061136484670de0b6b3a7640000611898565b905061137081846118a4565b949350505050565b600080516020611dc6833981519152805460028114156113aa5760405162461bcd60e51b815260040161053790611cc6565b600282556001600160a01b0384166114045760405162461bcd60e51b815260206004820152601860248201527f4d696e7420746f20746865207a65726f206164647265737300000000000000006044820152606401610537565b600061140f8561182d565b9050600061141f611214876115dd565b6001600160a01b0387166000908152609d60205260409020549091506114459082611343565b6001600160a01b0387166000908152609d602052604090205581156114795760a0546114719086611343565b60a05561148a565b609e546114869082611343565b609e555b609a546114979086611343565b609a8190556001600160801b03116114de5760405162461bcd60e51b815260206004820152600a6024820152694d617820737570706c7960b01b6044820152606401610537565b6040518581526001600160a01b03871690600090600080516020611de68339815191529060200160405180910390a350506001825550505050565b6001600160a01b03811661156f5760405162461bcd60e51b815260206004820152601a60248201527f4e657720476f7665726e6f7220697320616464726573732830290000000000006044820152606401610537565b806001600160a01b031661158f600080516020611e068339815191525490565b6001600160a01b03167fc7c0c772add429241571afb3805861fb3cfa2af374534088b76cdb4325a87e9a60405160405180910390a36115da81600080516020611e0683398151915255565b50565b6001600160a01b038116600090815260a160205260408120541561161757506001600160a01b0316600090815260a1602052604090205490565b5050609f5490565b919050565b600080516020611dc6833981519152805460028114156116565760405162461bcd60e51b815260040161053790611cc6565b600282556001600160a01b0384166116b05760405162461bcd60e51b815260206004820152601a60248201527f4275726e2066726f6d20746865207a65726f20616464726573730000000000006044820152606401610537565b826116ba57611824565b60006116c58561182d565b905060006116d5611214876115dd565b6001600160a01b0387166000908152609d602052604090205490915080821480611708575081611706600183611d47565b145b1561172b576001600160a01b0387166000908152609d60205260408120556117b5565b81811115611774576001600160a01b0387166000908152609d602052604090205461175690836111c2565b6001600160a01b0388166000908152609d60205260409020556117b5565b60405162461bcd60e51b815260206004820152601660248201527552656d6f766520657863656564732062616c616e636560501b6044820152606401610537565b82156117d05760a0546117c890876111c2565b60a0556117e1565b609e546117dd90836111c2565b609e555b609a546117ee90876111c2565b609a556040518681526000906001600160a01b03891690600080516020611de68339815191529060200160405180910390a35050505b50600190555050565b6000813b15801590819061186b57506001600160a01b038316600090815260a2602052604081205460ff16600281111561186957611869611daf565b145b1561187957611879836118f1565b50506001600160a01b0316600090815260a16020526040902054151590565b60006111ce8284611d28565b60006111ce8284611d06565b60006111ce8383670de0b6b3a76400006119a9565b600081848411156118e95760405162461bcd60e51b81526004016105379190611c3a565b505050900390565b6001600160a01b038116600090815260a160205260409020546115da576001600160a01b0381166000908152609d6020526040902054611953576001600160a01b0316600090815260a1602052604090206b033b2e3c9fd0803ce80000009055565b609f546001600160a01b038216600090815260a1602052604090205561197b610ed082610bd7565b60a0556001600160a01b0381166000908152609d6020526040902054609e546119a3916111c2565b609e5550565b6000806119b68585611898565b90506119c281846118a4565b95945050505050565b8280546119d790611d5e565b90600052602060002090601f0160209004810192826119f95760008555611a3f565b82601f10611a1257805160ff1916838001178555611a3f565b82800160010185558215611a3f579182015b82811115611a3f578251825591602001919060010190611a24565b50611a4b929150611a4f565b5090565b5b80821115611a4b5760008155600101611a50565b80356001600160a01b038116811461161f57600080fd5b60008083601f840112611a8d57600080fd5b50813567ffffffffffffffff811115611aa557600080fd5b602083019150836020828501011115611abd57600080fd5b9250929050565b600060208284031215611ad657600080fd5b6111ce82611a64565b60008060408385031215611af257600080fd5b611afb83611a64565b9150611b0960208401611a64565b90509250929050565b600080600060608486031215611b2757600080fd5b611b3084611a64565b9250611b3e60208501611a64565b9150604084013590509250925092565b60008060408385031215611b6157600080fd5b611b6a83611a64565b946020939093013593505050565b600080600080600060608688031215611b9057600080fd5b853567ffffffffffffffff80821115611ba857600080fd5b611bb489838a01611a7b565b90975095506020880135915080821115611bcd57600080fd5b50611bda88828901611a7b565b9094509250611bed905060408701611a64565b90509295509295909350565b600060208284031215611c0b57600080fd5b5035919050565b6020810160038310611c3457634e487b7160e01b600052602160045260246000fd5b91905290565b600060208083528351808285015260005b81811015611c6757858101830151858201604001528201611c4b565b81811115611c79576000604083870101525b50601f01601f1916929092016040019392505050565b60208082526017908201527f43616c6c6572206973206e6f7420746865205661756c74000000000000000000604082015260600190565b6020808252600e908201526d1499595b9d1c985b9d0818d85b1b60921b604082015260600190565b60008219821115611d0157611d01611d99565b500190565b600082611d2357634e487b7160e01b600052601260045260246000fd5b500490565b6000816000190483118215151615611d4257611d42611d99565b500290565b600082821015611d5957611d59611d99565b500390565b600181811c90821680611d7257607f821691505b60208210811415611d9357634e487b7160e01b600052602260045260246000fd5b50919050565b634e487b7160e01b600052601160045260246000fd5b634e487b7160e01b600052602160045260246000fdfe218adab1852f0bdeacb3305483cf296dbcf6abf496f646284463c8e6a43fa665ddf252ad1be2c89b69c2b068fc378daa952ba7f163c4a11628f55a4df523b3effe7bb572d5723516ce4fe7a6a664f5adb38f5714efcd271411ed70a34d3ef2f7a2646970667358221220936ebf0337f2252dc85900f305f8a8bc7401dd7ef41ab2ab2d4067c889f2919464736f6c63430008070033fe7bb572d5723516ce4fe7a6a664f5adb38f5714efcd271411ed70a34d3ef2f7",
  "devdoc": {
    "kind": "dev",
    "methods": {
      "allowance(address,address)": {
        "details": "Function to check the amount of tokens that _owner has allowed to      `_spender`.",
        "params": {
          "_owner": "The address which owns the funds.",
          "_spender": "The address which will spend the funds."
        },
        "returns": {
          "_0": "The number of tokens still available for the _spender."
        }
      },
      "approve(address,uint256)": {
        "details": "Approve the passed address to spend the specified amount of tokens      on behalf of msg.sender. This method is included for ERC20      compatibility. `increaseAllowance` and `decreaseAllowance` should be      used instead.      Changing an allowance with this method brings the risk that someone      may transfer both the old and the new allowance - if they are both      greater than zero - if a transfer transaction is mined before the      later approve() call is mined.",
        "params": {
          "_spender": "The address which will spend the funds.",
          "_value": "The amount of tokens to be spent."
        }
      },
      "balanceOf(address)": {
        "details": "Gets the balance of the specified address.",
        "params": {
          "_account": "Address to query the balance of."
        },
        "returns": {
          "_0": "A uint256 representing the amount of base units owned by the         specified address."
        }
      },
      "burn(address,uint256)": {
        "details": "Burns tokens, decreasing totalSupply."
      },
      "changeSupply(uint256)": {
        "details": "Modify the supply without minting new tokens. This uses a change in      the exchange rate between \"credits\" and XUSD tokens to change balances.",
        "params": {
          "_newTotalSupply": "New total supply of XUSD."
        }
      },
      "claimGovernance()": {
        "details": "Claim Governance of the contract to a new account (`newGovernor`). Can only be called by the new Governor."
      },
      "creditsBalanceOf(address)": {
        "details": "Gets the credits balance of the specified address.",
        "params": {
          "_account": "The address to query the balance of."
        },
        "returns": {
          "_0": "(uint256, uint256, bool) Credit balance, credits per token of the         address"
        }
      },
      "decimals()": {
        "details": "Returns the number of decimals used to get its user representation. For example, if `decimals` equals `2`, a balance of `505` tokens should be displayed to a user as `5,05` (`505 / 10 ** 2`). Tokens usually opt for a value of 18, imitating the relationship between Ether and Wei. NOTE: This information is only used for _display_ purposes: it in no way affects any of the arithmetic of the contract, including {IERC20-balanceOf} and {IERC20-transfer}."
      },
      "decreaseAllowance(address,uint256)": {
        "details": "Decrease the amount of tokens that an owner has allowed to `_spender`.",
        "params": {
          "_spender": "The address which will spend the funds.",
          "_subtractedValue": "The amount of tokens to decrease the allowance        by."
        }
      },
      "governor()": {
        "details": "Returns the address of the current Governor."
      },
      "increaseAllowance(address,uint256)": {
        "details": "Increase the amount of tokens that an owner has allowed to      `_spender`.      This method should be used instead of approve() to avoid the double      approval vulnerability described above.",
        "params": {
          "_addedValue": "The amount of tokens to increase the allowance by.",
          "_spender": "The address which will spend the funds."
        }
      },
      "isGovernor()": {
        "details": "Returns true if the caller is the current Governor."
      },
      "mint(address,uint256)": {
        "details": "Mints new tokens, increasing totalSupply."
      },
      "name()": {
        "details": "Returns the name of the token."
      },
      "rebaseOptIn()": {
        "details": "Add a contract address to the non-rebasing exception list. The address's balance will be part of rebases and the account will be exposed to upside and downside."
      },
      "rebaseOptOut()": {
        "details": "Explicitly mark that an address is non-rebasing."
      },
      "rebasingCredits()": {
        "returns": {
          "_0": "Total number of rebasing credits"
        }
      },
      "rebasingCreditsPerToken()": {
        "returns": {
          "_0": "rebasingCreditsPerToken"
        }
      },
      "symbol()": {
        "details": "Returns the symbol of the token, usually a shorter version of the name."
      },
      "totalSupply()": {
        "returns": {
          "_0": "The total supply of XUSD."
        }
      },
      "transfer(address,uint256)": {
        "details": "Transfer tokens to a specified address.",
        "params": {
          "_to": "the address to transfer to.",
          "_value": "the amount to be transferred."
        },
        "returns": {
          "_0": "true on success."
        }
      },
      "transferFrom(address,address,uint256)": {
        "details": "Transfer tokens from one address to another.",
        "params": {
          "_from": "The address you want to send tokens from.",
          "_to": "The address you want to transfer to.",
          "_value": "The amount of tokens to be transferred."
        }
      },
      "transferGovernance(address)": {
        "details": "Transfers Governance of the contract to a new account (`newGovernor`). Can only be called by the current Governor. Must be claimed for this to complete",
        "params": {
          "_newGovernor": "Address of the new Governor"
        }
      }
    },
    "version": 1
  },
  "userdoc": {
    "kind": "user",
    "methods": {},
    "notice": "NOTE that this is an ERC20 token but the invariant that the sum of balanceOf(x) for all x is not >= totalSupply(). This is a consequence of the rebasing design. Any integrations with XUSD should be aware.",
    "version": 1
  },
  "storageLayout": {
    "storage": [
      {
        "astId": 9971,
        "contract": "contracts/token/XUSD.sol:XUSD",
        "label": "initialized",
        "offset": 0,
        "slot": "0",
        "type": "t_bool"
      },
      {
        "astId": 9974,
        "contract": "contracts/token/XUSD.sol:XUSD",
        "label": "initializing",
        "offset": 1,
        "slot": "0",
        "type": "t_bool"
      },
      {
        "astId": 10014,
        "contract": "contracts/token/XUSD.sol:XUSD",
        "label": "______gap",
        "offset": 0,
        "slot": "1",
        "type": "t_array(t_uint256)50_storage"
      },
      {
        "astId": 10529,
        "contract": "contracts/token/XUSD.sol:XUSD",
        "label": "_____gap",
        "offset": 0,
        "slot": "51",
        "type": "t_array(t_uint256)100_storage"
      },
      {
        "astId": 10531,
        "contract": "contracts/token/XUSD.sol:XUSD",
        "label": "_name",
        "offset": 0,
        "slot": "151",
        "type": "t_string_storage"
      },
      {
        "astId": 10533,
        "contract": "contracts/token/XUSD.sol:XUSD",
        "label": "_symbol",
        "offset": 0,
        "slot": "152",
        "type": "t_string_storage"
      },
      {
        "astId": 10535,
        "contract": "contracts/token/XUSD.sol:XUSD",
        "label": "_decimals",
        "offset": 0,
        "slot": "153",
        "type": "t_uint8"
      },
      {
        "astId": 8846,
        "contract": "contracts/token/XUSD.sol:XUSD",
        "label": "_totalSupply",
        "offset": 0,
        "slot": "154",
        "type": "t_uint256"
      },
      {
        "astId": 8852,
        "contract": "contracts/token/XUSD.sol:XUSD",
        "label": "_allowances",
        "offset": 0,
        "slot": "155",
        "type": "t_mapping(t_address,t_mapping(t_address,t_uint256))"
      },
      {
        "astId": 8858,
        "contract": "contracts/token/XUSD.sol:XUSD",
        "label": "vaultAddress",
        "offset": 0,
        "slot": "156",
        "type": "t_address"
      },
      {
        "astId": 8862,
        "contract": "contracts/token/XUSD.sol:XUSD",
        "label": "_creditBalances",
        "offset": 0,
        "slot": "157",
        "type": "t_mapping(t_address,t_uint256)"
      },
      {
        "astId": 8864,
        "contract": "contracts/token/XUSD.sol:XUSD",
        "label": "_rebasingCredits",
        "offset": 0,
        "slot": "158",
        "type": "t_uint256"
      },
      {
        "astId": 8866,
        "contract": "contracts/token/XUSD.sol:XUSD",
        "label": "_rebasingCreditsPerToken",
        "offset": 0,
        "slot": "159",
        "type": "t_uint256"
      },
      {
        "astId": 8868,
        "contract": "contracts/token/XUSD.sol:XUSD",
        "label": "nonRebasingSupply",
        "offset": 0,
        "slot": "160",
        "type": "t_uint256"
      },
      {
        "astId": 8872,
        "contract": "contracts/token/XUSD.sol:XUSD",
        "label": "nonRebasingCreditsPerToken",
        "offset": 0,
        "slot": "161",
        "type": "t_mapping(t_address,t_uint256)"
      },
      {
        "astId": 8877,
        "contract": "contracts/token/XUSD.sol:XUSD",
        "label": "rebaseState",
        "offset": 0,
        "slot": "162",
        "type": "t_mapping(t_address,t_enum(RebaseOptions)8837)"
      },
      {
        "astId": 8881,
        "contract": "contracts/token/XUSD.sol:XUSD",
        "label": "isUpgraded",
        "offset": 0,
        "slot": "163",
        "type": "t_mapping(t_address,t_uint256)"
      }
    ],
    "types": {
      "t_address": {
        "encoding": "inplace",
        "label": "address",
        "numberOfBytes": "20"
      },
      "t_array(t_uint256)100_storage": {
        "base": "t_uint256",
        "encoding": "inplace",
        "label": "uint256[100]",
        "numberOfBytes": "3200"
      },
      "t_array(t_uint256)50_storage": {
        "base": "t_uint256",
        "encoding": "inplace",
        "label": "uint256[50]",
        "numberOfBytes": "1600"
      },
      "t_bool": {
        "encoding": "inplace",
        "label": "bool",
        "numberOfBytes": "1"
      },
      "t_enum(RebaseOptions)8837": {
        "encoding": "inplace",
        "label": "enum XUSD.RebaseOptions",
        "numberOfBytes": "1"
      },
      "t_mapping(t_address,t_enum(RebaseOptions)8837)": {
        "encoding": "mapping",
        "key": "t_address",
        "label": "mapping(address => enum XUSD.RebaseOptions)",
        "numberOfBytes": "32",
        "value": "t_enum(RebaseOptions)8837"
      },
      "t_mapping(t_address,t_mapping(t_address,t_uint256))": {
        "encoding": "mapping",
        "key": "t_address",
        "label": "mapping(address => mapping(address => uint256))",
        "numberOfBytes": "32",
        "value": "t_mapping(t_address,t_uint256)"
      },
      "t_mapping(t_address,t_uint256)": {
        "encoding": "mapping",
        "key": "t_address",
        "label": "mapping(address => uint256)",
        "numberOfBytes": "32",
        "value": "t_uint256"
      },
      "t_string_storage": {
        "encoding": "bytes",
        "label": "string",
        "numberOfBytes": "32"
      },
      "t_uint256": {
        "encoding": "inplace",
        "label": "uint256",
        "numberOfBytes": "32"
      },
      "t_uint8": {
        "encoding": "inplace",
        "label": "uint8",
        "numberOfBytes": "1"
      }
    }
  }
}